{
  "_format": "hh-sol-artifact-1",
  "contractName": "SUBVToken",
  "sourceName": "contracts/SUBVToken.sol",
  "abi": [
    {
      "inputs": [],
      "stateMutability": "nonpayable",
      "type": "constructor"
    },
    {
      "anonymous": false,
      "inputs": [
        {
          "indexed": false,
          "internalType": "address",
          "name": "previousAdmin",
          "type": "address"
        },
        {
          "indexed": false,
          "internalType": "address",
          "name": "newAdmin",
          "type": "address"
        }
      ],
      "name": "AdminChanged",
      "type": "event"
    },
    {
      "anonymous": false,
      "inputs": [
        {
          "indexed": true,
          "internalType": "address",
          "name": "owner",
          "type": "address"
        },
        {
          "indexed": true,
          "internalType": "address",
          "name": "spender",
          "type": "address"
        },
        {
          "indexed": false,
          "internalType": "uint256",
          "name": "value",
          "type": "uint256"
        }
      ],
      "name": "Approval",
      "type": "event"
    },
    {
      "anonymous": false,
      "inputs": [
        {
          "indexed": true,
          "internalType": "address",
          "name": "beacon",
          "type": "address"
        }
      ],
      "name": "BeaconUpgraded",
      "type": "event"
    },
    {
      "anonymous": false,
      "inputs": [
        {
          "indexed": false,
          "internalType": "uint8",
          "name": "version",
          "type": "uint8"
        }
      ],
      "name": "Initialized",
      "type": "event"
    },
    {
      "anonymous": false,
      "inputs": [
        {
          "indexed": false,
          "internalType": "uint256",
          "name": "milestoneNumber",
          "type": "uint256"
        },
        {
          "indexed": false,
          "internalType": "uint256",
          "name": "amount",
          "type": "uint256"
        }
      ],
      "name": "MilestoneReleased",
      "type": "event"
    },
    {
      "anonymous": false,
      "inputs": [
        {
          "indexed": false,
          "internalType": "address",
          "name": "account",
          "type": "address"
        }
      ],
      "name": "Paused",
      "type": "event"
    },
    {
      "anonymous": false,
      "inputs": [
        {
          "indexed": true,
          "internalType": "bytes32",
          "name": "role",
          "type": "bytes32"
        },
        {
          "indexed": true,
          "internalType": "bytes32",
          "name": "previousAdminRole",
          "type": "bytes32"
        },
        {
          "indexed": true,
          "internalType": "bytes32",
          "name": "newAdminRole",
          "type": "bytes32"
        }
      ],
      "name": "RoleAdminChanged",
      "type": "event"
    },
    {
      "anonymous": false,
      "inputs": [
        {
          "indexed": true,
          "internalType": "bytes32",
          "name": "role",
          "type": "bytes32"
        },
        {
          "indexed": true,
          "internalType": "address",
          "name": "account",
          "type": "address"
        },
        {
          "indexed": true,
          "internalType": "address",
          "name": "sender",
          "type": "address"
        }
      ],
      "name": "RoleGranted",
      "type": "event"
    },
    {
      "anonymous": false,
      "inputs": [
        {
          "indexed": true,
          "internalType": "bytes32",
          "name": "role",
          "type": "bytes32"
        },
        {
          "indexed": true,
          "internalType": "address",
          "name": "account",
          "type": "address"
        },
        {
          "indexed": true,
          "internalType": "address",
          "name": "sender",
          "type": "address"
        }
      ],
      "name": "RoleRevoked",
      "type": "event"
    },
    {
      "anonymous": false,
      "inputs": [
        {
          "indexed": true,
          "internalType": "address",
          "name": "from",
          "type": "address"
        },
        {
          "indexed": true,
          "internalType": "address",
          "name": "to",
          "type": "address"
        },
        {
          "indexed": false,
          "internalType": "uint256",
          "name": "value",
          "type": "uint256"
        }
      ],
      "name": "Transfer",
      "type": "event"
    },
    {
      "anonymous": false,
      "inputs": [
        {
          "indexed": false,
          "internalType": "address",
          "name": "oldTreasury",
          "type": "address"
        },
        {
          "indexed": false,
          "internalType": "address",
          "name": "newTreasury",
          "type": "address"
        }
      ],
      "name": "TreasuryAddressUpdated",
      "type": "event"
    },
    {
      "anonymous": false,
      "inputs": [
        {
          "indexed": false,
          "internalType": "address",
          "name": "account",
          "type": "address"
        }
      ],
      "name": "Unpaused",
      "type": "event"
    },
    {
      "anonymous": false,
      "inputs": [
        {
          "indexed": true,
          "internalType": "address",
          "name": "implementation",
          "type": "address"
        }
      ],
      "name": "Upgraded",
      "type": "event"
    },
    {
      "inputs": [],
      "name": "ADMIN_ROLE",
      "outputs": [
        {
          "internalType": "bytes32",
          "name": "",
          "type": "bytes32"
        }
      ],
      "stateMutability": "view",
      "type": "function"
    },
    {
      "inputs": [],
      "name": "DEFAULT_ADMIN_ROLE",
      "outputs": [
        {
          "internalType": "bytes32",
          "name": "",
          "type": "bytes32"
        }
      ],
      "stateMutability": "view",
      "type": "function"
    },
    {
      "inputs": [],
      "name": "INITIAL_SUPPLY",
      "outputs": [
        {
          "internalType": "uint256",
          "name": "",
          "type": "uint256"
        }
      ],
      "stateMutability": "view",
      "type": "function"
    },
    {
      "inputs": [],
      "name": "MAX_MILESTONES",
      "outputs": [
        {
          "internalType": "uint256",
          "name": "",
          "type": "uint256"
        }
      ],
      "stateMutability": "view",
      "type": "function"
    },
    {
      "inputs": [],
      "name": "MAX_SUPPLY",
      "outputs": [
        {
          "internalType": "uint256",
          "name": "",
          "type": "uint256"
        }
      ],
      "stateMutability": "view",
      "type": "function"
    },
    {
      "inputs": [],
      "name": "MILESTONE_RELEASE",
      "outputs": [
        {
          "internalType": "uint256",
          "name": "",
          "type": "uint256"
        }
      ],
      "stateMutability": "view",
      "type": "function"
    },
    {
      "inputs": [],
      "name": "UPGRADER_ROLE",
      "outputs": [
        {
          "internalType": "bytes32",
          "name": "",
          "type": "bytes32"
        }
      ],
      "stateMutability": "view",
      "type": "function"
    },
    {
      "inputs": [
        {
          "internalType": "address",
          "name": "owner",
          "type": "address"
        },
        {
          "internalType": "address",
          "name": "spender",
          "type": "address"
        }
      ],
      "name": "allowance",
      "outputs": [
        {
          "internalType": "uint256",
          "name": "",
          "type": "uint256"
        }
      ],
      "stateMutability": "view",
      "type": "function"
    },
    {
      "inputs": [
        {
          "internalType": "address",
          "name": "spender",
          "type": "address"
        },
        {
          "internalType": "uint256",
          "name": "amount",
          "type": "uint256"
        }
      ],
      "name": "approve",
      "outputs": [
        {
          "internalType": "bool",
          "name": "",
          "type": "bool"
        }
      ],
      "stateMutability": "nonpayable",
      "type": "function"
    },
    {
      "inputs": [
        {
          "internalType": "address",
          "name": "account",
          "type": "address"
        }
      ],
      "name": "balanceOf",
      "outputs": [
        {
          "internalType": "uint256",
          "name": "",
          "type": "uint256"
        }
      ],
      "stateMutability": "view",
      "type": "function"
    },
    {
      "inputs": [
        {
          "internalType": "uint256",
          "name": "amount",
          "type": "uint256"
        }
      ],
      "name": "burn",
      "outputs": [],
      "stateMutability": "nonpayable",
      "type": "function"
    },
    {
      "inputs": [
        {
          "internalType": "address",
          "name": "account",
          "type": "address"
        },
        {
          "internalType": "uint256",
          "name": "amount",
          "type": "uint256"
        }
      ],
      "name": "burnFrom",
      "outputs": [],
      "stateMutability": "nonpayable",
      "type": "function"
    },
    {
      "inputs": [],
      "name": "cap",
      "outputs": [
        {
          "internalType": "uint256",
          "name": "",
          "type": "uint256"
        }
      ],
      "stateMutability": "view",
      "type": "function"
    },
    {
      "inputs": [],
      "name": "decimals",
      "outputs": [
        {
          "internalType": "uint8",
          "name": "",
          "type": "uint8"
        }
      ],
      "stateMutability": "view",
      "type": "function"
    },
    {
      "inputs": [
        {
          "internalType": "address",
          "name": "spender",
          "type": "address"
        },
        {
          "internalType": "uint256",
          "name": "subtractedValue",
          "type": "uint256"
        }
      ],
      "name": "decreaseAllowance",
      "outputs": [
        {
          "internalType": "bool",
          "name": "",
          "type": "bool"
        }
      ],
      "stateMutability": "nonpayable",
      "type": "function"
    },
    {
      "inputs": [
        {
          "internalType": "bytes32",
          "name": "role",
          "type": "bytes32"
        }
      ],
      "name": "getRoleAdmin",
      "outputs": [
        {
          "internalType": "bytes32",
          "name": "",
          "type": "bytes32"
        }
      ],
      "stateMutability": "view",
      "type": "function"
    },
    {
      "inputs": [
        {
          "internalType": "bytes32",
          "name": "role",
          "type": "bytes32"
        },
        {
          "internalType": "address",
          "name": "account",
          "type": "address"
        }
      ],
      "name": "grantRole",
      "outputs": [],
      "stateMutability": "nonpayable",
      "type": "function"
    },
    {
      "inputs": [
        {
          "internalType": "bytes32",
          "name": "role",
          "type": "bytes32"
        },
        {
          "internalType": "address",
          "name": "account",
          "type": "address"
        }
      ],
      "name": "hasRole",
      "outputs": [
        {
          "internalType": "bool",
          "name": "",
          "type": "bool"
        }
      ],
      "stateMutability": "view",
      "type": "function"
    },
    {
      "inputs": [
        {
          "internalType": "address",
          "name": "spender",
          "type": "address"
        },
        {
          "internalType": "uint256",
          "name": "addedValue",
          "type": "uint256"
        }
      ],
      "name": "increaseAllowance",
      "outputs": [
        {
          "internalType": "bool",
          "name": "",
          "type": "bool"
        }
      ],
      "stateMutability": "nonpayable",
      "type": "function"
    },
    {
      "inputs": [
        {
          "internalType": "address",
          "name": "admin",
          "type": "address"
        },
        {
          "internalType": "address",
          "name": "treasuryAddr",
          "type": "address"
        }
      ],
      "name": "initialize",
      "outputs": [],
      "stateMutability": "nonpayable",
      "type": "function"
    },
    {
      "inputs": [],
      "name": "milestonesReleased",
      "outputs": [
        {
          "internalType": "uint256",
          "name": "",
          "type": "uint256"
        }
      ],
      "stateMutability": "view",
      "type": "function"
    },
    {
      "inputs": [],
      "name": "name",
      "outputs": [
        {
          "internalType": "string",
          "name": "",
          "type": "string"
        }
      ],
      "stateMutability": "view",
      "type": "function"
    },
    {
      "inputs": [],
      "name": "pause",
      "outputs": [],
      "stateMutability": "nonpayable",
      "type": "function"
    },
    {
      "inputs": [],
      "name": "paused",
      "outputs": [
        {
          "internalType": "bool",
          "name": "",
          "type": "bool"
        }
      ],
      "stateMutability": "view",
      "type": "function"
    },
    {
      "inputs": [],
      "name": "proxiableUUID",
      "outputs": [
        {
          "internalType": "bytes32",
          "name": "",
          "type": "bytes32"
        }
      ],
      "stateMutability": "view",
      "type": "function"
    },
    {
      "inputs": [],
      "name": "releaseMilestone",
      "outputs": [],
      "stateMutability": "nonpayable",
      "type": "function"
    },
    {
      "inputs": [],
      "name": "releasedSupply",
      "outputs": [
        {
          "internalType": "uint256",
          "name": "",
          "type": "uint256"
        }
      ],
      "stateMutability": "view",
      "type": "function"
    },
    {
      "inputs": [],
      "name": "remainingMilestoneTokens",
      "outputs": [
        {
          "internalType": "uint256",
          "name": "",
          "type": "uint256"
        }
      ],
      "stateMutability": "view",
      "type": "function"
    },
    {
      "inputs": [
        {
          "internalType": "bytes32",
          "name": "role",
          "type": "bytes32"
        },
        {
          "internalType": "address",
          "name": "account",
          "type": "address"
        }
      ],
      "name": "renounceRole",
      "outputs": [],
      "stateMutability": "nonpayable",
      "type": "function"
    },
    {
      "inputs": [
        {
          "internalType": "bytes32",
          "name": "role",
          "type": "bytes32"
        },
        {
          "internalType": "address",
          "name": "account",
          "type": "address"
        }
      ],
      "name": "revokeRole",
      "outputs": [],
      "stateMutability": "nonpayable",
      "type": "function"
    },
    {
      "inputs": [
        {
          "internalType": "bytes4",
          "name": "interfaceId",
          "type": "bytes4"
        }
      ],
      "name": "supportsInterface",
      "outputs": [
        {
          "internalType": "bool",
          "name": "",
          "type": "bool"
        }
      ],
      "stateMutability": "view",
      "type": "function"
    },
    {
      "inputs": [],
      "name": "symbol",
      "outputs": [
        {
          "internalType": "string",
          "name": "",
          "type": "string"
        }
      ],
      "stateMutability": "view",
      "type": "function"
    },
    {
      "inputs": [],
      "name": "totalSupply",
      "outputs": [
        {
          "internalType": "uint256",
          "name": "",
          "type": "uint256"
        }
      ],
      "stateMutability": "view",
      "type": "function"
    },
    {
      "inputs": [
        {
          "internalType": "address",
          "name": "to",
          "type": "address"
        },
        {
          "internalType": "uint256",
          "name": "amount",
          "type": "uint256"
        }
      ],
      "name": "transfer",
      "outputs": [
        {
          "internalType": "bool",
          "name": "",
          "type": "bool"
        }
      ],
      "stateMutability": "nonpayable",
      "type": "function"
    },
    {
      "inputs": [
        {
          "internalType": "address",
          "name": "from",
          "type": "address"
        },
        {
          "internalType": "address",
          "name": "to",
          "type": "address"
        },
        {
          "internalType": "uint256",
          "name": "amount",
          "type": "uint256"
        }
      ],
      "name": "transferFrom",
      "outputs": [
        {
          "internalType": "bool",
          "name": "",
          "type": "bool"
        }
      ],
      "stateMutability": "nonpayable",
      "type": "function"
    },
    {
      "inputs": [],
      "name": "treasuryAddress",
      "outputs": [
        {
          "internalType": "address",
          "name": "",
          "type": "address"
        }
      ],
      "stateMutability": "view",
      "type": "function"
    },
    {
      "inputs": [],
      "name": "unpause",
      "outputs": [],
      "stateMutability": "nonpayable",
      "type": "function"
    },
    {
      "inputs": [
        {
          "internalType": "address",
          "name": "newTreasury",
          "type": "address"
        }
      ],
      "name": "updateTreasuryAddress",
      "outputs": [],
      "stateMutability": "nonpayable",
      "type": "function"
    },
    {
      "inputs": [
        {
          "internalType": "address",
          "name": "newImplementation",
          "type": "address"
        }
      ],
      "name": "upgradeTo",
      "outputs": [],
      "stateMutability": "nonpayable",
      "type": "function"
    },
    {
      "inputs": [
        {
          "internalType": "address",
          "name": "newImplementation",
          "type": "address"
        },
        {
          "internalType": "bytes",
          "name": "data",
          "type": "bytes"
        }
      ],
      "name": "upgradeToAndCall",
      "outputs": [],
      "stateMutability": "payable",
      "type": "function"
    }
  ],
  "bytecode": "0x60a06040523060805234801561001457600080fd5b5061001d610022565b6100e1565b600054610100900460ff161561008e5760405162461bcd60e51b815260206004820152602760248201527f496e697469616c697a61626c653a20636f6e747261637420697320696e697469604482015266616c697a696e6760c81b606482015260840160405180910390fd5b60005460ff908116146100df576000805460ff191660ff9081179091556040519081527f7f26b83ff96e1f2b6a682f133852f6798a09c465da95921460cefb38474024989060200160405180910390a15b565b608051612749610118600039600081816108c40152818161090401528181610c9301528181610cd30152610d6201526127496000f3fe60806040526004361061023b5760003560e01c80635c975abb1161012e578063a217fddf116100ab578063c5f956af1161006f578063c5f956af14610645578063d547741f1461067e578063dd62ed3e1461069e578063f20f9cf9146106be578063f72c0d8b146106d357600080fd5b8063a217fddf146105d9578063a457c2d7146105ee578063a9059cbb1461060e578063b813c6271461062e578063c5cf114c1461034957600080fd5b80638456cb59116100f25780638456cb59146105635780638cf9f3bd1461057857806391d148541461058f57806395d89b41146105af5780639ed89cda146105c457600080fd5b80635c975abb146104b357806370a08231146104cb57806375b238fc1461050157806379cc679014610523578063841e45611461054357600080fd5b8063355274ea116101bc57806342966c681161018057806342966c6814610436578063485cc955146104565780634c05abeb146104765780634f1ef2861461048b57806352d1902d1461049e57600080fd5b8063355274ea146103a357806336568abe146103c15780633659cfe6146103e157806339509351146104015780633f4ba83a1461042157600080fd5b8063248a9ca311610203578063248a9ca3146102f65780632f2ff15d146103275780632ff2e9dc14610349578063313ce5671461036857806332cb6b0c1461038457600080fd5b806301ffc9a71461024057806306fdde0314610275578063095ea7b31461029757806318160ddd146102b757806323b872dd146102d6575b600080fd5b34801561024c57600080fd5b5061026061025b3660046120ea565b610707565b60405190151581526020015b60405180910390f35b34801561028157600080fd5b5061028a61073e565b60405161026c9190612138565b3480156102a357600080fd5b506102606102b2366004612187565b6107d0565b3480156102c357600080fd5b506035545b60405190815260200161026c565b3480156102e257600080fd5b506102606102f13660046121b1565b6107e8565b34801561030257600080fd5b506102c86103113660046121ee565b600090815261012e602052604090206001015490565b34801561033357600080fd5b50610347610342366004612207565b61080c565b005b34801561035557600080fd5b506102c86a084595161401484a00000081565b34801561037457600080fd5b506040516012815260200161026c565b34801561039057600080fd5b506102c86a52b7d2dcc80cd2e400000081565b3480156103af57600080fd5b506a52b7d2dcc80cd2e40000006102c8565b3480156103cd57600080fd5b506103476103dc366004612207565b610837565b3480156103ed57600080fd5b506103476103fc366004612233565b6108ba565b34801561040d57600080fd5b5061026061041c366004612187565b610999565b34801561042d57600080fd5b506103476109bb565b34801561044257600080fd5b506103476104513660046121ee565b6109db565b34801561046257600080fd5b5061034761047136600461224e565b6109e5565b34801561048257600080fd5b506102c8600981565b61034761049936600461228e565b610c89565b3480156104aa57600080fd5b506102c8610d55565b3480156104bf57600080fd5b5060ca5460ff16610260565b3480156104d757600080fd5b506102c86104e6366004612233565b6001600160a01b031660009081526033602052604090205490565b34801561050d57600080fd5b506102c86000805160206126f483398151915281565b34801561052f57600080fd5b5061034761053e366004612187565b610e08565b34801561054f57600080fd5b5061034761055e366004612233565b610e1d565b34801561056f57600080fd5b50610347610ee6565b34801561058457600080fd5b506102c86101c55481565b34801561059b57600080fd5b506102606105aa366004612207565b610f06565b3480156105bb57600080fd5b5061028a610f32565b3480156105d057600080fd5b50610347610f41565b3480156105e557600080fd5b506102c8600081565b3480156105fa57600080fd5b50610260610609366004612187565b611056565b34801561061a57600080fd5b50610260610629366004612187565b6110d1565b34801561063a57600080fd5b506102c86101c65481565b34801561065157600080fd5b506101c454610666906001600160a01b031681565b6040516001600160a01b03909116815260200161026c565b34801561068a57600080fd5b50610347610699366004612207565b6110df565b3480156106aa57600080fd5b506102c86106b936600461224e565b611105565b3480156106ca57600080fd5b506102c8611130565b3480156106df57600080fd5b506102c87f189ab7a9244df0848122154315af71fe140f3db0fe014031783b0946b8c9d2e381565b60006001600160e01b03198216637965db0b60e01b148061073857506301ffc9a760e01b6001600160e01b03198316145b92915050565b60606036805461074d90612358565b80601f016020809104026020016040519081016040528092919081815260200182805461077990612358565b80156107c65780601f1061079b576101008083540402835291602001916107c6565b820191906000526020600020905b8154815290600101906020018083116107a957829003601f168201915b5050505050905090565b6000336107de81858561115c565b5060019392505050565b6000336107f6858285611280565b6108018585856112fa565b506001949350505050565b600082815261012e6020526040902060010154610828816114b0565b61083283836114ba565b505050565b6001600160a01b03811633146108ac5760405162461bcd60e51b815260206004820152602f60248201527f416363657373436f6e74726f6c3a2063616e206f6e6c792072656e6f756e636560448201526e103937b632b9903337b91039b2b63360891b60648201526084015b60405180910390fd5b6108b68282611541565b5050565b6001600160a01b037f00000000000000000000000000000000000000000000000000000000000000001630036109025760405162461bcd60e51b81526004016108a390612392565b7f00000000000000000000000000000000000000000000000000000000000000006001600160a01b031661094b6000805160206126ad833981519152546001600160a01b031690565b6001600160a01b0316146109715760405162461bcd60e51b81526004016108a3906123de565b61097a816115a9565b60408051600080825260208201909252610996918391906115d3565b50565b6000336107de8185856109ac8383611105565b6109b69190612440565b61115c565b6000805160206126f48339815191526109d3816114b0565b61099661173e565b6109963382611790565b600054610100900460ff1615808015610a055750600054600160ff909116105b80610a1f5750303b158015610a1f575060005460ff166001145b610a825760405162461bcd60e51b815260206004820152602e60248201527f496e697469616c697a61626c653a20636f6e747261637420697320616c72656160448201526d191e481a5b9a5d1a585b1a5e995960921b60648201526084016108a3565b6000805460ff191660011790558015610aa5576000805461ff0019166101001790555b610af16040518060400160405280600e81526020016d29bab13b32b939b2902a37b5b2b760911b8152506040518060400160405280600481526020016329aaa12b60e11b8152506118d0565b610af9611901565b610b0d6a52b7d2dcc80cd2e400000061192a565b610b1561195a565b610b1d611901565b610b25611901565b610b3d6000805160206126f4833981519152846114ba565b610b677f189ab7a9244df0848122154315af71fe140f3db0fe014031783b0946b8c9d2e3846114ba565b6001600160a01b038216610bbd5760405162461bcd60e51b815260206004820152601f60248201527f54726561737572792063616e6e6f74206265207a65726f20616464726573730060448201526064016108a3565b6101c480546001600160a01b0319166001600160a01b03841617905560006101c5556a084595161401484a0000006101c6819055610bfc908390611989565b60408051600081526001600160a01b03841660208201527f430359a6d97ced2b6f93c77a91e7ce9dfd43252eb91e916adba170485cd8a6a4910160405180910390a18015610832576000805461ff0019169055604051600181527f7f26b83ff96e1f2b6a682f133852f6798a09c465da95921460cefb3847402498906020015b60405180910390a1505050565b6001600160a01b037f0000000000000000000000000000000000000000000000000000000000000000163003610cd15760405162461bcd60e51b81526004016108a390612392565b7f00000000000000000000000000000000000000000000000000000000000000006001600160a01b0316610d1a6000805160206126ad833981519152546001600160a01b031690565b6001600160a01b031614610d405760405162461bcd60e51b81526004016108a3906123de565b610d49826115a9565b6108b6828260016115d3565b6000306001600160a01b037f00000000000000000000000000000000000000000000000000000000000000001614610df55760405162461bcd60e51b815260206004820152603860248201527f555550535570677261646561626c653a206d757374206e6f742062652063616c60448201527f6c6564207468726f7567682064656c656761746563616c6c000000000000000060648201526084016108a3565b506000805160206126ad83398151915290565b610e13823383611280565b6108b68282611790565b6000805160206126f4833981519152610e35816114b0565b6001600160a01b038216610e8b5760405162461bcd60e51b815260206004820152601f60248201527f54726561737572792063616e6e6f74206265207a65726f20616464726573730060448201526064016108a3565b6101c480546001600160a01b038481166001600160a01b031983168117909355604080519190921680825260208201939093527f430359a6d97ced2b6f93c77a91e7ce9dfd43252eb91e916adba170485cd8a6a49101610c7c565b6000805160206126f4833981519152610efe816114b0565b610996611993565b600091825261012e602090815260408084206001600160a01b0393909316845291905290205460ff1690565b60606037805461074d90612358565b6000805160206126f4833981519152610f59816114b0565b60096101c55410610fac5760405162461bcd60e51b815260206004820152601f60248201527f416c6c206d696c6573746f6e657320616c72656164792072656c65617365640060448201526064016108a3565b60016101c56000828254610fc09190612440565b925050819055506a084595161401484a0000006101c66000828254610fe59190612440565b90915550506101c45461100c906001600160a01b03166a084595161401484a000000611989565b6101c554604080519182526a084595161401484a00000060208301527f9e069181c12760c2cd0078ed4facdbe1f3614543b0fbff5dbcac3cbc61a0b64e910160405180910390a150565b600033816110648286611105565b9050838110156110c45760405162461bcd60e51b815260206004820152602560248201527f45524332303a2064656372656173656420616c6c6f77616e63652062656c6f77604482015264207a65726f60d81b60648201526084016108a3565b610801828686840361115c565b6000336107de8185856112fa565b600082815261012e60205260409020600101546110fb816114b0565b6108328383611541565b6001600160a01b03918216600090815260346020908152604080832093909416825291909152205490565b60006101c55460096111429190612453565b611157906a084595161401484a000000612466565b905090565b6001600160a01b0383166111be5760405162461bcd60e51b8152602060048201526024808201527f45524332303a20617070726f76652066726f6d20746865207a65726f206164646044820152637265737360e01b60648201526084016108a3565b6001600160a01b03821661121f5760405162461bcd60e51b815260206004820152602260248201527f45524332303a20617070726f766520746f20746865207a65726f206164647265604482015261737360f01b60648201526084016108a3565b6001600160a01b0383811660008181526034602090815260408083209487168084529482529182902085905590518481527f8c5be1e5ebec7d5bd14f71427d1e84f3dd0314c0f7b2291e5b200ac8c7c3b925910160405180910390a3505050565b600061128c8484611105565b905060001981146112f457818110156112e75760405162461bcd60e51b815260206004820152601d60248201527f45524332303a20696e73756666696369656e7420616c6c6f77616e636500000060448201526064016108a3565b6112f4848484840361115c565b50505050565b6001600160a01b03831661135e5760405162461bcd60e51b815260206004820152602560248201527f45524332303a207472616e736665722066726f6d20746865207a65726f206164604482015264647265737360d81b60648201526084016108a3565b6001600160a01b0382166113c05760405162461bcd60e51b815260206004820152602360248201527f45524332303a207472616e7366657220746f20746865207a65726f206164647260448201526265737360e81b60648201526084016108a3565b6113cb8383836119d0565b6001600160a01b038316600090815260336020526040902054818110156114435760405162461bcd60e51b815260206004820152602660248201527f45524332303a207472616e7366657220616d6f756e7420657863656564732062604482015265616c616e636560d01b60648201526084016108a3565b6001600160a01b0380851660008181526033602052604080822086860390559286168082529083902080548601905591517fddf252ad1be2c89b69c2b068fc378daa952ba7f163c4a11628f55a4df523b3ef906114a39086815260200190565b60405180910390a36112f4565b61099681336119d8565b6114c48282610f06565b6108b657600082815261012e602090815260408083206001600160a01b03851684529091529020805460ff191660011790556114fd3390565b6001600160a01b0316816001600160a01b0316837f2f8788117e7eff1d82e926ec794901d17c78024a50270940304540a733656f0d60405160405180910390a45050565b61154b8282610f06565b156108b657600082815261012e602090815260408083206001600160a01b0385168085529252808320805460ff1916905551339285917ff6391f5c32d9c69d2a47ea670b442974b53935d1edc7fd64eb21e047a839171b9190a45050565b7f189ab7a9244df0848122154315af71fe140f3db0fe014031783b0946b8c9d2e36108b6816114b0565b7f4910fdfa16fed3260ed0e7147f7cc6da11a60208b5b9406d12a635614ffd91435460ff16156116065761083283611a31565b826001600160a01b03166352d1902d6040518163ffffffff1660e01b8152600401602060405180830381865afa925050508015611660575060408051601f3d908101601f1916820190925261165d9181019061247d565b60015b6116c35760405162461bcd60e51b815260206004820152602e60248201527f45524331393637557067726164653a206e657720696d706c656d656e7461746960448201526d6f6e206973206e6f74205555505360901b60648201526084016108a3565b6000805160206126ad83398151915281146117325760405162461bcd60e51b815260206004820152602960248201527f45524331393637557067726164653a20756e737570706f727465642070726f786044820152681a58589b195555525160ba1b60648201526084016108a3565b50610832838383611acd565b611746611af2565b60ca805460ff191690557f5db9ee0a495bf2e6ff9c91a7834c1ba4fdd244a5e8aa4e537bd38aeae4b073aa335b6040516001600160a01b03909116815260200160405180910390a1565b6001600160a01b0382166117f05760405162461bcd60e51b815260206004820152602160248201527f45524332303a206275726e2066726f6d20746865207a65726f206164647265736044820152607360f81b60648201526084016108a3565b6117fc826000836119d0565b6001600160a01b038216600090815260336020526040902054818110156118705760405162461bcd60e51b815260206004820152602260248201527f45524332303a206275726e20616d6f756e7420657863656564732062616c616e604482015261636560f01b60648201526084016108a3565b6001600160a01b03831660008181526033602090815260408083208686039055603580548790039055518581529192917fddf252ad1be2c89b69c2b068fc378daa952ba7f163c4a11628f55a4df523b3ef910160405180910390a3505050565b600054610100900460ff166118f75760405162461bcd60e51b81526004016108a390612496565b6108b68282611b3b565b600054610100900460ff166119285760405162461bcd60e51b81526004016108a390612496565b565b600054610100900460ff166119515760405162461bcd60e51b81526004016108a390612496565b61099681611b7b565b600054610100900460ff166119815760405162461bcd60e51b81526004016108a390612496565b611928611bef565b6108b68282611c22565b61199b611c9a565b60ca805460ff191660011790557f62e78cea01bee320cd4e420270b5ea74000d11b0c9f74754ebdbfc544b05a2586117733390565b610832611c9a565b6119e28282610f06565b6108b6576119ef81611ce0565b6119fa836020611cf2565b604051602001611a0b9291906124e1565b60408051601f198184030181529082905262461bcd60e51b82526108a391600401612138565b6001600160a01b0381163b611a9e5760405162461bcd60e51b815260206004820152602d60248201527f455243313936373a206e657720696d706c656d656e746174696f6e206973206e60448201526c1bdd08184818dbdb9d1c9858dd609a1b60648201526084016108a3565b6000805160206126ad83398151915280546001600160a01b0319166001600160a01b0392909216919091179055565b611ad683611e95565b600082511180611ae35750805b15610832576112f48383611ed5565b60ca5460ff166119285760405162461bcd60e51b815260206004820152601460248201527314185d5cd8589b194e881b9bdd081c185d5cd95960621b60448201526064016108a3565b600054610100900460ff16611b625760405162461bcd60e51b81526004016108a390612496565b6036611b6e83826125a4565b50603761083282826125a4565b600054610100900460ff16611ba25760405162461bcd60e51b81526004016108a390612496565b60008111611bea5760405162461bcd60e51b8152602060048201526015602482015274045524332304361707065643a20636170206973203605c1b60448201526064016108a3565b609755565b600054610100900460ff16611c165760405162461bcd60e51b81526004016108a390612496565b60ca805460ff19169055565b6a52b7d2dcc80cd2e400000081611c3860355490565b611c429190612440565b1115611c905760405162461bcd60e51b815260206004820152601960248201527f45524332304361707065643a206361702065786365656465640000000000000060448201526064016108a3565b6108b68282611efa565b60ca5460ff16156119285760405162461bcd60e51b815260206004820152601060248201526f14185d5cd8589b194e881c185d5cd95960821b60448201526064016108a3565b60606107386001600160a01b03831660145b60606000611d01836002612466565b611d0c906002612440565b67ffffffffffffffff811115611d2457611d24612278565b6040519080825280601f01601f191660200182016040528015611d4e576020820181803683370190505b509050600360fc1b81600081518110611d6957611d69612663565b60200101906001600160f81b031916908160001a905350600f60fb1b81600181518110611d9857611d98612663565b60200101906001600160f81b031916908160001a9053506000611dbc846002612466565b611dc7906001612440565b90505b6001811115611e3f576f181899199a1a9b1b9c1cb0b131b232b360811b85600f1660108110611dfb57611dfb612663565b1a60f81b828281518110611e1157611e11612663565b60200101906001600160f81b031916908160001a90535060049490941c93611e3881612679565b9050611dca565b508315611e8e5760405162461bcd60e51b815260206004820181905260248201527f537472696e67733a20686578206c656e67746820696e73756666696369656e7460448201526064016108a3565b9392505050565b611e9e81611a31565b6040516001600160a01b038216907fbc7cd75a20ee27fd9adebab32041f755214dbc6bffa90cc0225b39da2e5c2d3b90600090a250565b6060611e8e83836040518060600160405280602781526020016126cd60279139611fc7565b6001600160a01b038216611f505760405162461bcd60e51b815260206004820152601f60248201527f45524332303a206d696e7420746f20746865207a65726f20616464726573730060448201526064016108a3565b611f5c600083836119d0565b8060356000828254611f6e9190612440565b90915550506001600160a01b0382166000818152603360209081526040808320805486019055518481527fddf252ad1be2c89b69c2b068fc378daa952ba7f163c4a11628f55a4df523b3ef910160405180910390a35050565b6060600080856001600160a01b031685604051611fe49190612690565b600060405180830381855af49150503d806000811461201f576040519150601f19603f3d011682016040523d82523d6000602084013e612024565b606091505b50915091506120358683838761203f565b9695505050505050565b606083156120ae5782516000036120a7576001600160a01b0385163b6120a75760405162461bcd60e51b815260206004820152601d60248201527f416464726573733a2063616c6c20746f206e6f6e2d636f6e747261637400000060448201526064016108a3565b50816120b8565b6120b883836120c0565b949350505050565b8151156120d05781518083602001fd5b8060405162461bcd60e51b81526004016108a39190612138565b6000602082840312156120fc57600080fd5b81356001600160e01b031981168114611e8e57600080fd5b60005b8381101561212f578181015183820152602001612117565b50506000910152565b6020815260008251806020840152612157816040850160208701612114565b601f01601f19169190910160400192915050565b80356001600160a01b038116811461218257600080fd5b919050565b6000806040838503121561219a57600080fd5b6121a38361216b565b946020939093013593505050565b6000806000606084860312156121c657600080fd5b6121cf8461216b565b92506121dd6020850161216b565b929592945050506040919091013590565b60006020828403121561220057600080fd5b5035919050565b6000806040838503121561221a57600080fd5b8235915061222a6020840161216b565b90509250929050565b60006020828403121561224557600080fd5b611e8e8261216b565b6000806040838503121561226157600080fd5b61226a8361216b565b915061222a6020840161216b565b634e487b7160e01b600052604160045260246000fd5b600080604083850312156122a157600080fd5b6122aa8361216b565b9150602083013567ffffffffffffffff8111156122c657600080fd5b8301601f810185136122d757600080fd5b803567ffffffffffffffff8111156122f1576122f1612278565b604051601f8201601f19908116603f0116810167ffffffffffffffff8111828210171561232057612320612278565b60405281815282820160200187101561233857600080fd5b816020840160208301376000602083830101528093505050509250929050565b600181811c9082168061236c57607f821691505b60208210810361238c57634e487b7160e01b600052602260045260246000fd5b50919050565b6020808252602c908201527f46756e6374696f6e206d7573742062652063616c6c6564207468726f7567682060408201526b19195b1959d85d1958d85b1b60a21b606082015260800190565b6020808252602c908201527f46756e6374696f6e206d7573742062652063616c6c6564207468726f7567682060408201526b6163746976652070726f787960a01b606082015260800190565b634e487b7160e01b600052601160045260246000fd5b808201808211156107385761073861242a565b818103818111156107385761073861242a565b80820281158282048414176107385761073861242a565b60006020828403121561248f57600080fd5b5051919050565b6020808252602b908201527f496e697469616c697a61626c653a20636f6e7472616374206973206e6f74206960408201526a6e697469616c697a696e6760a81b606082015260800190565b7f416363657373436f6e74726f6c3a206163636f756e7420000000000000000000815260008351612519816017850160208801612114565b7001034b99036b4b9b9b4b733903937b6329607d1b601791840191820152835161254a816028840160208801612114565b01602801949350505050565b601f82111561083257806000526020600020601f840160051c8101602085101561257d5750805b601f840160051c820191505b8181101561259d5760008155600101612589565b5050505050565b815167ffffffffffffffff8111156125be576125be612278565b6125d2816125cc8454612358565b84612556565b6020601f82116001811461260657600083156125ee5750848201515b600019600385901b1c1916600184901b17845561259d565b600084815260208120601f198516915b828110156126365787850151825560209485019460019092019101612616565b50848210156126545786840151600019600387901b60f8161c191681555b50505050600190811b01905550565b634e487b7160e01b600052603260045260246000fd5b6000816126885761268861242a565b506000190190565b600082516126a2818460208701612114565b919091019291505056fe360894a13ba1a3210667c828492db98dca3e2076cc3735a920a3ca505d382bbc416464726573733a206c6f772d6c6576656c2064656c65676174652063616c6c206661696c6564a49807205ce4d355092ef5a8a18f56e8913cf4a201fbe287825b095693c21775a2646970667358221220bb3393c3dddf8af90a4a7880a5cf707fb9af67a6f2c6f30c89f066b2fe44624164736f6c634300081c0033",
  "linkReferences": {},
  "deployedLinkReferences": {}
}