{
  "_format": "hh-sol-artifact-1",
  "contractName": "PremiumFeatures",
  "sourceName": "contracts/PremiumFeatures.sol",
  "abi": [
    {
      "anonymous": false,
      "inputs": [
        {
          "indexed": false,
          "internalType": "address",
          "name": "previousAdmin",
          "type": "address"
        },
        {
          "indexed": false,
          "internalType": "address",
          "name": "newAdmin",
          "type": "address"
        }
      ],
      "name": "AdminChanged",
      "type": "event"
    },
    {
      "anonymous": false,
      "inputs": [
        {
          "indexed": true,
          "internalType": "address",
          "name": "beacon",
          "type": "address"
        }
      ],
      "name": "BeaconUpgraded",
      "type": "event"
    },
    {
      "anonymous": false,
      "inputs": [
        {
          "indexed": true,
          "internalType": "uint256",
          "name": "featureId",
          "type": "uint256"
        },
        {
          "indexed": false,
          "internalType": "string",
          "name": "name",
          "type": "string"
        },
        {
          "indexed": false,
          "internalType": "uint256",
          "name": "price",
          "type": "uint256"
        }
      ],
      "name": "FeatureAdded",
      "type": "event"
    },
    {
      "anonymous": false,
      "inputs": [
        {
          "indexed": true,
          "internalType": "uint256",
          "name": "featureId",
          "type": "uint256"
        }
      ],
      "name": "FeatureDeactivated",
      "type": "event"
    },
    {
      "anonymous": false,
      "inputs": [
        {
          "indexed": true,
          "internalType": "uint256",
          "name": "featureId",
          "type": "uint256"
        },
        {
          "indexed": false,
          "internalType": "string",
          "name": "name",
          "type": "string"
        },
        {
          "indexed": false,
          "internalType": "uint256",
          "name": "price",
          "type": "uint256"
        }
      ],
      "name": "FeatureUpdated",
      "type": "event"
    },
    {
      "anonymous": false,
      "inputs": [
        {
          "indexed": false,
          "internalType": "uint8",
          "name": "version",
          "type": "uint8"
        }
      ],
      "name": "Initialized",
      "type": "event"
    },
    {
      "anonymous": false,
      "inputs": [
        {
          "indexed": true,
          "internalType": "bytes32",
          "name": "role",
          "type": "bytes32"
        },
        {
          "indexed": true,
          "internalType": "bytes32",
          "name": "previousAdminRole",
          "type": "bytes32"
        },
        {
          "indexed": true,
          "internalType": "bytes32",
          "name": "newAdminRole",
          "type": "bytes32"
        }
      ],
      "name": "RoleAdminChanged",
      "type": "event"
    },
    {
      "anonymous": false,
      "inputs": [
        {
          "indexed": true,
          "internalType": "bytes32",
          "name": "role",
          "type": "bytes32"
        },
        {
          "indexed": true,
          "internalType": "address",
          "name": "account",
          "type": "address"
        },
        {
          "indexed": true,
          "internalType": "address",
          "name": "sender",
          "type": "address"
        }
      ],
      "name": "RoleGranted",
      "type": "event"
    },
    {
      "anonymous": false,
      "inputs": [
        {
          "indexed": true,
          "internalType": "bytes32",
          "name": "role",
          "type": "bytes32"
        },
        {
          "indexed": true,
          "internalType": "address",
          "name": "account",
          "type": "address"
        },
        {
          "indexed": true,
          "internalType": "address",
          "name": "sender",
          "type": "address"
        }
      ],
      "name": "RoleRevoked",
      "type": "event"
    },
    {
      "anonymous": false,
      "inputs": [
        {
          "indexed": true,
          "internalType": "address",
          "name": "subscriber",
          "type": "address"
        },
        {
          "indexed": true,
          "internalType": "uint256",
          "name": "featureId",
          "type": "uint256"
        },
        {
          "indexed": false,
          "internalType": "uint256",
          "name": "duration",
          "type": "uint256"
        },
        {
          "indexed": false,
          "internalType": "uint256",
          "name": "expiryTimestamp",
          "type": "uint256"
        }
      ],
      "name": "SubscriptionCreated",
      "type": "event"
    },
    {
      "anonymous": false,
      "inputs": [
        {
          "indexed": true,
          "internalType": "address",
          "name": "subscriber",
          "type": "address"
        },
        {
          "indexed": true,
          "internalType": "uint256",
          "name": "featureId",
          "type": "uint256"
        },
        {
          "indexed": false,
          "internalType": "uint256",
          "name": "duration",
          "type": "uint256"
        },
        {
          "indexed": false,
          "internalType": "uint256",
          "name": "expiryTimestamp",
          "type": "uint256"
        }
      ],
      "name": "SubscriptionRenewed",
      "type": "event"
    },
    {
      "anonymous": false,
      "inputs": [
        {
          "indexed": true,
          "internalType": "address",
          "name": "oldAddress",
          "type": "address"
        },
        {
          "indexed": true,
          "internalType": "address",
          "name": "newAddress",
          "type": "address"
        }
      ],
      "name": "TreasuryAddressUpdated",
      "type": "event"
    },
    {
      "anonymous": false,
      "inputs": [
        {
          "indexed": true,
          "internalType": "address",
          "name": "implementation",
          "type": "address"
        }
      ],
      "name": "Upgraded",
      "type": "event"
    },
    {
      "inputs": [],
      "name": "ADMIN_ROLE",
      "outputs": [
        {
          "internalType": "bytes32",
          "name": "",
          "type": "bytes32"
        }
      ],
      "stateMutability": "view",
      "type": "function"
    },
    {
      "inputs": [],
      "name": "DEFAULT_ADMIN_ROLE",
      "outputs": [
        {
          "internalType": "bytes32",
          "name": "",
          "type": "bytes32"
        }
      ],
      "stateMutability": "view",
      "type": "function"
    },
    {
      "inputs": [],
      "name": "UPGRADER_ROLE",
      "outputs": [
        {
          "internalType": "bytes32",
          "name": "",
          "type": "bytes32"
        }
      ],
      "stateMutability": "view",
      "type": "function"
    },
    {
      "inputs": [
        {
          "internalType": "string",
          "name": "name",
          "type": "string"
        },
        {
          "internalType": "string",
          "name": "description",
          "type": "string"
        },
        {
          "internalType": "uint256",
          "name": "pricePerMonth",
          "type": "uint256"
        }
      ],
      "name": "addFeature",
      "outputs": [],
      "stateMutability": "nonpayable",
      "type": "function"
    },
    {
      "inputs": [
        {
          "internalType": "uint256",
          "name": "featureId",
          "type": "uint256"
        }
      ],
      "name": "deactivateFeature",
      "outputs": [],
      "stateMutability": "nonpayable",
      "type": "function"
    },
    {
      "inputs": [
        {
          "internalType": "uint256",
          "name": "",
          "type": "uint256"
        }
      ],
      "name": "features",
      "outputs": [
        {
          "internalType": "string",
          "name": "name",
          "type": "string"
        },
        {
          "internalType": "string",
          "name": "description",
          "type": "string"
        },
        {
          "internalType": "uint256",
          "name": "pricePerMonth",
          "type": "uint256"
        },
        {
          "internalType": "bool",
          "name": "active",
          "type": "bool"
        }
      ],
      "stateMutability": "view",
      "type": "function"
    },
    {
      "inputs": [
        {
          "internalType": "uint256",
          "name": "featureId",
          "type": "uint256"
        }
      ],
      "name": "getFeatureDetails",
      "outputs": [
        {
          "components": [
            {
              "internalType": "string",
              "name": "name",
              "type": "string"
            },
            {
              "internalType": "string",
              "name": "description",
              "type": "string"
            },
            {
              "internalType": "uint256",
              "name": "pricePerMonth",
              "type": "uint256"
            },
            {
              "internalType": "bool",
              "name": "active",
              "type": "bool"
            }
          ],
          "internalType": "struct PremiumFeatures.Feature",
          "name": "",
          "type": "tuple"
        }
      ],
      "stateMutability": "view",
      "type": "function"
    },
    {
      "inputs": [
        {
          "internalType": "bytes32",
          "name": "role",
          "type": "bytes32"
        }
      ],
      "name": "getRoleAdmin",
      "outputs": [
        {
          "internalType": "bytes32",
          "name": "",
          "type": "bytes32"
        }
      ],
      "stateMutability": "view",
      "type": "function"
    },
    {
      "inputs": [
        {
          "internalType": "address",
          "name": "subscriber",
          "type": "address"
        },
        {
          "internalType": "uint256",
          "name": "featureId",
          "type": "uint256"
        }
      ],
      "name": "getSubscription",
      "outputs": [
        {
          "components": [
            {
              "internalType": "uint256",
              "name": "featureId",
              "type": "uint256"
            },
            {
              "internalType": "address",
              "name": "subscriber",
              "type": "address"
            },
            {
              "internalType": "uint256",
              "name": "expiryTimestamp",
              "type": "uint256"
            },
            {
              "internalType": "bool",
              "name": "active",
              "type": "bool"
            }
          ],
          "internalType": "struct PremiumFeatures.Subscription",
          "name": "",
          "type": "tuple"
        }
      ],
      "stateMutability": "view",
      "type": "function"
    },
    {
      "inputs": [
        {
          "internalType": "bytes32",
          "name": "role",
          "type": "bytes32"
        },
        {
          "internalType": "address",
          "name": "account",
          "type": "address"
        }
      ],
      "name": "grantRole",
      "outputs": [],
      "stateMutability": "nonpayable",
      "type": "function"
    },
    {
      "inputs": [
        {
          "internalType": "bytes32",
          "name": "role",
          "type": "bytes32"
        },
        {
          "internalType": "address",
          "name": "account",
          "type": "address"
        }
      ],
      "name": "hasRole",
      "outputs": [
        {
          "internalType": "bool",
          "name": "",
          "type": "bool"
        }
      ],
      "stateMutability": "view",
      "type": "function"
    },
    {
      "inputs": [
        {
          "internalType": "address",
          "name": "admin",
          "type": "address"
        },
        {
          "internalType": "address",
          "name": "subvToken",
          "type": "address"
        },
        {
          "internalType": "address",
          "name": "treasury",
          "type": "address"
        }
      ],
      "name": "initialize",
      "outputs": [],
      "stateMutability": "nonpayable",
      "type": "function"
    },
    {
      "inputs": [
        {
          "internalType": "address",
          "name": "subscriber",
          "type": "address"
        },
        {
          "internalType": "uint256",
          "name": "featureId",
          "type": "uint256"
        }
      ],
      "name": "isSubscriptionActive",
      "outputs": [
        {
          "internalType": "bool",
          "name": "",
          "type": "bool"
        }
      ],
      "stateMutability": "view",
      "type": "function"
    },
    {
      "inputs": [],
      "name": "nextFeatureId",
      "outputs": [
        {
          "internalType": "uint256",
          "name": "",
          "type": "uint256"
        }
      ],
      "stateMutability": "view",
      "type": "function"
    },
    {
      "inputs": [],
      "name": "proxiableUUID",
      "outputs": [
        {
          "internalType": "bytes32",
          "name": "",
          "type": "bytes32"
        }
      ],
      "stateMutability": "view",
      "type": "function"
    },
    {
      "inputs": [
        {
          "internalType": "bytes32",
          "name": "role",
          "type": "bytes32"
        },
        {
          "internalType": "address",
          "name": "account",
          "type": "address"
        }
      ],
      "name": "renounceRole",
      "outputs": [],
      "stateMutability": "nonpayable",
      "type": "function"
    },
    {
      "inputs": [
        {
          "internalType": "bytes32",
          "name": "role",
          "type": "bytes32"
        },
        {
          "internalType": "address",
          "name": "account",
          "type": "address"
        }
      ],
      "name": "revokeRole",
      "outputs": [],
      "stateMutability": "nonpayable",
      "type": "function"
    },
    {
      "inputs": [
        {
          "internalType": "uint256",
          "name": "featureId",
          "type": "uint256"
        },
        {
          "internalType": "uint256",
          "name": "durationMonths",
          "type": "uint256"
        }
      ],
      "name": "subscribePremium",
      "outputs": [],
      "stateMutability": "nonpayable",
      "type": "function"
    },
    {
      "inputs": [
        {
          "internalType": "address",
          "name": "",
          "type": "address"
        },
        {
          "internalType": "uint256",
          "name": "",
          "type": "uint256"
        }
      ],
      "name": "subscriptions",
      "outputs": [
        {
          "internalType": "uint256",
          "name": "featureId",
          "type": "uint256"
        },
        {
          "internalType": "address",
          "name": "subscriber",
          "type": "address"
        },
        {
          "internalType": "uint256",
          "name": "expiryTimestamp",
          "type": "uint256"
        },
        {
          "internalType": "bool",
          "name": "active",
          "type": "bool"
        }
      ],
      "stateMutability": "view",
      "type": "function"
    },
    {
      "inputs": [],
      "name": "subvTokenAddress",
      "outputs": [
        {
          "internalType": "address",
          "name": "",
          "type": "address"
        }
      ],
      "stateMutability": "view",
      "type": "function"
    },
    {
      "inputs": [
        {
          "internalType": "bytes4",
          "name": "interfaceId",
          "type": "bytes4"
        }
      ],
      "name": "supportsInterface",
      "outputs": [
        {
          "internalType": "bool",
          "name": "",
          "type": "bool"
        }
      ],
      "stateMutability": "view",
      "type": "function"
    },
    {
      "inputs": [],
      "name": "treasuryAddress",
      "outputs": [
        {
          "internalType": "address",
          "name": "",
          "type": "address"
        }
      ],
      "stateMutability": "view",
      "type": "function"
    },
    {
      "inputs": [
        {
          "internalType": "uint256",
          "name": "featureId",
          "type": "uint256"
        },
        {
          "internalType": "string",
          "name": "name",
          "type": "string"
        },
        {
          "internalType": "string",
          "name": "description",
          "type": "string"
        },
        {
          "internalType": "uint256",
          "name": "pricePerMonth",
          "type": "uint256"
        }
      ],
      "name": "updateFeature",
      "outputs": [],
      "stateMutability": "nonpayable",
      "type": "function"
    },
    {
      "inputs": [
        {
          "internalType": "address",
          "name": "newTreasury",
          "type": "address"
        }
      ],
      "name": "updateTreasuryAddress",
      "outputs": [],
      "stateMutability": "nonpayable",
      "type": "function"
    },
    {
      "inputs": [
        {
          "internalType": "address",
          "name": "newImplementation",
          "type": "address"
        }
      ],
      "name": "upgradeTo",
      "outputs": [],
      "stateMutability": "nonpayable",
      "type": "function"
    },
    {
      "inputs": [
        {
          "internalType": "address",
          "name": "newImplementation",
          "type": "address"
        },
        {
          "internalType": "bytes",
          "name": "data",
          "type": "bytes"
        }
      ],
      "name": "upgradeToAndCall",
      "outputs": [],
      "stateMutability": "payable",
      "type": "function"
    }
  ],
  "bytecode": "0x60a060405230608052348015601357600080fd5b506080516128e361004b60003960008181610727015281816107670152818161087a015281816108ba015261094901526128e36000f3fe6080604052600436106101815760003560e01c8063841e4561116100d1578063c0c53b8b1161008a578063cec9d88111610064578063cec9d881146105a5578063d547741f146105c5578063f62d519c146105e5578063f72c0d8b1461060557600080fd5b8063c0c53b8b14610544578063c5f956af14610564578063c75c16a91461058557600080fd5b8063841e4561146104665780638ede6f9f1461048657806391d14854146104b65780639437f09c146104d6578063a217fddf146104f6578063b9c8f7a11461050b57600080fd5b80633de4b5fa1161013e5780635fbd39fb116101185780635fbd39fb1461037b578063606120e2146103a8578063623da3d1146103bf57806375b238fc1461044457600080fd5b80633de4b5fa146103335780634f1ef2861461035357806352d1902d1461036657600080fd5b806301ffc9a714610186578063248a9ca3146101bb5780632f2ff15d146101f957806336568abe1461021b5780633659cfe61461023b5780633ae9a18e1461025b575b600080fd5b34801561019257600080fd5b506101a66101a136600461204b565b610639565b60405190151581526020015b60405180910390f35b3480156101c757600080fd5b506101eb6101d6366004612075565b60009081526065602052604090206001015490565b6040519081526020016101b2565b34801561020557600080fd5b506102196102143660046120aa565b610670565b005b34801561022757600080fd5b506102196102363660046120aa565b61069a565b34801561024757600080fd5b506102196102563660046120d6565b61071d565b34801561026757600080fd5b506102f56102763660046120f1565b60408051608080820183526000808352602080840182905283850182905260609384018290526001600160a01b0396871682526101318152848220958252948552839020835191820184528054825260018101549095169381019390935260028401549183019190915260039092015460ff1615159181019190915290565b6040516101b29190815181526020808301516001600160a01b0316908201526040808301519082015260609182015115159181019190915260800190565b34801561033f57600080fd5b506101a661034e3660046120f1565b6107fc565b6102196103613660046121ab565b610870565b34801561037257600080fd5b506101eb61093c565b34801561038757600080fd5b5061039b610396366004612075565b6109ef565b6040516101b2919061225d565b3480156103b457600080fd5b506101eb61012f5481565b3480156103cb57600080fd5b5061041a6103da3660046120f1565b610131602090815260009283526040808420909152908252902080546001820154600283015460039093015491926001600160a01b039091169160ff1684565b604080519485526001600160a01b03909316602085015291830152151560608201526080016101b2565b34801561045057600080fd5b506101eb60008051602061288e83398151915281565b34801561047257600080fd5b506102196104813660046120d6565b610b79565b34801561049257600080fd5b506104a66104a1366004612075565b610c3b565b6040516101b294939291906122b9565b3480156104c257600080fd5b506101a66104d13660046120aa565b610d78565b3480156104e257600080fd5b506102196104f1366004612317565b610da3565b34801561050257600080fd5b506101eb600081565b34801561051757600080fd5b5061012d5461052c906001600160a01b031681565b6040516001600160a01b0390911681526020016101b2565b34801561055057600080fd5b5061021961055f366004612391565b610f14565b34801561057057600080fd5b5061012e5461052c906001600160a01b031681565b34801561059157600080fd5b506102196105a0366004612075565b6111c9565b3480156105b157600080fd5b506102196105c03660046123d4565b61129e565b3480156105d157600080fd5b506102196105e03660046120aa565b61140e565b3480156105f157600080fd5b50610219610600366004612447565b611433565b34801561061157600080fd5b506101eb7f189ab7a9244df0848122154315af71fe140f3db0fe014031783b0946b8c9d2e381565b60006001600160e01b03198216637965db0b60e01b148061066a57506301ffc9a760e01b6001600160e01b03198316145b92915050565b60008281526065602052604090206001015461068b8161167d565b6106958383611687565b505050565b6001600160a01b038116331461070f5760405162461bcd60e51b815260206004820152602f60248201527f416363657373436f6e74726f6c3a2063616e206f6e6c792072656e6f756e636560448201526e103937b632b9903337b91039b2b63360891b60648201526084015b60405180910390fd5b610719828261170d565b5050565b6001600160a01b037f00000000000000000000000000000000000000000000000000000000000000001630036107655760405162461bcd60e51b815260040161070690612469565b7f00000000000000000000000000000000000000000000000000000000000000006001600160a01b03166107ae600080516020612847833981519152546001600160a01b031690565b6001600160a01b0316146107d45760405162461bcd60e51b8152600401610706906124b5565b6107dd81611774565b604080516000808252602082019092526107f99183919061179e565b50565b6001600160a01b0380831660009081526101316020908152604080832085845282528083208151608081018352815481526001820154909516928501929092526002820154908401526003015460ff161580156060840181905291929190610868575080604001514211155b949350505050565b6001600160a01b037f00000000000000000000000000000000000000000000000000000000000000001630036108b85760405162461bcd60e51b815260040161070690612469565b7f00000000000000000000000000000000000000000000000000000000000000006001600160a01b0316610901600080516020612847833981519152546001600160a01b031690565b6001600160a01b0316146109275760405162461bcd60e51b8152600401610706906124b5565b61093082611774565b6107198282600161179e565b6000306001600160a01b037f000000000000000000000000000000000000000000000000000000000000000016146109dc5760405162461bcd60e51b815260206004820152603860248201527f555550535570677261646561626c653a206d757374206e6f742062652063616c60448201527f6c6564207468726f7567682064656c656761746563616c6c00000000000000006064820152608401610706565b5060008051602061284783398151915290565b610a1c60405180608001604052806060815260200160608152602001600081526020016000151581525090565b6000828152610130602052604090819020815160808101909252805482908290610a4590612501565b80601f0160208091040260200160405190810160405280929190818152602001828054610a7190612501565b8015610abe5780601f10610a9357610100808354040283529160200191610abe565b820191906000526020600020905b815481529060010190602001808311610aa157829003601f168201915b50505050508152602001600182018054610ad790612501565b80601f0160208091040260200160405190810160405280929190818152602001828054610b0390612501565b8015610b505780601f10610b2557610100808354040283529160200191610b50565b820191906000526020600020905b815481529060010190602001808311610b3357829003601f168201915b50505091835250506002820154602082015260039091015460ff16151560409091015292915050565b60008051602061288e833981519152610b918161167d565b6001600160a01b038216610be75760405162461bcd60e51b815260206004820152601f60248201527f54726561737572792063616e6e6f74206265207a65726f2061646472657373006044820152606401610706565b61012e80546001600160a01b038481166001600160a01b0319831681179093556040519116919082907f430359a6d97ced2b6f93c77a91e7ce9dfd43252eb91e916adba170485cd8a6a490600090a3505050565b61013060205260009081526040902080548190610c5790612501565b80601f0160208091040260200160405190810160405280929190818152602001828054610c8390612501565b8015610cd05780601f10610ca557610100808354040283529160200191610cd0565b820191906000526020600020905b815481529060010190602001808311610cb357829003601f168201915b505050505090806001018054610ce590612501565b80601f0160208091040260200160405190810160405280929190818152602001828054610d1190612501565b8015610d5e5780601f10610d3357610100808354040283529160200191610d5e565b820191906000526020600020905b815481529060010190602001808311610d4157829003601f168201915b50505050600283015460039093015491929160ff16905084565b60009182526065602090815260408084206001600160a01b0393909316845291905290205460ff1690565b60008051602061288e833981519152610dbb8161167d565b6000858152610130602052604090206003015460ff16610ded5760405162461bcd60e51b81526004016107069061253b565b6000845111610e355760405162461bcd60e51b81526020600482015260146024820152734e616d652063616e6e6f7420626520656d70747960601b6044820152606401610706565b60008211610e855760405162461bcd60e51b815260206004820152601c60248201527f5072696365206d7573742062652067726561746572207468616e2030000000006044820152606401610706565b600085815261013060205260409020610e9e85826125ce565b50600085815261013060205260409020600101610ebb84826125ce565b5060008581526101306020526040908190206002018390555185907f0404888430e94c3669dfb7a7a26e1998f4dd463be89dedd081ba5ede461832f390610f05908790869061268d565b60405180910390a25050505050565b600054610100900460ff1615808015610f345750600054600160ff909116105b80610f4e5750303b158015610f4e575060005460ff166001145b610fb15760405162461bcd60e51b815260206004820152602e60248201527f496e697469616c697a61626c653a20636f6e747261637420697320616c72656160448201526d191e481a5b9a5d1a585b1a5e995960921b6064820152608401610706565b6000805460ff191660011790558015610fd4576000805461ff0019166101001790555b6001600160a01b03841661102a5760405162461bcd60e51b815260206004820152601c60248201527f41646d696e2063616e6e6f74206265207a65726f2061646472657373000000006044820152606401610706565b6001600160a01b03831661108a5760405162461bcd60e51b815260206004820152602160248201527f5355425620746f6b656e2063616e6e6f74206265207a65726f206164647265736044820152607360f81b6064820152608401610706565b6001600160a01b0382166110e05760405162461bcd60e51b815260206004820152601f60248201527f54726561737572792063616e6e6f74206265207a65726f2061646472657373006044820152606401610706565b6110e8611909565b6110f0611932565b6110f8611909565b611103600085611687565b61111b60008051602061288e83398151915285611687565b6111457f189ab7a9244df0848122154315af71fe140f3db0fe014031783b0946b8c9d2e385611687565b61012d80546001600160a01b038086166001600160a01b03199283161790925561012e805492851692909116919091179055600161012f5580156111c3576000805461ff0019169055604051600181527f7f26b83ff96e1f2b6a682f133852f6798a09c465da95921460cefb38474024989060200160405180910390a15b50505050565b60008051602061288e8339815191526111e18161167d565b6000828152610130602052604090206003015460ff166112595760405162461bcd60e51b815260206004820152602d60248201527f4665617475726520646f6573206e6f74206578697374206f7220697320616c7260448201526c6561647920696e61637469766560981b6064820152608401610706565b60008281526101306020526040808220600301805460ff191690555183917f39b6d3fccde1a1be363524f909d3abc55d5605fc8cf68f62dda1319b49d7582f91a25050565b60008051602061288e8339815191526112b68161167d565b60008451116112fe5760405162461bcd60e51b81526020600482015260146024820152734e616d652063616e6e6f7420626520656d70747960601b6044820152606401610706565b6000821161134e5760405162461bcd60e51b815260206004820152601c60248201527f5072696365206d7573742062652067726561746572207468616e2030000000006044820152606401610706565b61012f54604080516080810182528681526020808201879052818301869052600160608301526000848152610130909152919091208151819061139190826125ce565b50602082015160018201906113a690826125ce565b50604082015160028201556060909101516003909101805460ff19169115159190911790556113d68160016126c5565b61012f5560405181907f36a7e69570161778ada1e4b5632fd78895068dcdcbc2e145ddf680f4b762cdd790610f05908890879061268d565b6000828152606560205260409020600101546114298161167d565b610695838361170d565b61143b611961565b6000828152610130602052604090206003015460ff1661146d5760405162461bcd60e51b81526004016107069061253b565b600081116114bd5760405162461bcd60e51b815260206004820152601f60248201527f4475726174696f6e206d7573742062652067726561746572207468616e2030006044820152606401610706565b600082815261013060205260408120600201546114db9083906126d8565b61012e5461012d549192506114ff916001600160a01b0390811691339116846119ba565b336000908152610131602090815260408083208684529091528120600381015490919060ff1680156115345750816002015442105b1561159a576115468462278d006126d8565b826002015461155591906126c5565b6040805186815260208101839052919250869133917ffe01073167767dbd16dd9b930ce65409aa1acb6da9f78e05c513dc8ed4e7a0e7910160405180910390a36115f2565b6115a78462278d006126d8565b6115b190426126c5565b6040805186815260208101839052919250869133917f2bdfae17037529a2e65ec70b13ee84e9aa324112f93c1598ff55cafc6b84df08910160405180910390a35b60408051608081018252868152336020808301828152838501958652600160608501818152600094855261013184528685208c86529093529490922092518355905182840180546001600160a01b0319166001600160a01b039092169190911790559251600282015591516003909201805460ff191692151592909217909155609755506107199050565b6107f98133611a1b565b6116918282610d78565b6107195760008281526065602090815260408083206001600160a01b03851684529091529020805460ff191660011790556116c93390565b6001600160a01b0316816001600160a01b0316837f2f8788117e7eff1d82e926ec794901d17c78024a50270940304540a733656f0d60405160405180910390a45050565b6117178282610d78565b156107195760008281526065602090815260408083206001600160a01b0385168085529252808320805460ff1916905551339285917ff6391f5c32d9c69d2a47ea670b442974b53935d1edc7fd64eb21e047a839171b9190a45050565b7f189ab7a9244df0848122154315af71fe140f3db0fe014031783b0946b8c9d2e36107198161167d565b7f4910fdfa16fed3260ed0e7147f7cc6da11a60208b5b9406d12a635614ffd91435460ff16156117d15761069583611a74565b826001600160a01b03166352d1902d6040518163ffffffff1660e01b8152600401602060405180830381865afa92505050801561182b575060408051601f3d908101601f19168201909252611828918101906126ef565b60015b61188e5760405162461bcd60e51b815260206004820152602e60248201527f45524331393637557067726164653a206e657720696d706c656d656e7461746960448201526d6f6e206973206e6f74205555505360901b6064820152608401610706565b60008051602061284783398151915281146118fd5760405162461bcd60e51b815260206004820152602960248201527f45524331393637557067726164653a20756e737570706f727465642070726f786044820152681a58589b195555525160ba1b6064820152608401610706565b50610695838383611b10565b600054610100900460ff166119305760405162461bcd60e51b815260040161070690612708565b565b600054610100900460ff166119595760405162461bcd60e51b815260040161070690612708565b611930611b35565b6002609754036119b35760405162461bcd60e51b815260206004820152601f60248201527f5265656e7472616e637947756172643a207265656e7472616e742063616c6c006044820152606401610706565b6002609755565b604080516001600160a01b0385811660248301528416604482015260648082018490528251808303909101815260849091019091526020810180516001600160e01b03166323b872dd60e01b1790526111c3908590611b5c565b6001609755565b611a258282610d78565b61071957611a3281611c31565b611a3d836020611c43565b604051602001611a4e929190612753565b60408051601f198184030181529082905262461bcd60e51b8252610706916004016127c8565b6001600160a01b0381163b611ae15760405162461bcd60e51b815260206004820152602d60248201527f455243313936373a206e657720696d706c656d656e746174696f6e206973206e60448201526c1bdd08184818dbdb9d1c9858dd609a1b6064820152608401610706565b60008051602061284783398151915280546001600160a01b0319166001600160a01b0392909216919091179055565b611b1983611de6565b600082511180611b265750805b15610695576111c38383611e26565b600054610100900460ff16611a145760405162461bcd60e51b815260040161070690612708565b6000611bb1826040518060400160405280602081526020017f5361666545524332303a206c6f772d6c6576656c2063616c6c206661696c6564815250856001600160a01b0316611e4b9092919063ffffffff16565b9050805160001480611bd2575080806020019051810190611bd291906127db565b6106955760405162461bcd60e51b815260206004820152602a60248201527f5361666545524332303a204552433230206f7065726174696f6e20646964206e6044820152691bdd081cdd58d8d9595960b21b6064820152608401610706565b606061066a6001600160a01b03831660145b60606000611c528360026126d8565b611c5d9060026126c5565b67ffffffffffffffff811115611c7557611c7561211b565b6040519080825280601f01601f191660200182016040528015611c9f576020820181803683370190505b509050600360fc1b81600081518110611cba57611cba6127fd565b60200101906001600160f81b031916908160001a905350600f60fb1b81600181518110611ce957611ce96127fd565b60200101906001600160f81b031916908160001a9053506000611d0d8460026126d8565b611d189060016126c5565b90505b6001811115611d90576f181899199a1a9b1b9c1cb0b131b232b360811b85600f1660108110611d4c57611d4c6127fd565b1a60f81b828281518110611d6257611d626127fd565b60200101906001600160f81b031916908160001a90535060049490941c93611d8981612813565b9050611d1b565b508315611ddf5760405162461bcd60e51b815260206004820181905260248201527f537472696e67733a20686578206c656e67746820696e73756666696369656e746044820152606401610706565b9392505050565b611def81611a74565b6040516001600160a01b038216907fbc7cd75a20ee27fd9adebab32041f755214dbc6bffa90cc0225b39da2e5c2d3b90600090a250565b6060611ddf838360405180606001604052806027815260200161286760279139611e5a565b60606108688484600085611ed2565b6060600080856001600160a01b031685604051611e77919061282a565b600060405180830381855af49150503d8060008114611eb2576040519150601f19603f3d011682016040523d82523d6000602084013e611eb7565b606091505b5091509150611ec886838387611fad565b9695505050505050565b606082471015611f335760405162461bcd60e51b815260206004820152602660248201527f416464726573733a20696e73756666696369656e742062616c616e636520666f6044820152651c8818d85b1b60d21b6064820152608401610706565b600080866001600160a01b03168587604051611f4f919061282a565b60006040518083038185875af1925050503d8060008114611f8c576040519150601f19603f3d011682016040523d82523d6000602084013e611f91565b606091505b5091509150611fa287838387611fad565b979650505050505050565b6060831561201c578251600003612015576001600160a01b0385163b6120155760405162461bcd60e51b815260206004820152601d60248201527f416464726573733a2063616c6c20746f206e6f6e2d636f6e74726163740000006044820152606401610706565b5081610868565b61086883838151156120315781518083602001fd5b8060405162461bcd60e51b815260040161070691906127c8565b60006020828403121561205d57600080fd5b81356001600160e01b031981168114611ddf57600080fd5b60006020828403121561208757600080fd5b5035919050565b80356001600160a01b03811681146120a557600080fd5b919050565b600080604083850312156120bd57600080fd5b823591506120cd6020840161208e565b90509250929050565b6000602082840312156120e857600080fd5b611ddf8261208e565b6000806040838503121561210457600080fd5b61210d8361208e565b946020939093013593505050565b634e487b7160e01b600052604160045260246000fd5b60008067ffffffffffffffff84111561214c5761214c61211b565b50604051601f19601f85018116603f0116810181811067ffffffffffffffff8211171561217b5761217b61211b565b60405283815290508082840185101561219357600080fd5b83836020830137600060208583010152509392505050565b600080604083850312156121be57600080fd5b6121c78361208e565b9150602083013567ffffffffffffffff8111156121e357600080fd5b8301601f810185136121f457600080fd5b61220385823560208401612131565b9150509250929050565b60005b83811015612228578181015183820152602001612210565b50506000910152565b6000815180845261224981602086016020860161220d565b601f01601f19169290920160200192915050565b60208152600082516080602084015261227960a0840182612231565b90506020840151601f198483030160408501526122968282612231565b915050604084015160608401526060840151151560808401528091505092915050565b6080815260006122cc6080830187612231565b82810360208401526122de8187612231565b6040840195909552505090151560609091015292915050565b600082601f83011261230857600080fd5b611ddf83833560208501612131565b6000806000806080858703121561232d57600080fd5b84359350602085013567ffffffffffffffff81111561234b57600080fd5b612357878288016122f7565b935050604085013567ffffffffffffffff81111561237457600080fd5b612380878288016122f7565b949793965093946060013593505050565b6000806000606084860312156123a657600080fd5b6123af8461208e565b92506123bd6020850161208e565b91506123cb6040850161208e565b90509250925092565b6000806000606084860312156123e957600080fd5b833567ffffffffffffffff81111561240057600080fd5b61240c868287016122f7565b935050602084013567ffffffffffffffff81111561242957600080fd5b612435868287016122f7565b93969395505050506040919091013590565b6000806040838503121561245a57600080fd5b50508035926020909101359150565b6020808252602c908201527f46756e6374696f6e206d7573742062652063616c6c6564207468726f7567682060408201526b19195b1959d85d1958d85b1b60a21b606082015260800190565b6020808252602c908201527f46756e6374696f6e206d7573742062652063616c6c6564207468726f7567682060408201526b6163746976652070726f787960a01b606082015260800190565b600181811c9082168061251557607f821691505b60208210810361253557634e487b7160e01b600052602260045260246000fd5b50919050565b60208082526025908201527f4665617475726520646f6573206e6f74206578697374206f7220697320696e61604082015264637469766560d81b606082015260800190565b601f82111561069557806000526020600020601f840160051c810160208510156125a75750805b601f840160051c820191505b818110156125c757600081556001016125b3565b5050505050565b815167ffffffffffffffff8111156125e8576125e861211b565b6125fc816125f68454612501565b84612580565b6020601f82116001811461263057600083156126185750848201515b600019600385901b1c1916600184901b1784556125c7565b600084815260208120601f198516915b828110156126605787850151825560209485019460019092019101612640565b508482101561267e5786840151600019600387901b60f8161c191681555b50505050600190811b01905550565b6040815260006126a06040830185612231565b90508260208301529392505050565b634e487b7160e01b600052601160045260246000fd5b8082018082111561066a5761066a6126af565b808202811582820484141761066a5761066a6126af565b60006020828403121561270157600080fd5b5051919050565b6020808252602b908201527f496e697469616c697a61626c653a20636f6e7472616374206973206e6f74206960408201526a6e697469616c697a696e6760a81b606082015260800190565b7f416363657373436f6e74726f6c3a206163636f756e742000000000000000000081526000835161278b81601785016020880161220d565b7001034b99036b4b9b9b4b733903937b6329607d1b60179184019182015283516127bc81602884016020880161220d565b01602801949350505050565b602081526000611ddf6020830184612231565b6000602082840312156127ed57600080fd5b81518015158114611ddf57600080fd5b634e487b7160e01b600052603260045260246000fd5b600081612822576128226126af565b506000190190565b6000825161283c81846020870161220d565b919091019291505056fe360894a13ba1a3210667c828492db98dca3e2076cc3735a920a3ca505d382bbc416464726573733a206c6f772d6c6576656c2064656c65676174652063616c6c206661696c6564a49807205ce4d355092ef5a8a18f56e8913cf4a201fbe287825b095693c21775a26469706673582212207724d61868a2ce282aa3edb7b1ecdda0671b44a88b27ae5f773da9b3bde7603d64736f6c634300081c0033",
  "linkReferences": {},
  "deployedLinkReferences": {}
}