{
  "_format": "hh-sol-artifact-1",
  "contractName": "Staking",
  "sourceName": "contracts/Staking.sol",
  "abi": [
    {
      "inputs": [],
      "stateMutability": "nonpayable",
      "type": "constructor"
    },
    {
      "anonymous": false,
      "inputs": [
        {
          "indexed": false,
          "internalType": "address",
          "name": "previousAdmin",
          "type": "address"
        },
        {
          "indexed": false,
          "internalType": "address",
          "name": "newAdmin",
          "type": "address"
        }
      ],
      "name": "AdminChanged",
      "type": "event"
    },
    {
      "anonymous": false,
      "inputs": [
        {
          "indexed": true,
          "internalType": "address",
          "name": "beacon",
          "type": "address"
        }
      ],
      "name": "BeaconUpgraded",
      "type": "event"
    },
    {
      "anonymous": false,
      "inputs": [
        {
          "indexed": false,
          "internalType": "uint8",
          "name": "version",
          "type": "uint8"
        }
      ],
      "name": "Initialized",
      "type": "event"
    },
    {
      "anonymous": false,
      "inputs": [
        {
          "indexed": false,
          "internalType": "uint256",
          "name": "oldPeriod",
          "type": "uint256"
        },
        {
          "indexed": false,
          "internalType": "uint256",
          "name": "newPeriod",
          "type": "uint256"
        }
      ],
      "name": "LockPeriodUpdated",
      "type": "event"
    },
    {
      "anonymous": false,
      "inputs": [
        {
          "indexed": true,
          "internalType": "address",
          "name": "staker",
          "type": "address"
        },
        {
          "indexed": true,
          "internalType": "address",
          "name": "token",
          "type": "address"
        },
        {
          "indexed": false,
          "internalType": "uint256",
          "name": "amount",
          "type": "uint256"
        }
      ],
      "name": "RewardsClaimed",
      "type": "event"
    },
    {
      "anonymous": false,
      "inputs": [
        {
          "indexed": true,
          "internalType": "address",
          "name": "token",
          "type": "address"
        },
        {
          "indexed": false,
          "internalType": "uint256",
          "name": "amount",
          "type": "uint256"
        }
      ],
      "name": "RewardsReceived",
      "type": "event"
    },
    {
      "anonymous": false,
      "inputs": [
        {
          "indexed": true,
          "internalType": "bytes32",
          "name": "role",
          "type": "bytes32"
        },
        {
          "indexed": true,
          "internalType": "bytes32",
          "name": "previousAdminRole",
          "type": "bytes32"
        },
        {
          "indexed": true,
          "internalType": "bytes32",
          "name": "newAdminRole",
          "type": "bytes32"
        }
      ],
      "name": "RoleAdminChanged",
      "type": "event"
    },
    {
      "anonymous": false,
      "inputs": [
        {
          "indexed": true,
          "internalType": "bytes32",
          "name": "role",
          "type": "bytes32"
        },
        {
          "indexed": true,
          "internalType": "address",
          "name": "account",
          "type": "address"
        },
        {
          "indexed": true,
          "internalType": "address",
          "name": "sender",
          "type": "address"
        }
      ],
      "name": "RoleGranted",
      "type": "event"
    },
    {
      "anonymous": false,
      "inputs": [
        {
          "indexed": true,
          "internalType": "bytes32",
          "name": "role",
          "type": "bytes32"
        },
        {
          "indexed": true,
          "internalType": "address",
          "name": "account",
          "type": "address"
        },
        {
          "indexed": true,
          "internalType": "address",
          "name": "sender",
          "type": "address"
        }
      ],
      "name": "RoleRevoked",
      "type": "event"
    },
    {
      "anonymous": false,
      "inputs": [
        {
          "indexed": true,
          "internalType": "address",
          "name": "staker",
          "type": "address"
        },
        {
          "indexed": false,
          "internalType": "uint256",
          "name": "amount",
          "type": "uint256"
        },
        {
          "indexed": false,
          "internalType": "uint256",
          "name": "unlockTime",
          "type": "uint256"
        }
      ],
      "name": "Staked",
      "type": "event"
    },
    {
      "anonymous": false,
      "inputs": [
        {
          "indexed": true,
          "internalType": "address",
          "name": "staker",
          "type": "address"
        },
        {
          "indexed": false,
          "internalType": "uint256",
          "name": "amount",
          "type": "uint256"
        }
      ],
      "name": "Unstaked",
      "type": "event"
    },
    {
      "anonymous": false,
      "inputs": [
        {
          "indexed": true,
          "internalType": "address",
          "name": "implementation",
          "type": "address"
        }
      ],
      "name": "Upgraded",
      "type": "event"
    },
    {
      "inputs": [],
      "name": "ADMIN_ROLE",
      "outputs": [
        {
          "internalType": "bytes32",
          "name": "",
          "type": "bytes32"
        }
      ],
      "stateMutability": "view",
      "type": "function"
    },
    {
      "inputs": [],
      "name": "DEFAULT_ADMIN_ROLE",
      "outputs": [
        {
          "internalType": "bytes32",
          "name": "",
          "type": "bytes32"
        }
      ],
      "stateMutability": "view",
      "type": "function"
    },
    {
      "inputs": [],
      "name": "TREASURY_ROLE",
      "outputs": [
        {
          "internalType": "bytes32",
          "name": "",
          "type": "bytes32"
        }
      ],
      "stateMutability": "view",
      "type": "function"
    },
    {
      "inputs": [],
      "name": "UPGRADER_ROLE",
      "outputs": [
        {
          "internalType": "bytes32",
          "name": "",
          "type": "bytes32"
        }
      ],
      "stateMutability": "view",
      "type": "function"
    },
    {
      "inputs": [
        {
          "internalType": "address",
          "name": "token",
          "type": "address"
        }
      ],
      "name": "claimRewards",
      "outputs": [],
      "stateMutability": "nonpayable",
      "type": "function"
    },
    {
      "inputs": [
        {
          "internalType": "address",
          "name": "token",
          "type": "address"
        },
        {
          "internalType": "address",
          "name": "staker",
          "type": "address"
        }
      ],
      "name": "getAvailableRewards",
      "outputs": [
        {
          "internalType": "uint256",
          "name": "",
          "type": "uint256"
        }
      ],
      "stateMutability": "view",
      "type": "function"
    },
    {
      "inputs": [
        {
          "internalType": "bytes32",
          "name": "role",
          "type": "bytes32"
        }
      ],
      "name": "getRoleAdmin",
      "outputs": [
        {
          "internalType": "bytes32",
          "name": "",
          "type": "bytes32"
        }
      ],
      "stateMutability": "view",
      "type": "function"
    },
    {
      "inputs": [
        {
          "internalType": "address",
          "name": "staker",
          "type": "address"
        }
      ],
      "name": "getStakerInfo",
      "outputs": [
        {
          "components": [
            {
              "internalType": "uint256",
              "name": "amount",
              "type": "uint256"
            },
            {
              "internalType": "uint256",
              "name": "stakedTime",
              "type": "uint256"
            },
            {
              "internalType": "uint256",
              "name": "unlockTime",
              "type": "uint256"
            },
            {
              "internalType": "bool",
              "name": "active",
              "type": "bool"
            }
          ],
          "internalType": "struct Staking.StakerInfo",
          "name": "",
          "type": "tuple"
        }
      ],
      "stateMutability": "view",
      "type": "function"
    },
    {
      "inputs": [
        {
          "internalType": "bytes32",
          "name": "role",
          "type": "bytes32"
        },
        {
          "internalType": "address",
          "name": "account",
          "type": "address"
        }
      ],
      "name": "grantRole",
      "outputs": [],
      "stateMutability": "nonpayable",
      "type": "function"
    },
    {
      "inputs": [
        {
          "internalType": "bytes32",
          "name": "role",
          "type": "bytes32"
        },
        {
          "internalType": "address",
          "name": "account",
          "type": "address"
        }
      ],
      "name": "hasRole",
      "outputs": [
        {
          "internalType": "bool",
          "name": "",
          "type": "bool"
        }
      ],
      "stateMutability": "view",
      "type": "function"
    },
    {
      "inputs": [
        {
          "internalType": "address",
          "name": "admin",
          "type": "address"
        },
        {
          "internalType": "address",
          "name": "subvToken",
          "type": "address"
        },
        {
          "internalType": "address",
          "name": "treasury",
          "type": "address"
        }
      ],
      "name": "initialize",
      "outputs": [],
      "stateMutability": "nonpayable",
      "type": "function"
    },
    {
      "inputs": [],
      "name": "lockPeriod",
      "outputs": [
        {
          "internalType": "uint256",
          "name": "",
          "type": "uint256"
        }
      ],
      "stateMutability": "view",
      "type": "function"
    },
    {
      "inputs": [],
      "name": "proxiableUUID",
      "outputs": [
        {
          "internalType": "bytes32",
          "name": "",
          "type": "bytes32"
        }
      ],
      "stateMutability": "view",
      "type": "function"
    },
    {
      "inputs": [
        {
          "internalType": "address",
          "name": "token",
          "type": "address"
        },
        {
          "internalType": "uint256",
          "name": "amount",
          "type": "uint256"
        }
      ],
      "name": "receiveFees",
      "outputs": [],
      "stateMutability": "nonpayable",
      "type": "function"
    },
    {
      "inputs": [
        {
          "internalType": "address",
          "name": "token",
          "type": "address"
        },
        {
          "internalType": "address",
          "name": "to",
          "type": "address"
        },
        {
          "internalType": "uint256",
          "name": "amount",
          "type": "uint256"
        }
      ],
      "name": "recoverTokens",
      "outputs": [],
      "stateMutability": "nonpayable",
      "type": "function"
    },
    {
      "inputs": [
        {
          "internalType": "bytes32",
          "name": "role",
          "type": "bytes32"
        },
        {
          "internalType": "address",
          "name": "account",
          "type": "address"
        }
      ],
      "name": "renounceRole",
      "outputs": [],
      "stateMutability": "nonpayable",
      "type": "function"
    },
    {
      "inputs": [
        {
          "internalType": "bytes32",
          "name": "role",
          "type": "bytes32"
        },
        {
          "internalType": "address",
          "name": "account",
          "type": "address"
        }
      ],
      "name": "revokeRole",
      "outputs": [],
      "stateMutability": "nonpayable",
      "type": "function"
    },
    {
      "inputs": [
        {
          "internalType": "address",
          "name": "",
          "type": "address"
        }
      ],
      "name": "rewardsBalance",
      "outputs": [
        {
          "internalType": "uint256",
          "name": "",
          "type": "uint256"
        }
      ],
      "stateMutability": "view",
      "type": "function"
    },
    {
      "inputs": [
        {
          "internalType": "uint256",
          "name": "amount",
          "type": "uint256"
        }
      ],
      "name": "stake",
      "outputs": [],
      "stateMutability": "nonpayable",
      "type": "function"
    },
    {
      "inputs": [
        {
          "internalType": "address",
          "name": "",
          "type": "address"
        }
      ],
      "name": "stakers",
      "outputs": [
        {
          "internalType": "uint256",
          "name": "amount",
          "type": "uint256"
        },
        {
          "internalType": "uint256",
          "name": "stakedTime",
          "type": "uint256"
        },
        {
          "internalType": "uint256",
          "name": "unlockTime",
          "type": "uint256"
        },
        {
          "internalType": "bool",
          "name": "active",
          "type": "bool"
        }
      ],
      "stateMutability": "view",
      "type": "function"
    },
    {
      "inputs": [],
      "name": "subvTokenAddress",
      "outputs": [
        {
          "internalType": "address",
          "name": "",
          "type": "address"
        }
      ],
      "stateMutability": "view",
      "type": "function"
    },
    {
      "inputs": [
        {
          "internalType": "bytes4",
          "name": "interfaceId",
          "type": "bytes4"
        }
      ],
      "name": "supportsInterface",
      "outputs": [
        {
          "internalType": "bool",
          "name": "",
          "type": "bool"
        }
      ],
      "stateMutability": "view",
      "type": "function"
    },
    {
      "inputs": [],
      "name": "totalStaked",
      "outputs": [
        {
          "internalType": "uint256",
          "name": "",
          "type": "uint256"
        }
      ],
      "stateMutability": "view",
      "type": "function"
    },
    {
      "inputs": [],
      "name": "treasuryAddress",
      "outputs": [
        {
          "internalType": "address",
          "name": "",
          "type": "address"
        }
      ],
      "stateMutability": "view",
      "type": "function"
    },
    {
      "inputs": [],
      "name": "unstake",
      "outputs": [],
      "stateMutability": "nonpayable",
      "type": "function"
    },
    {
      "inputs": [
        {
          "internalType": "uint256",
          "name": "newLockPeriod",
          "type": "uint256"
        }
      ],
      "name": "updateLockPeriod",
      "outputs": [],
      "stateMutability": "nonpayable",
      "type": "function"
    },
    {
      "inputs": [
        {
          "internalType": "address",
          "name": "newTreasury",
          "type": "address"
        }
      ],
      "name": "updateTreasuryAddress",
      "outputs": [],
      "stateMutability": "nonpayable",
      "type": "function"
    },
    {
      "inputs": [
        {
          "internalType": "address",
          "name": "newImplementation",
          "type": "address"
        }
      ],
      "name": "upgradeTo",
      "outputs": [],
      "stateMutability": "nonpayable",
      "type": "function"
    },
    {
      "inputs": [
        {
          "internalType": "address",
          "name": "newImplementation",
          "type": "address"
        },
        {
          "internalType": "bytes",
          "name": "data",
          "type": "bytes"
        }
      ],
      "name": "upgradeToAndCall",
      "outputs": [],
      "stateMutability": "payable",
      "type": "function"
    }
  ],
  "bytecode": "0x60a06040523060805234801561001457600080fd5b5061001d610022565b6100e1565b600054610100900460ff161561008e5760405162461bcd60e51b815260206004820152602760248201527f496e697469616c697a61626c653a20636f6e747261637420697320696e697469604482015266616c697a696e6760c81b606482015260840160405180910390fd5b60005460ff908116146100df576000805460ff191660ff9081179091556040519081527f7f26b83ff96e1f2b6a682f133852f6798a09c465da95921460cefb38474024989060200160405180910390a15b565b60805161271f61011860003960008181610a5301528181610a9301528181610b3201528181610b720152610c01015261271f6000f3fe6080604052600436106101c05760003560e01c8063817b1cd2116100f7578063a694fc3a11610095578063d11a57ec11610064578063d11a57ec14610581578063d547741f146105a3578063ef5cfb8c146105c3578063f72c0d8b146105e357600080fd5b8063a694fc3a146104e7578063b9c8f7a114610507578063c0c53b8b14610540578063c5f956af1461056057600080fd5b80639168ae72116100d15780639168ae721461042a57806391d148541461049257806391db7b0d146104b2578063a217fddf146104d257600080fd5b8063817b1cd2146103c5578063841e4561146103dc578063896bdac8146103fc57600080fd5b80633659cfe61161016457806352d1902d1161013e57806352d1902d146103195780635f3e849f1461032e578063733bdef01461034e57806375b238fc146103a357600080fd5b80633659cfe6146102cf5780633fd8b02f146102ef5780634f1ef2861461030657600080fd5b8063248a9ca3116101a0578063248a9ca31461024a5780632def66201461027a5780632f2ff15d1461028f57806336568abe146102af57600080fd5b80629e78be146101c5578062b129a4146101f857806301ffc9a71461021a575b600080fd5b3480156101d157600080fd5b506101e56101e036600461217c565b610617565b6040519081526020015b60405180910390f35b34801561020457600080fd5b506102186102133660046121af565b6106c0565b005b34801561022657600080fd5b5061023a6102353660046121d9565b6107f4565b60405190151581526020016101ef565b34801561025657600080fd5b506101e5610265366004612203565b60009081526065602052604090206001015490565b34801561028657600080fd5b50610218610829565b34801561029b57600080fd5b506102186102aa36600461221c565b6109a1565b3480156102bb57600080fd5b506102186102ca36600461221c565b6109cb565b3480156102db57600080fd5b506102186102ea36600461223f565b610a49565b3480156102fb57600080fd5b506101e561012f5481565b610218610314366004612270565b610b28565b34801561032557600080fd5b506101e5610bf4565b34801561033a57600080fd5b5061021861034936600461233a565b610ca7565b34801561035a57600080fd5b5061036e61036936600461223f565b610eb9565b6040516101ef919081518152602080830151908201526040808301519082015260609182015115159181019190915260800190565b3480156103af57600080fd5b506101e56000805160206126aa83398151915281565b3480156103d157600080fd5b506101e56101305481565b3480156103e857600080fd5b506102186103f736600461223f565b610f3a565b34801561040857600080fd5b506101e561041736600461223f565b6101316020526000908152604090205481565b34801561043657600080fd5b5061047061044536600461223f565b6101326020526000908152604090208054600182015460028301546003909301549192909160ff1684565b60408051948552602085019390935291830152151560608201526080016101ef565b34801561049e57600080fd5b5061023a6104ad36600461221c565b611002565b3480156104be57600080fd5b506102186104cd366004612203565b61102d565b3480156104de57600080fd5b506101e5600081565b3480156104f357600080fd5b50610218610502366004612203565b6110dc565b34801561051357600080fd5b5061012d54610528906001600160a01b031681565b6040516001600160a01b0390911681526020016101ef565b34801561054c57600080fd5b5061021861055b366004612377565b611228565b34801561056c57600080fd5b5061012e54610528906001600160a01b031681565b34801561058d57600080fd5b506101e56000805160206126ca83398151915281565b3480156105af57600080fd5b506102186105be36600461221c565b6114f6565b3480156105cf57600080fd5b506102186105de36600461223f565b61151b565b3480156105ef57600080fd5b506101e57f189ab7a9244df0848122154315af71fe140f3db0fe014031783b0946b8c9d2e381565b6001600160a01b0381166000908152610132602090815260408083208151608081018352815481526001820154938101939093526002810154918301919091526003015460ff16158015606083015280610672575061013054155b156106815760009150506106ba565b6001600160a01b038416600090815261013160205260409020546101305482516106ab90836123d0565b6106b591906123e7565b925050505b92915050565b6000805160206126ca8339815191526106d88161174b565b6001600160a01b0383166107335760405162461bcd60e51b815260206004820152601c60248201527f546f6b656e2063616e6e6f74206265207a65726f20616464726573730000000060448201526064015b60405180910390fd5b600082116107835760405162461bcd60e51b815260206004820181905260248201527f416d6f756e74206d7573742062652067726561746572207468616e207a65726f604482015260640161072a565b6001600160a01b03831660009081526101316020526040812080548492906107ac908490612409565b90915550506040518281526001600160a01b038416907f577e40010b42fd80bafa850999e7cec91750c749202445266b373708c59294209060200160405180910390a2505050565b60006001600160e01b03198216637965db0b60e01b14806106ba57506301ffc9a760e01b6001600160e01b03198316146106ba565b610831611755565b33600090815261013260205260409020600381015460ff1661088d5760405162461bcd60e51b8152602060048201526015602482015274139bc81858dd1a5d99481cdd185ad948199bdd5b99605a1b604482015260640161072a565b80600201544210156108d75760405162461bcd60e51b8152602060048201526013602482015272151bdad95b9cc81cdd1a5b1b081b1bd8dad959606a1b604482015260640161072a565b80548061091d5760405162461bcd60e51b81526020600482015260146024820152734e6f20746f6b656e7320746f20756e7374616b6560601b604482015260640161072a565b600080835560038301805460ff19169055610130805483929061094190849061241c565b909155505061012d5461095e906001600160a01b031633836117ae565b60405181815233907f0f5bb82176feb1b5e747e28471aa92156a04d9f3ab9f45f28e2d704232b93f759060200160405180910390a2505061099f6001609755565b565b6000828152606560205260409020600101546109bc8161174b565b6109c68383611818565b505050565b6001600160a01b0381163314610a3b5760405162461bcd60e51b815260206004820152602f60248201527f416363657373436f6e74726f6c3a2063616e206f6e6c792072656e6f756e636560448201526e103937b632b9903337b91039b2b63360891b606482015260840161072a565b610a45828261189e565b5050565b6001600160a01b037f0000000000000000000000000000000000000000000000000000000000000000163003610a915760405162461bcd60e51b815260040161072a9061242f565b7f00000000000000000000000000000000000000000000000000000000000000006001600160a01b0316610ada600080516020612663833981519152546001600160a01b031690565b6001600160a01b031614610b005760405162461bcd60e51b815260040161072a9061247b565b610b0981611905565b60408051600080825260208201909252610b259183919061192f565b50565b6001600160a01b037f0000000000000000000000000000000000000000000000000000000000000000163003610b705760405162461bcd60e51b815260040161072a9061242f565b7f00000000000000000000000000000000000000000000000000000000000000006001600160a01b0316610bb9600080516020612663833981519152546001600160a01b031690565b6001600160a01b031614610bdf5760405162461bcd60e51b815260040161072a9061247b565b610be882611905565b610a458282600161192f565b6000306001600160a01b037f00000000000000000000000000000000000000000000000000000000000000001614610c945760405162461bcd60e51b815260206004820152603860248201527f555550535570677261646561626c653a206d757374206e6f742062652063616c60448201527f6c6564207468726f7567682064656c656761746563616c6c0000000000000000606482015260840161072a565b5060008051602061266383398151915290565b6000805160206126aa833981519152610cbf8161174b565b6001600160a01b038416610d155760405162461bcd60e51b815260206004820152601c60248201527f546f6b656e2063616e6e6f74206265207a65726f206164647265737300000000604482015260640161072a565b6001600160a01b038316610d6b5760405162461bcd60e51b815260206004820181905260248201527f526563697069656e742063616e6e6f74206265207a65726f2061646472657373604482015260640161072a565b60008211610dbb5760405162461bcd60e51b815260206004820181905260248201527f416d6f756e74206d7573742062652067726561746572207468616e207a65726f604482015260640161072a565b61012d546001600160a01b0390811690851603610e9f576040516370a0823160e01b81523060048201526000906001600160a01b038616906370a0823190602401602060405180830381865afa158015610e19573d6000803e3d6000fd5b505050506040513d601f19601f82011682018060405250810190610e3d91906124c7565b9050826101305482610e4f919061241c565b1015610e9d5760405162461bcd60e51b815260206004820152601c60248201527f43616e6e6f74207265636f766572207374616b656420746f6b656e7300000000604482015260640161072a565b505b610eb36001600160a01b03851684846117ae565b50505050565b610ee660405180608001604052806000815260200160008152602001600081526020016000151581525090565b506001600160a01b03166000908152610132602090815260409182902082516080810184528154815260018201549281019290925260028101549282019290925260039091015460ff161515606082015290565b6000805160206126aa833981519152610f528161174b565b6001600160a01b038216610fa85760405162461bcd60e51b815260206004820152601f60248201527f54726561737572792063616e6e6f74206265207a65726f206164647265737300604482015260640161072a565b61012e54610fce906000805160206126ca833981519152906001600160a01b031661189e565b61012e80546001600160a01b0319166001600160a01b038416179055610a456000805160206126ca83398151915283611818565b60009182526065602090815260408084206001600160a01b0393909316845291905290205460ff1690565b6000805160206126aa8339815191526110458161174b565b600082116110955760405162461bcd60e51b815260206004820152601a60248201527f4c6f636b20706572696f642063616e6e6f74206265207a65726f000000000000604482015260640161072a565b61012f80549083905560408051828152602081018590527f5dd7b309b7bc5010d9c96159ee535a428121d6803cb847792402fffccaf1569a910160405180910390a1505050565b6110e4611755565b6000811161112c5760405162461bcd60e51b815260206004820152601560248201527443616e6e6f74207374616b65203020746f6b656e7360581b604482015260640161072a565b61012d543360009081526101326020526040902060038101546001600160a01b039092169160ff1615611178578281600001600082825461116d9190612409565b9091555061118b9050565b82815560038101805460ff191660011790555b426001820181905561012f546111a091612409565b81600201819055508261013060008282546111bb9190612409565b909155506111d690506001600160a01b038316333086611a9a565b600281015460405133917f1449c6dd7851abc30abf37f57715f492010519147cc2652fbc38202c18a6ee909161121491878252602082015260400190565b60405180910390a25050610b256001609755565b600054610100900460ff16158080156112485750600054600160ff909116105b806112625750303b158015611262575060005460ff166001145b6112c55760405162461bcd60e51b815260206004820152602e60248201527f496e697469616c697a61626c653a20636f6e747261637420697320616c72656160448201526d191e481a5b9a5d1a585b1a5e995960921b606482015260840161072a565b6000805460ff1916600117905580156112e8576000805461ff0019166101001790555b6001600160a01b03841661133e5760405162461bcd60e51b815260206004820152601c60248201527f41646d696e2063616e6e6f74206265207a65726f206164647265737300000000604482015260640161072a565b6001600160a01b03831661139e5760405162461bcd60e51b815260206004820152602160248201527f5355425620746f6b656e2063616e6e6f74206265207a65726f206164647265736044820152607360f81b606482015260840161072a565b6001600160a01b0382166113f45760405162461bcd60e51b815260206004820152601f60248201527f54726561737572792063616e6e6f74206265207a65726f206164647265737300604482015260640161072a565b6113fc611ad2565b611404611af9565b61140c611ad2565b611417600085611818565b61142f6000805160206126aa83398151915285611818565b6114597f189ab7a9244df0848122154315af71fe140f3db0fe014031783b0946b8c9d2e385611818565b6114716000805160206126ca83398151915283611818565b61012d80546001600160a01b038086166001600160a01b03199283161790925561012e80549285169290911691909117905562278d0061012f558015610eb3576000805461ff0019169055604051600181527f7f26b83ff96e1f2b6a682f133852f6798a09c465da95921460cefb38474024989060200160405180910390a150505050565b6000828152606560205260409020600101546115118161174b565b6109c6838361189e565b611523611755565b336000908152610132602090815260409182902082516080810184528154815260018201549281019290925260028101549282019290925260039091015460ff161515606082018190526115b15760405162461bcd60e51b8152602060048201526015602482015274139bc81858dd1a5d99481cdd185ad948199bdd5b99605a1b604482015260640161072a565b6001600160a01b038216600090815261013160205260409020548061160f5760405162461bcd60e51b81526020600482015260146024820152734e6f207265776172647320617661696c61626c6560601b604482015260640161072a565b600061013054116116555760405162461bcd60e51b815260206004820152601060248201526f4e6f20746f74616c207374616b696e6760801b604482015260640161072a565b6101305482516000919061166990846123d0565b61167391906123e7565b9050600081116116bb5760405162461bcd60e51b81526020600482015260136024820152724e6f207265776172647320746f20636c61696d60681b604482015260640161072a565b6001600160a01b03841660009081526101316020526040812080548392906116e490849061241c565b909155506116fe90506001600160a01b03851633836117ae565b6040518181526001600160a01b0385169033907f9310ccfcb8de723f578a9e4282ea9f521f05ae40dc08f3068dfad528a65ee3c79060200160405180910390a3505050610b256001609755565b610b258133611b28565b6002609754036117a75760405162461bcd60e51b815260206004820152601f60248201527f5265656e7472616e637947756172643a207265656e7472616e742063616c6c00604482015260640161072a565b6002609755565b6040516001600160a01b0383166024820152604481018290526109c690849063a9059cbb60e01b906064015b60408051601f198184030181529190526020810180516001600160e01b03166001600160e01b031990931692909217909152611b81565b6001609755565b6118228282611002565b610a455760008281526065602090815260408083206001600160a01b03851684529091529020805460ff1916600117905561185a3390565b6001600160a01b0316816001600160a01b0316837f2f8788117e7eff1d82e926ec794901d17c78024a50270940304540a733656f0d60405160405180910390a45050565b6118a88282611002565b15610a455760008281526065602090815260408083206001600160a01b0385168085529252808320805460ff1916905551339285917ff6391f5c32d9c69d2a47ea670b442974b53935d1edc7fd64eb21e047a839171b9190a45050565b7f189ab7a9244df0848122154315af71fe140f3db0fe014031783b0946b8c9d2e3610a458161174b565b7f4910fdfa16fed3260ed0e7147f7cc6da11a60208b5b9406d12a635614ffd91435460ff1615611962576109c683611c56565b826001600160a01b03166352d1902d6040518163ffffffff1660e01b8152600401602060405180830381865afa9250505080156119bc575060408051601f3d908101601f191682019092526119b9918101906124c7565b60015b611a1f5760405162461bcd60e51b815260206004820152602e60248201527f45524331393637557067726164653a206e657720696d706c656d656e7461746960448201526d6f6e206973206e6f74205555505360901b606482015260840161072a565b6000805160206126638339815191528114611a8e5760405162461bcd60e51b815260206004820152602960248201527f45524331393637557067726164653a20756e737570706f727465642070726f786044820152681a58589b195555525160ba1b606482015260840161072a565b506109c6838383611cf2565b6040516001600160a01b0380851660248301528316604482015260648101829052610eb39085906323b872dd60e01b906084016117da565b600054610100900460ff1661099f5760405162461bcd60e51b815260040161072a906124e0565b600054610100900460ff16611b205760405162461bcd60e51b815260040161072a906124e0565b61099f611d17565b611b328282611002565b610a4557611b3f81611d3e565b611b4a836020611d50565b604051602001611b5b92919061254f565b60408051601f198184030181529082905262461bcd60e51b825261072a916004016125c4565b6000611bd6826040518060400160405280602081526020017f5361666545524332303a206c6f772d6c6576656c2063616c6c206661696c6564815250856001600160a01b0316611ef39092919063ffffffff16565b9050805160001480611bf7575080806020019051810190611bf791906125f7565b6109c65760405162461bcd60e51b815260206004820152602a60248201527f5361666545524332303a204552433230206f7065726174696f6e20646964206e6044820152691bdd081cdd58d8d9595960b21b606482015260840161072a565b6001600160a01b0381163b611cc35760405162461bcd60e51b815260206004820152602d60248201527f455243313936373a206e657720696d706c656d656e746174696f6e206973206e60448201526c1bdd08184818dbdb9d1c9858dd609a1b606482015260840161072a565b60008051602061266383398151915280546001600160a01b0319166001600160a01b0392909216919091179055565b611cfb83611f0a565b600082511180611d085750805b156109c657610eb38383611f4a565b600054610100900460ff166118115760405162461bcd60e51b815260040161072a906124e0565b60606106ba6001600160a01b03831660145b60606000611d5f8360026123d0565b611d6a906002612409565b67ffffffffffffffff811115611d8257611d8261225a565b6040519080825280601f01601f191660200182016040528015611dac576020820181803683370190505b509050600360fc1b81600081518110611dc757611dc7612619565b60200101906001600160f81b031916908160001a905350600f60fb1b81600181518110611df657611df6612619565b60200101906001600160f81b031916908160001a9053506000611e1a8460026123d0565b611e25906001612409565b90505b6001811115611e9d576f181899199a1a9b1b9c1cb0b131b232b360811b85600f1660108110611e5957611e59612619565b1a60f81b828281518110611e6f57611e6f612619565b60200101906001600160f81b031916908160001a90535060049490941c93611e968161262f565b9050611e28565b508315611eec5760405162461bcd60e51b815260206004820181905260248201527f537472696e67733a20686578206c656e67746820696e73756666696369656e74604482015260640161072a565b9392505050565b6060611f028484600085611f6f565b949350505050565b611f1381611c56565b6040516001600160a01b038216907fbc7cd75a20ee27fd9adebab32041f755214dbc6bffa90cc0225b39da2e5c2d3b90600090a250565b6060611eec83836040518060600160405280602781526020016126836027913961204a565b606082471015611fd05760405162461bcd60e51b815260206004820152602660248201527f416464726573733a20696e73756666696369656e742062616c616e636520666f6044820152651c8818d85b1b60d21b606482015260840161072a565b600080866001600160a01b03168587604051611fec9190612646565b60006040518083038185875af1925050503d8060008114612029576040519150601f19603f3d011682016040523d82523d6000602084013e61202e565b606091505b509150915061203f878383876120c2565b979650505050505050565b6060600080856001600160a01b0316856040516120679190612646565b600060405180830381855af49150503d80600081146120a2576040519150601f19603f3d011682016040523d82523d6000602084013e6120a7565b606091505b50915091506120b8868383876120c2565b9695505050505050565b6060831561213157825160000361212a576001600160a01b0385163b61212a5760405162461bcd60e51b815260206004820152601d60248201527f416464726573733a2063616c6c20746f206e6f6e2d636f6e7472616374000000604482015260640161072a565b5081611f02565b611f0283838151156121465781518083602001fd5b8060405162461bcd60e51b815260040161072a91906125c4565b80356001600160a01b038116811461217757600080fd5b919050565b6000806040838503121561218f57600080fd5b61219883612160565b91506121a660208401612160565b90509250929050565b600080604083850312156121c257600080fd5b6121cb83612160565b946020939093013593505050565b6000602082840312156121eb57600080fd5b81356001600160e01b031981168114611eec57600080fd5b60006020828403121561221557600080fd5b5035919050565b6000806040838503121561222f57600080fd5b823591506121a660208401612160565b60006020828403121561225157600080fd5b611eec82612160565b634e487b7160e01b600052604160045260246000fd5b6000806040838503121561228357600080fd5b61228c83612160565b9150602083013567ffffffffffffffff8111156122a857600080fd5b8301601f810185136122b957600080fd5b803567ffffffffffffffff8111156122d3576122d361225a565b604051601f8201601f19908116603f0116810167ffffffffffffffff811182821017156123025761230261225a565b60405281815282820160200187101561231a57600080fd5b816020840160208301376000602083830101528093505050509250929050565b60008060006060848603121561234f57600080fd5b61235884612160565b925061236660208501612160565b929592945050506040919091013590565b60008060006060848603121561238c57600080fd5b61239584612160565b92506123a360208501612160565b91506123b160408501612160565b90509250925092565b634e487b7160e01b600052601160045260246000fd5b80820281158282048414176106ba576106ba6123ba565b60008261240457634e487b7160e01b600052601260045260246000fd5b500490565b808201808211156106ba576106ba6123ba565b818103818111156106ba576106ba6123ba565b6020808252602c908201527f46756e6374696f6e206d7573742062652063616c6c6564207468726f7567682060408201526b19195b1959d85d1958d85b1b60a21b606082015260800190565b6020808252602c908201527f46756e6374696f6e206d7573742062652063616c6c6564207468726f7567682060408201526b6163746976652070726f787960a01b606082015260800190565b6000602082840312156124d957600080fd5b5051919050565b6020808252602b908201527f496e697469616c697a61626c653a20636f6e7472616374206973206e6f74206960408201526a6e697469616c697a696e6760a81b606082015260800190565b60005b8381101561254657818101518382015260200161252e565b50506000910152565b7f416363657373436f6e74726f6c3a206163636f756e742000000000000000000081526000835161258781601785016020880161252b565b7001034b99036b4b9b9b4b733903937b6329607d1b60179184019182015283516125b881602884016020880161252b565b01602801949350505050565b60208152600082518060208401526125e381604085016020870161252b565b601f01601f19169190910160400192915050565b60006020828403121561260957600080fd5b81518015158114611eec57600080fd5b634e487b7160e01b600052603260045260246000fd5b60008161263e5761263e6123ba565b506000190190565b6000825161265881846020870161252b565b919091019291505056fe360894a13ba1a3210667c828492db98dca3e2076cc3735a920a3ca505d382bbc416464726573733a206c6f772d6c6576656c2064656c65676174652063616c6c206661696c6564a49807205ce4d355092ef5a8a18f56e8913cf4a201fbe287825b095693c21775e1dcbdb91df27212a29bc27177c840cf2f819ecf2187432e1fac86c2dd5dfca9a26469706673582212204ec65e46ff09193e4c3d561cdfb550ea7a66d5fe2cca430bfe75799bac709b6f64736f6c634300081c0033",
  "linkReferences": {},
  "deployedLinkReferences": {}
}