{
  "_format": "hh-sol-artifact-1",
  "contractName": "Treasury",
  "sourceName": "contracts/Treasury.sol",
  "abi": [
    {
      "inputs": [],
      "stateMutability": "nonpayable",
      "type": "constructor"
    },
    {
      "anonymous": false,
      "inputs": [
        {
          "indexed": false,
          "internalType": "address",
          "name": "previousAdmin",
          "type": "address"
        },
        {
          "indexed": false,
          "internalType": "address",
          "name": "newAdmin",
          "type": "address"
        }
      ],
      "name": "AdminChanged",
      "type": "event"
    },
    {
      "anonymous": false,
      "inputs": [
        {
          "indexed": false,
          "internalType": "uint256",
          "name": "operations",
          "type": "uint256"
        },
        {
          "indexed": false,
          "internalType": "uint256",
          "name": "staking",
          "type": "uint256"
        },
        {
          "indexed": false,
          "internalType": "uint256",
          "name": "buyback",
          "type": "uint256"
        }
      ],
      "name": "AllocationUpdated",
      "type": "event"
    },
    {
      "anonymous": false,
      "inputs": [
        {
          "indexed": true,
          "internalType": "address",
          "name": "beacon",
          "type": "address"
        }
      ],
      "name": "BeaconUpgraded",
      "type": "event"
    },
    {
      "anonymous": false,
      "inputs": [
        {
          "indexed": false,
          "internalType": "address",
          "name": "token",
          "type": "address"
        },
        {
          "indexed": false,
          "internalType": "address",
          "name": "to",
          "type": "address"
        },
        {
          "indexed": false,
          "internalType": "uint256",
          "name": "amount",
          "type": "uint256"
        }
      ],
      "name": "EmergencyTokenRecovery",
      "type": "event"
    },
    {
      "anonymous": false,
      "inputs": [
        {
          "indexed": false,
          "internalType": "address",
          "name": "token",
          "type": "address"
        },
        {
          "indexed": false,
          "internalType": "uint256",
          "name": "amount",
          "type": "uint256"
        }
      ],
      "name": "FeeReceived",
      "type": "event"
    },
    {
      "anonymous": false,
      "inputs": [
        {
          "indexed": false,
          "internalType": "uint8",
          "name": "version",
          "type": "uint8"
        }
      ],
      "name": "Initialized",
      "type": "event"
    },
    {
      "anonymous": false,
      "inputs": [
        {
          "indexed": false,
          "internalType": "uint256",
          "name": "oldValue",
          "type": "uint256"
        },
        {
          "indexed": false,
          "internalType": "uint256",
          "name": "newValue",
          "type": "uint256"
        }
      ],
      "name": "RequiredSignaturesUpdated",
      "type": "event"
    },
    {
      "anonymous": false,
      "inputs": [
        {
          "indexed": true,
          "internalType": "bytes32",
          "name": "role",
          "type": "bytes32"
        },
        {
          "indexed": true,
          "internalType": "bytes32",
          "name": "previousAdminRole",
          "type": "bytes32"
        },
        {
          "indexed": true,
          "internalType": "bytes32",
          "name": "newAdminRole",
          "type": "bytes32"
        }
      ],
      "name": "RoleAdminChanged",
      "type": "event"
    },
    {
      "anonymous": false,
      "inputs": [
        {
          "indexed": true,
          "internalType": "bytes32",
          "name": "role",
          "type": "bytes32"
        },
        {
          "indexed": true,
          "internalType": "address",
          "name": "account",
          "type": "address"
        },
        {
          "indexed": true,
          "internalType": "address",
          "name": "sender",
          "type": "address"
        }
      ],
      "name": "RoleGranted",
      "type": "event"
    },
    {
      "anonymous": false,
      "inputs": [
        {
          "indexed": true,
          "internalType": "bytes32",
          "name": "role",
          "type": "bytes32"
        },
        {
          "indexed": true,
          "internalType": "address",
          "name": "account",
          "type": "address"
        },
        {
          "indexed": true,
          "internalType": "address",
          "name": "sender",
          "type": "address"
        }
      ],
      "name": "RoleRevoked",
      "type": "event"
    },
    {
      "anonymous": false,
      "inputs": [
        {
          "indexed": false,
          "internalType": "address",
          "name": "oldContract",
          "type": "address"
        },
        {
          "indexed": false,
          "internalType": "address",
          "name": "newContract",
          "type": "address"
        }
      ],
      "name": "StakingContractUpdated",
      "type": "event"
    },
    {
      "anonymous": false,
      "inputs": [
        {
          "indexed": false,
          "internalType": "address",
          "name": "token",
          "type": "address"
        },
        {
          "indexed": false,
          "internalType": "uint256",
          "name": "amount",
          "type": "uint256"
        }
      ],
      "name": "StakingFeesProcessed",
      "type": "event"
    },
    {
      "anonymous": false,
      "inputs": [
        {
          "indexed": false,
          "internalType": "address",
          "name": "treasurer",
          "type": "address"
        }
      ],
      "name": "TreasurerAdded",
      "type": "event"
    },
    {
      "anonymous": false,
      "inputs": [
        {
          "indexed": false,
          "internalType": "address",
          "name": "treasurer",
          "type": "address"
        }
      ],
      "name": "TreasurerRemoved",
      "type": "event"
    },
    {
      "anonymous": false,
      "inputs": [
        {
          "indexed": true,
          "internalType": "address",
          "name": "implementation",
          "type": "address"
        }
      ],
      "name": "Upgraded",
      "type": "event"
    },
    {
      "anonymous": false,
      "inputs": [
        {
          "indexed": false,
          "internalType": "uint256",
          "name": "requestId",
          "type": "uint256"
        },
        {
          "indexed": false,
          "internalType": "address",
          "name": "treasurer",
          "type": "address"
        }
      ],
      "name": "WithdrawalApproved",
      "type": "event"
    },
    {
      "anonymous": false,
      "inputs": [
        {
          "indexed": false,
          "internalType": "uint256",
          "name": "requestId",
          "type": "uint256"
        },
        {
          "indexed": false,
          "internalType": "address",
          "name": "token",
          "type": "address"
        },
        {
          "indexed": false,
          "internalType": "uint256",
          "name": "amount",
          "type": "uint256"
        },
        {
          "indexed": false,
          "internalType": "address",
          "name": "recipient",
          "type": "address"
        }
      ],
      "name": "WithdrawalExecuted",
      "type": "event"
    },
    {
      "anonymous": false,
      "inputs": [
        {
          "indexed": false,
          "internalType": "uint256",
          "name": "requestId",
          "type": "uint256"
        },
        {
          "indexed": false,
          "internalType": "address",
          "name": "token",
          "type": "address"
        },
        {
          "indexed": false,
          "internalType": "uint256",
          "name": "amount",
          "type": "uint256"
        },
        {
          "indexed": false,
          "internalType": "address",
          "name": "recipient",
          "type": "address"
        },
        {
          "indexed": false,
          "internalType": "string",
          "name": "reason",
          "type": "string"
        }
      ],
      "name": "WithdrawalRequested",
      "type": "event"
    },
    {
      "inputs": [],
      "name": "ADMIN_ROLE",
      "outputs": [
        {
          "internalType": "bytes32",
          "name": "",
          "type": "bytes32"
        }
      ],
      "stateMutability": "view",
      "type": "function"
    },
    {
      "inputs": [],
      "name": "DEFAULT_ADMIN_ROLE",
      "outputs": [
        {
          "internalType": "bytes32",
          "name": "",
          "type": "bytes32"
        }
      ],
      "stateMutability": "view",
      "type": "function"
    },
    {
      "inputs": [],
      "name": "FEE_COLLECTOR_ROLE",
      "outputs": [
        {
          "internalType": "bytes32",
          "name": "",
          "type": "bytes32"
        }
      ],
      "stateMutability": "view",
      "type": "function"
    },
    {
      "inputs": [],
      "name": "TREASURER_ROLE",
      "outputs": [
        {
          "internalType": "bytes32",
          "name": "",
          "type": "bytes32"
        }
      ],
      "stateMutability": "view",
      "type": "function"
    },
    {
      "inputs": [],
      "name": "UPGRADER_ROLE",
      "outputs": [
        {
          "internalType": "bytes32",
          "name": "",
          "type": "bytes32"
        }
      ],
      "stateMutability": "view",
      "type": "function"
    },
    {
      "inputs": [
        {
          "internalType": "address",
          "name": "collector",
          "type": "address"
        }
      ],
      "name": "addFeeCollector",
      "outputs": [],
      "stateMutability": "nonpayable",
      "type": "function"
    },
    {
      "inputs": [
        {
          "internalType": "address",
          "name": "newTreasurer",
          "type": "address"
        }
      ],
      "name": "addTreasurer",
      "outputs": [],
      "stateMutability": "nonpayable",
      "type": "function"
    },
    {
      "inputs": [
        {
          "internalType": "uint256",
          "name": "requestId",
          "type": "uint256"
        }
      ],
      "name": "approveWithdrawal",
      "outputs": [],
      "stateMutability": "nonpayable",
      "type": "function"
    },
    {
      "inputs": [],
      "name": "buybackAllocation",
      "outputs": [
        {
          "internalType": "uint256",
          "name": "",
          "type": "uint256"
        }
      ],
      "stateMutability": "view",
      "type": "function"
    },
    {
      "inputs": [
        {
          "internalType": "address",
          "name": "",
          "type": "address"
        }
      ],
      "name": "buybackBalance",
      "outputs": [
        {
          "internalType": "uint256",
          "name": "",
          "type": "uint256"
        }
      ],
      "stateMutability": "view",
      "type": "function"
    },
    {
      "inputs": [
        {
          "internalType": "address",
          "name": "token",
          "type": "address"
        },
        {
          "internalType": "address",
          "name": "to",
          "type": "address"
        },
        {
          "internalType": "uint256",
          "name": "amount",
          "type": "uint256"
        }
      ],
      "name": "emergencyTokenRecovery",
      "outputs": [],
      "stateMutability": "nonpayable",
      "type": "function"
    },
    {
      "inputs": [
        {
          "internalType": "bytes32",
          "name": "role",
          "type": "bytes32"
        }
      ],
      "name": "getRoleAdmin",
      "outputs": [
        {
          "internalType": "bytes32",
          "name": "",
          "type": "bytes32"
        }
      ],
      "stateMutability": "view",
      "type": "function"
    },
    {
      "inputs": [
        {
          "internalType": "uint256",
          "name": "requestId",
          "type": "uint256"
        },
        {
          "internalType": "address",
          "name": "treasurer",
          "type": "address"
        }
      ],
      "name": "getWithdrawalApprovalStatus",
      "outputs": [
        {
          "internalType": "bool",
          "name": "",
          "type": "bool"
        }
      ],
      "stateMutability": "view",
      "type": "function"
    },
    {
      "inputs": [
        {
          "internalType": "bytes32",
          "name": "role",
          "type": "bytes32"
        },
        {
          "internalType": "address",
          "name": "account",
          "type": "address"
        }
      ],
      "name": "grantRole",
      "outputs": [],
      "stateMutability": "nonpayable",
      "type": "function"
    },
    {
      "inputs": [
        {
          "internalType": "bytes32",
          "name": "role",
          "type": "bytes32"
        },
        {
          "internalType": "address",
          "name": "account",
          "type": "address"
        }
      ],
      "name": "hasRole",
      "outputs": [
        {
          "internalType": "bool",
          "name": "",
          "type": "bool"
        }
      ],
      "stateMutability": "view",
      "type": "function"
    },
    {
      "inputs": [
        {
          "internalType": "address",
          "name": "admin",
          "type": "address"
        },
        {
          "internalType": "address",
          "name": "subvToken",
          "type": "address"
        },
        {
          "internalType": "address",
          "name": "stakingContract",
          "type": "address"
        },
        {
          "internalType": "address[]",
          "name": "initialTreasurers",
          "type": "address[]"
        },
        {
          "internalType": "uint256",
          "name": "signaturesRequired",
          "type": "uint256"
        }
      ],
      "name": "initialize",
      "outputs": [],
      "stateMutability": "nonpayable",
      "type": "function"
    },
    {
      "inputs": [],
      "name": "nextWithdrawalId",
      "outputs": [
        {
          "internalType": "uint256",
          "name": "",
          "type": "uint256"
        }
      ],
      "stateMutability": "view",
      "type": "function"
    },
    {
      "inputs": [],
      "name": "operationsAllocation",
      "outputs": [
        {
          "internalType": "uint256",
          "name": "",
          "type": "uint256"
        }
      ],
      "stateMutability": "view",
      "type": "function"
    },
    {
      "inputs": [
        {
          "internalType": "address",
          "name": "",
          "type": "address"
        }
      ],
      "name": "operationsBalance",
      "outputs": [
        {
          "internalType": "uint256",
          "name": "",
          "type": "uint256"
        }
      ],
      "stateMutability": "view",
      "type": "function"
    },
    {
      "inputs": [
        {
          "internalType": "address",
          "name": "",
          "type": "address"
        }
      ],
      "name": "pendingStakingFees",
      "outputs": [
        {
          "internalType": "uint256",
          "name": "",
          "type": "uint256"
        }
      ],
      "stateMutability": "view",
      "type": "function"
    },
    {
      "inputs": [
        {
          "internalType": "address",
          "name": "token",
          "type": "address"
        }
      ],
      "name": "processStakingFees",
      "outputs": [],
      "stateMutability": "nonpayable",
      "type": "function"
    },
    {
      "inputs": [],
      "name": "proxiableUUID",
      "outputs": [
        {
          "internalType": "bytes32",
          "name": "",
          "type": "bytes32"
        }
      ],
      "stateMutability": "view",
      "type": "function"
    },
    {
      "inputs": [
        {
          "internalType": "address",
          "name": "token",
          "type": "address"
        },
        {
          "internalType": "uint256",
          "name": "amount",
          "type": "uint256"
        }
      ],
      "name": "receiveFees",
      "outputs": [],
      "stateMutability": "nonpayable",
      "type": "function"
    },
    {
      "inputs": [
        {
          "internalType": "address",
          "name": "collector",
          "type": "address"
        }
      ],
      "name": "removeFeeCollector",
      "outputs": [],
      "stateMutability": "nonpayable",
      "type": "function"
    },
    {
      "inputs": [
        {
          "internalType": "address",
          "name": "treasurer",
          "type": "address"
        }
      ],
      "name": "removeTreasurer",
      "outputs": [],
      "stateMutability": "nonpayable",
      "type": "function"
    },
    {
      "inputs": [
        {
          "internalType": "bytes32",
          "name": "role",
          "type": "bytes32"
        },
        {
          "internalType": "address",
          "name": "account",
          "type": "address"
        }
      ],
      "name": "renounceRole",
      "outputs": [],
      "stateMutability": "nonpayable",
      "type": "function"
    },
    {
      "inputs": [
        {
          "internalType": "address",
          "name": "token",
          "type": "address"
        },
        {
          "internalType": "uint256",
          "name": "amount",
          "type": "uint256"
        },
        {
          "internalType": "address",
          "name": "recipient",
          "type": "address"
        },
        {
          "internalType": "string",
          "name": "reason",
          "type": "string"
        }
      ],
      "name": "requestWithdrawal",
      "outputs": [],
      "stateMutability": "nonpayable",
      "type": "function"
    },
    {
      "inputs": [],
      "name": "requiredSignatures",
      "outputs": [
        {
          "internalType": "uint256",
          "name": "",
          "type": "uint256"
        }
      ],
      "stateMutability": "view",
      "type": "function"
    },
    {
      "inputs": [
        {
          "internalType": "bytes32",
          "name": "role",
          "type": "bytes32"
        },
        {
          "internalType": "address",
          "name": "account",
          "type": "address"
        }
      ],
      "name": "revokeRole",
      "outputs": [],
      "stateMutability": "nonpayable",
      "type": "function"
    },
    {
      "inputs": [],
      "name": "stakingAllocation",
      "outputs": [
        {
          "internalType": "uint256",
          "name": "",
          "type": "uint256"
        }
      ],
      "stateMutability": "view",
      "type": "function"
    },
    {
      "inputs": [
        {
          "internalType": "address",
          "name": "",
          "type": "address"
        }
      ],
      "name": "stakingBalance",
      "outputs": [
        {
          "internalType": "uint256",
          "name": "",
          "type": "uint256"
        }
      ],
      "stateMutability": "view",
      "type": "function"
    },
    {
      "inputs": [],
      "name": "stakingContractAddress",
      "outputs": [
        {
          "internalType": "address",
          "name": "",
          "type": "address"
        }
      ],
      "stateMutability": "view",
      "type": "function"
    },
    {
      "inputs": [],
      "name": "subvTokenAddress",
      "outputs": [
        {
          "internalType": "address",
          "name": "",
          "type": "address"
        }
      ],
      "stateMutability": "view",
      "type": "function"
    },
    {
      "inputs": [
        {
          "internalType": "bytes4",
          "name": "interfaceId",
          "type": "bytes4"
        }
      ],
      "name": "supportsInterface",
      "outputs": [
        {
          "internalType": "bool",
          "name": "",
          "type": "bool"
        }
      ],
      "stateMutability": "view",
      "type": "function"
    },
    {
      "inputs": [],
      "name": "treasurerCount",
      "outputs": [
        {
          "internalType": "uint256",
          "name": "",
          "type": "uint256"
        }
      ],
      "stateMutability": "view",
      "type": "function"
    },
    {
      "inputs": [
        {
          "internalType": "address",
          "name": "",
          "type": "address"
        }
      ],
      "name": "treasurers",
      "outputs": [
        {
          "internalType": "bool",
          "name": "",
          "type": "bool"
        }
      ],
      "stateMutability": "view",
      "type": "function"
    },
    {
      "inputs": [
        {
          "internalType": "uint256",
          "name": "operations",
          "type": "uint256"
        },
        {
          "internalType": "uint256",
          "name": "staking",
          "type": "uint256"
        },
        {
          "internalType": "uint256",
          "name": "buyback",
          "type": "uint256"
        }
      ],
      "name": "updateAllocation",
      "outputs": [],
      "stateMutability": "nonpayable",
      "type": "function"
    },
    {
      "inputs": [
        {
          "internalType": "uint256",
          "name": "newRequiredSignatures",
          "type": "uint256"
        }
      ],
      "name": "updateRequiredSignatures",
      "outputs": [],
      "stateMutability": "nonpayable",
      "type": "function"
    },
    {
      "inputs": [
        {
          "internalType": "address",
          "name": "newStakingContract",
          "type": "address"
        }
      ],
      "name": "updateStakingContract",
      "outputs": [],
      "stateMutability": "nonpayable",
      "type": "function"
    },
    {
      "inputs": [
        {
          "internalType": "address",
          "name": "newImplementation",
          "type": "address"
        }
      ],
      "name": "upgradeTo",
      "outputs": [],
      "stateMutability": "nonpayable",
      "type": "function"
    },
    {
      "inputs": [
        {
          "internalType": "address",
          "name": "newImplementation",
          "type": "address"
        },
        {
          "internalType": "bytes",
          "name": "data",
          "type": "bytes"
        }
      ],
      "name": "upgradeToAndCall",
      "outputs": [],
      "stateMutability": "payable",
      "type": "function"
    },
    {
      "inputs": [
        {
          "internalType": "uint256",
          "name": "",
          "type": "uint256"
        }
      ],
      "name": "withdrawalRequests",
      "outputs": [
        {
          "internalType": "address",
          "name": "token",
          "type": "address"
        },
        {
          "internalType": "uint256",
          "name": "amount",
          "type": "uint256"
        },
        {
          "internalType": "address",
          "name": "recipient",
          "type": "address"
        },
        {
          "internalType": "string",
          "name": "reason",
          "type": "string"
        },
        {
          "internalType": "bool",
          "name": "executed",
          "type": "bool"
        },
        {
          "internalType": "uint256",
          "name": "approvalCount",
          "type": "uint256"
        }
      ],
      "stateMutability": "view",
      "type": "function"
    }
  ],
  "bytecode": "0x60a06040523060805234801561001457600080fd5b5061001d610022565b6100e1565b600054610100900460ff161561008e5760405162461bcd60e51b815260206004820152602760248201527f496e697469616c697a61626c653a20636f6e747261637420697320696e697469604482015266616c697a696e6760c81b606482015260840160405180910390fd5b60005460ff908116146100df576000805460ff191660ff9081179091556040519081527f7f26b83ff96e1f2b6a682f133852f6798a09c465da95921460cefb38474024989060200160405180910390a15b565b60805161355b61011860003960008181610f6401528181610fa40152818161104001528181611080015261110f015261355b6000f3fe6080604052600436106102505760003560e01c806354c3a192116101395780639eceddea116100b6578063c6a7d84f1161007a578063c6a7d84f14610725578063cdf99e901461073c578063d547741f1461076a578063e603eddb1461078a578063f0a3a97c146107aa578063f72c0d8b146107cc57600080fd5b80639eceddea1461068f578063a217fddf146106af578063ab56a29c146106c4578063afc1c3e9146106e4578063b9c8f7a11461070457600080fd5b80638d068043116100fd5780638d068043146105e657806391d026b9146105fd57806391d148541461061d578063937b25811461063d57806396f0248a1461066f57600080fd5b806354c3a1921461054257806362a2a47c1461056257806375b238fc1461058457806375d1a9d6146105a65780637e865a08146105c657600080fd5b80633347e4d6116101d25780633bc4c46f116101965780633bc4c46f146104905780634564fa26146104a757806345bc78ab146104d55780634a9122e3146105035780634f1ef2861461051a57806352d1902d1461052d57600080fd5b80633347e4d6146103e05780633535f48b1461040057806336568abe146104395780633659cfe6146104595780633b7d73691461047957600080fd5b8063187ca59011610219578063187ca590146103225780631fa67b4d14610342578063248a9ca3146103625780632865a24a146103925780632f2ff15d146103c057600080fd5b8062b129a41461025557806301ffc9a71461027757806306c16733146102ac5780630d60432e146102d157806311f12536146102f1575b600080fd5b34801561026157600080fd5b50610275610270366004612bb7565b610800565b005b34801561028357600080fd5b50610297610292366004612be1565b6109b0565b60405190151581526020015b60405180910390f35b3480156102b857600080fd5b506102c36101335481565b6040519081526020016102a3565b3480156102dd57600080fd5b506102756102ec366004612c0b565b6109e7565b3480156102fd57600080fd5b5061029761030c366004612c24565b6101326020526000908152604090205460ff1681565b34801561032e57600080fd5b5061027561033d366004612c24565b610ad1565b34801561034e57600080fd5b5061027561035d366004612c24565b610d58565b34801561036e57600080fd5b506102c361037d366004612c0b565b60009081526065602052604090206001015490565b34801561039e57600080fd5b506102c36103ad366004612c24565b6101376020526000908152604090205481565b3480156103cc57600080fd5b506102756103db366004612c3f565b610de2565b3480156103ec57600080fd5b506102756103fb366004612c24565b610e07565b34801561040c57600080fd5b5061013154610421906001600160a01b031681565b6040516001600160a01b0390911681526020016102a3565b34801561044557600080fd5b50610275610454366004612c3f565b610ee0565b34801561046557600080fd5b50610275610474366004612c24565b610f5a565b34801561048557600080fd5b506102c361012e5481565b34801561049c57600080fd5b506102c361012d5481565b3480156104b357600080fd5b506102c36104c2366004612c24565b6101356020526000908152604090205481565b3480156104e157600080fd5b506102c36104f0366004612c24565b6101366020526000908152604090205481565b34801561050f57600080fd5b506102c361013a5481565b610275610528366004612d0e565b611036565b34801561053957600080fd5b506102c3611102565b34801561054e57600080fd5b5061027561055d366004612d70565b6111b5565b34801561056e57600080fd5b506102c360008051602061349f83398151915281565b34801561059057600080fd5b506102c360008051602061350683398151915281565b3480156105b257600080fd5b506102756105c1366004612dad565b6112e0565b3480156105d257600080fd5b506102976105e1366004612c3f565b6116bf565b3480156105f257600080fd5b506102c36101345481565b34801561060957600080fd5b50610275610618366004612c24565b611741565b34801561062957600080fd5b50610297610638366004612c3f565b6117c7565b34801561064957600080fd5b5061065d610658366004612c0b565b6117f2565b6040516102a396959493929190612eeb565b34801561067b57600080fd5b5061027561068a366004612c24565b6118c2565b34801561069b57600080fd5b506102756106aa366004612c0b565b611a3c565b3480156106bb57600080fd5b506102c3600081565b3480156106d057600080fd5b506102756106df366004612c24565b611bf4565b3480156106f057600080fd5b506102756106ff366004612f33565b611d54565b34801561071057600080fd5b5061013054610421906001600160a01b031681565b34801561073157600080fd5b506102c361012f5481565b34801561074857600080fd5b506102c3610757366004612c24565b6101386020526000908152604090205481565b34801561077657600080fd5b50610275610785366004612c3f565b611f62565b34801561079657600080fd5b506102756107a5366004612faf565b611f87565b3480156107b657600080fd5b506102c360008051602061347f83398151915281565b3480156107d857600080fd5b506102c37f189ab7a9244df0848122154315af71fe140f3db0fe014031783b0946b8c9d2e381565b60008051602061349f8339815191526108188161205e565b610820612068565b6001600160a01b03831661084f5760405162461bcd60e51b815260040161084690612fdb565b60405180910390fd5b6000821161086f5760405162461bcd60e51b815260040161084690613012565b600061271061012d5484610883919061305d565b61088d9190613074565b9050600061271061012e54856108a3919061305d565b6108ad9190613074565b9050600061271061012f54866108c3919061305d565b6108cd9190613074565b6001600160a01b038716600090815261013560205260408120805492935085929091906108fb908490613096565b90915550506001600160a01b0386166000908152610137602052604081208054839290610929908490613096565b90915550506001600160a01b0386166000908152610138602052604081208054849290610957908490613096565b9091555050604080516001600160a01b0388168152602081018790527fbb527541f6cc244ae00ab689f8c23d072a30a3b4176021df62ea1c2bac8aa226910160405180910390a15050506109ab600160fb55565b505050565b60006001600160e01b03198216637965db0b60e01b14806109e157506301ffc9a760e01b6001600160e01b03198316145b92915050565b6000805160206135068339815191526109ff8161205e565b60008211610a1f5760405162461bcd60e51b8152600401610846906130a9565b61013354821115610a895760405162461bcd60e51b815260206004820152602e60248201527f43616e6e6f742072657175697265206d6f7265207369676e617475726573207460448201526d68616e207472656173757265727360901b6064820152608401610846565b61013480549083905560408051828152602081018590527fe10a705edb4af55d916591ab3ae6d73d13195159890a14a90b10ae1117f9ea3791015b60405180910390a1505050565b610ad9612068565b6001600160a01b038116610aff5760405162461bcd60e51b815260040161084690612fdb565b610131546001600160a01b0316610b585760405162461bcd60e51b815260206004820152601860248201527f5374616b696e6720636f6e7472616374206e6f742073657400000000000000006044820152606401610846565b6001600160a01b0381166000908152610138602052604090205480610bbf5760405162461bcd60e51b815260206004820152601a60248201527f4e6f2070656e64696e67206665657320746f2070726f636573730000000000006044820152606401610846565b6001600160a01b03828116600081815261013860205260408082209190915561013154905163a9059cbb60e01b81529216600483015260248201839052839163a9059cbb906044016020604051808303816000875af1925050508015610c42575060408051601f3d908101601f19168201909252610c3f918101906130ea565b60015b610c7a576001600160a01b0383166000908152610136602052604081208054849290610c6f908490613096565b90915550610d499050565b5061013154604051622c4a6960e21b81526001600160a01b038581166004830152602482018590529091169062b129a490604401600060405180830381600087803b158015610cc857600080fd5b505af1925050508015610cd9575060015b610d06576001600160a01b0383166000908152610136602052604081208054849290610c6f908490613096565b604080516001600160a01b0385168152602081018490527f4bff683c32ecf151f18a175c3a0630e8c47bd510b1bb2061720f8dc87ccde2f1910160405180910390a15b5050610d55600160fb55565b50565b600080516020613506833981519152610d708161205e565b6001600160a01b038216610dc65760405162461bcd60e51b815260206004820181905260248201527f436f6c6c6563746f722063616e6e6f74206265207a65726f20616464726573736044820152606401610846565b610dde60008051602061349f833981519152836120c8565b5050565b600082815260656020526040902060010154610dfd8161205e565b6109ab838361212f565b600080516020613506833981519152610e1f8161205e565b6001600160a01b038216610e855760405162461bcd60e51b815260206004820152602760248201527f5374616b696e6720636f6e74726163742063616e6e6f74206265207a65726f206044820152666164647265737360c81b6064820152608401610846565b61013180546001600160a01b038481166001600160a01b031983168117909355604080519190921680825260208201939093527f7042586b23181180eb30b4798702d7a0233b7fc2551e89806770e8e5d9392e6a9101610ac4565b6001600160a01b0381163314610f505760405162461bcd60e51b815260206004820152602f60248201527f416363657373436f6e74726f6c3a2063616e206f6e6c792072656e6f756e636560448201526e103937b632b9903337b91039b2b63360891b6064820152608401610846565b610dde82826120c8565b6001600160a01b037f0000000000000000000000000000000000000000000000000000000000000000163003610fa25760405162461bcd60e51b81526004016108469061310c565b7f00000000000000000000000000000000000000000000000000000000000000006001600160a01b0316610feb6000805160206134bf833981519152546001600160a01b031690565b6001600160a01b0316146110115760405162461bcd60e51b815260040161084690613158565b61101a816121b5565b60408051600080825260208201909252610d55918391906121df565b6001600160a01b037f000000000000000000000000000000000000000000000000000000000000000016300361107e5760405162461bcd60e51b81526004016108469061310c565b7f00000000000000000000000000000000000000000000000000000000000000006001600160a01b03166110c76000805160206134bf833981519152546001600160a01b031690565b6001600160a01b0316146110ed5760405162461bcd60e51b815260040161084690613158565b6110f6826121b5565b610dde828260016121df565b6000306001600160a01b037f000000000000000000000000000000000000000000000000000000000000000016146111a25760405162461bcd60e51b815260206004820152603860248201527f555550535570677261646561626c653a206d757374206e6f742062652063616c60448201527f6c6564207468726f7567682064656c656761746563616c6c00000000000000006064820152608401610846565b506000805160206134bf83398151915290565b6000805160206135068339815191526111cd8161205e565b6111d5612068565b6001600160a01b0384166111fb5760405162461bcd60e51b815260040161084690612fdb565b6001600160a01b0383166112515760405162461bcd60e51b815260206004820181905260248201527f526563697069656e742063616e6e6f74206265207a65726f20616464726573736044820152606401610846565b600082116112715760405162461bcd60e51b815260040161084690613012565b6112856001600160a01b038516848461234a565b604080516001600160a01b038087168252851660208201529081018390527f238062e33e7062c4aeccb2acac43aecc0b1a1ca891a5bc84a689f2272cb39a439060600160405180910390a16112da600160fb55565b50505050565b600054610100900460ff16158080156113005750600054600160ff909116105b8061131a5750303b15801561131a575060005460ff166001145b61137d5760405162461bcd60e51b815260206004820152602e60248201527f496e697469616c697a61626c653a20636f6e747261637420697320616c72656160448201526d191e481a5b9a5d1a585b1a5e995960921b6064820152608401610846565b6000805460ff1916600117905580156113a0576000805461ff0019166101001790555b6113a861239c565b6113b061239c565b6113b86123c5565b6113c360008761212f565b6113db6000805160206135068339815191528761212f565b6114057f189ab7a9244df0848122154315af71fe140f3db0fe014031783b0946b8c9d2e38761212f565b61141d60008051602061349f8339815191528761212f565b6001600160a01b03851661147d5760405162461bcd60e51b815260206004820152602160248201527f5355425620746f6b656e2063616e6e6f74206265207a65726f206164647265736044820152607360f81b6064820152608401610846565b61013080546001600160a01b038088166001600160a01b03199283161790925561013180549287169290911691909117905561213461012d556101f461012e556103e861012f55825182111561150d5760405162461bcd60e51b81526020600482015260156024820152744e6f7420656e6f756768207472656173757265727360581b6044820152606401610846565b6000821161152d5760405162461bcd60e51b8152600401610846906130a9565b60005b835181101561165e57600084828151811061154d5761154d6131a4565b6020026020010151905060006001600160a01b0316816001600160a01b0316036115b95760405162461bcd60e51b815260206004820181905260248201527f5472656173757265722063616e6e6f74206265207a65726f20616464726573736044820152606401610846565b6001600160a01b0381166000908152610132602052604090205460ff16156116195760405162461bcd60e51b8152602060048201526013602482015272223ab83634b1b0ba32903a3932b0b9bab932b960691b6044820152606401610846565b6001600160a01b038116600090815261013260205260409020805460ff1916600117905561165560008051602061347f8339815191528261212f565b50600101611530565b50825161013355610134829055600161013a5580156116b7576000805461ff0019169055604051600181527f7f26b83ff96e1f2b6a682f133852f6798a09c465da95921460cefb38474024989060200160405180910390a15b505050505050565b60008281526101396020526040812080546001600160a01b031661171a5760405162461bcd60e51b8152602060048201526012602482015271125b9d985b1a59081c995c5d595cdd08125160721b6044820152606401610846565b6001600160a01b03831660009081526006909101602052604090205460ff16905092915050565b6000805160206135068339815191526117598161205e565b6001600160a01b0382166117af5760405162461bcd60e51b815260206004820181905260248201527f436f6c6c6563746f722063616e6e6f74206265207a65726f20616464726573736044820152606401610846565b610dde60008051602061349f8339815191528361212f565b60009182526065602090815260408084206001600160a01b0393909316845291905290205460ff1690565b6101396020526000908152604090208054600182015460028301546003840180546001600160a01b03948516959394909216929161182f906131ba565b80601f016020809104026020016040519081016040528092919081815260200182805461185b906131ba565b80156118a85780601f1061187d576101008083540402835291602001916118a8565b820191906000526020600020905b81548152906001019060200180831161188b57829003601f168201915b505050506004830154600590930154919260ff1691905086565b6000805160206135068339815191526118da8161205e565b6001600160a01b0382166000908152610132602052604090205460ff166119355760405162461bcd60e51b815260206004820152600f60248201526e2737ba1030903a3932b0b9bab932b960891b6044820152606401610846565b6101345461013354116119a85760405162461bcd60e51b815260206004820152603560248201527f43616e6e6f7420686176652066657765722074726561737572657273207468616044820152746e207265717569726564207369676e61747572657360581b6064820152608401610846565b6001600160a01b038216600090815261013260205260408120805460ff191690556101338054600192906119dd9084906131f4565b909155506119fb905060008051602061347f833981519152836120c8565b6040516001600160a01b03831681527ffde0077ce013732f55b20a58418bed5fb0e385d4d3c5751099cc6ad1b96f87a3906020015b60405180910390a15050565b60008051602061347f833981519152611a548161205e565b611a5c612068565b600082815261013960205260409020600481015460ff1615611ac05760405162461bcd60e51b815260206004820152601b60248201527f5769746864726177616c20616c726561647920657865637574656400000000006044820152606401610846565b80546001600160a01b0316611b0c5760405162461bcd60e51b8152602060048201526012602482015271125b9d985b1a59081c995c5d595cdd08125160721b6044820152606401610846565b33600090815260068201602052604090205460ff1615611b615760405162461bcd60e51b815260206004820152601060248201526f105b1c9958591e48185c1c1c9bdd995960821b6044820152606401610846565b3360009081526006820160205260408120805460ff1916600190811790915560058301805491929091611b95908490613096565b9091555050604080518481523360208201527f7ab1df95613019ba98da0113a7adf5073c9fa62d93b5f202502115266aadc06a910160405180910390a161013454816005015410611be957611be9836123f4565b50610dde600160fb55565b600080516020613506833981519152611c0c8161205e565b6001600160a01b038216611c625760405162461bcd60e51b815260206004820181905260248201527f5472656173757265722063616e6e6f74206265207a65726f20616464726573736044820152606401610846565b6001600160a01b0382166000908152610132602052604090205460ff1615611cc25760405162461bcd60e51b815260206004820152601360248201527220b63932b0b23c9030903a3932b0b9bab932b960691b6044820152606401610846565b6001600160a01b038216600090815261013260205260408120805460ff19166001908117909155610133805491929091611cfd908490613096565b90915550611d1b905060008051602061347f8339815191528361212f565b6040516001600160a01b03831681527f2393e866bbe309c483802f9f50d0bd152952a8aeb6fca8419721af65e2f3c74b90602001611a30565b60008051602061347f833981519152611d6c8161205e565b611d74612068565b6001600160a01b038516611d9a5760405162461bcd60e51b815260040161084690612fdb565b60008411611dba5760405162461bcd60e51b815260040161084690613012565b6001600160a01b038316611e105760405162461bcd60e51b815260206004820181905260248201527f526563697069656e742063616e6e6f74206265207a65726f20616464726573736044820152606401610846565b6000825111611e5a5760405162461bcd60e51b8152602060048201526016602482015275526561736f6e2063616e6e6f7420626520656d70747960501b6044820152606401610846565b61013a805460009182611e6c83613207565b9091555060008181526101396020526040902080546001600160a01b03808a166001600160a01b0319928316178355600183018990556002830180549189169190921617905590915060038101611ec38582613267565b5060048101805460ff19908116909155600160058301819055336000908152600684016020526040908190208054909316909117909155517fd8b1dee1f725b0bef8551ad264692db1864daaaefd2dc9bde04c5ee70d45b84090611f309084908a908a908a908a90613326565b60405180910390a161013454816005015410611f4f57611f4f826123f4565b5050611f5b600160fb55565b5050505050565b600082815260656020526040902060010154611f7d8161205e565b6109ab83836120c8565b600080516020613506833981519152611f9f8161205e565b81611faa8486613096565b611fb49190613096565b612710146120045760405162461bcd60e51b815260206004820152601d60248201527f546f74616c20616c6c6f636174696f6e206d75737420626520313030250000006044820152606401610846565b61012d84905561012e83905561012f82905560408051858152602081018590529081018390527f21c55dfccedf7a8f464081b4c32abf493ebe4c9a653d37fd29365b3775a79cfd906060015b60405180910390a150505050565b610d558133612563565b600260fb54036120ba5760405162461bcd60e51b815260206004820152601f60248201527f5265656e7472616e637947756172643a207265656e7472616e742063616c6c006044820152606401610846565b600260fb55565b600160fb55565b6120d282826117c7565b15610dde5760008281526065602090815260408083206001600160a01b0385168085529252808320805460ff1916905551339285917ff6391f5c32d9c69d2a47ea670b442974b53935d1edc7fd64eb21e047a839171b9190a45050565b61213982826117c7565b610dde5760008281526065602090815260408083206001600160a01b03851684529091529020805460ff191660011790556121713390565b6001600160a01b0316816001600160a01b0316837f2f8788117e7eff1d82e926ec794901d17c78024a50270940304540a733656f0d60405160405180910390a45050565b7f189ab7a9244df0848122154315af71fe140f3db0fe014031783b0946b8c9d2e3610dde8161205e565b7f4910fdfa16fed3260ed0e7147f7cc6da11a60208b5b9406d12a635614ffd91435460ff1615612212576109ab836125bc565b826001600160a01b03166352d1902d6040518163ffffffff1660e01b8152600401602060405180830381865afa92505050801561226c575060408051601f3d908101601f191682019092526122699181019061335f565b60015b6122cf5760405162461bcd60e51b815260206004820152602e60248201527f45524331393637557067726164653a206e657720696d706c656d656e7461746960448201526d6f6e206973206e6f74205555505360901b6064820152608401610846565b6000805160206134bf833981519152811461233e5760405162461bcd60e51b815260206004820152602960248201527f45524331393637557067726164653a20756e737570706f727465642070726f786044820152681a58589b195555525160ba1b6064820152608401610846565b506109ab838383612658565b604080516001600160a01b038416602482015260448082018490528251808303909101815260649091019091526020810180516001600160e01b031663a9059cbb60e01b1790526109ab90849061267d565b600054610100900460ff166123c35760405162461bcd60e51b815260040161084690613378565b565b600054610100900460ff166123ec5760405162461bcd60e51b815260040161084690613378565b6123c3612752565b600081815261013960205260409020600481015460ff16156124585760405162461bcd60e51b815260206004820152601b60248201527f5769746864726177616c20616c726561647920657865637574656400000000006044820152606401610846565b6004818101805460ff1916600117905581546040516370a0823160e01b815230928101929092526001600160a01b03169060009082906370a0823190602401602060405180830381865afa1580156124b4573d6000803e3d6000fd5b505050506040513d601f19601f820116820180604052508101906124d8919061335f565b9050826001015481106125075760028301546001840154612507916001600160a01b038581169291169061234a565b825460018401546002850154604080518881526001600160a01b039485166020820152908101929092529190911660608201527e9525d1b7630386050058876f776d3f6b7b6c79213925aec88934ffa1678e2190608001612050565b61256d82826117c7565b610dde5761257a81612779565b61258583602061278b565b6040516020016125969291906133c3565b60408051601f198184030181529082905262461bcd60e51b825261084691600401613438565b6001600160a01b0381163b6126295760405162461bcd60e51b815260206004820152602d60248201527f455243313936373a206e657720696d706c656d656e746174696f6e206973206e60448201526c1bdd08184818dbdb9d1c9858dd609a1b6064820152608401610846565b6000805160206134bf83398151915280546001600160a01b0319166001600160a01b0392909216919091179055565b6126618361292e565b60008251118061266e5750805b156109ab576112da838361296e565b60006126d2826040518060400160405280602081526020017f5361666545524332303a206c6f772d6c6576656c2063616c6c206661696c6564815250856001600160a01b03166129939092919063ffffffff16565b90508051600014806126f35750808060200190518101906126f391906130ea565b6109ab5760405162461bcd60e51b815260206004820152602a60248201527f5361666545524332303a204552433230206f7065726174696f6e20646964206e6044820152691bdd081cdd58d8d9595960b21b6064820152608401610846565b600054610100900460ff166120c15760405162461bcd60e51b815260040161084690613378565b60606109e16001600160a01b03831660145b6060600061279a83600261305d565b6127a5906002613096565b67ffffffffffffffff8111156127bd576127bd612c6b565b6040519080825280601f01601f1916602001820160405280156127e7576020820181803683370190505b509050600360fc1b81600081518110612802576128026131a4565b60200101906001600160f81b031916908160001a905350600f60fb1b81600181518110612831576128316131a4565b60200101906001600160f81b031916908160001a905350600061285584600261305d565b612860906001613096565b90505b60018111156128d8576f181899199a1a9b1b9c1cb0b131b232b360811b85600f1660108110612894576128946131a4565b1a60f81b8282815181106128aa576128aa6131a4565b60200101906001600160f81b031916908160001a90535060049490941c936128d18161344b565b9050612863565b5083156129275760405162461bcd60e51b815260206004820181905260248201527f537472696e67733a20686578206c656e67746820696e73756666696369656e746044820152606401610846565b9392505050565b612937816125bc565b6040516001600160a01b038216907fbc7cd75a20ee27fd9adebab32041f755214dbc6bffa90cc0225b39da2e5c2d3b90600090a250565b606061292783836040518060600160405280602781526020016134df602791396129aa565b60606129a28484600085612a22565b949350505050565b6060600080856001600160a01b0316856040516129c79190613462565b600060405180830381855af49150503d8060008114612a02576040519150601f19603f3d011682016040523d82523d6000602084013e612a07565b606091505b5091509150612a1886838387612afd565b9695505050505050565b606082471015612a835760405162461bcd60e51b815260206004820152602660248201527f416464726573733a20696e73756666696369656e742062616c616e636520666f6044820152651c8818d85b1b60d21b6064820152608401610846565b600080866001600160a01b03168587604051612a9f9190613462565b60006040518083038185875af1925050503d8060008114612adc576040519150601f19603f3d011682016040523d82523d6000602084013e612ae1565b606091505b5091509150612af287838387612afd565b979650505050505050565b60608315612b6c578251600003612b65576001600160a01b0385163b612b655760405162461bcd60e51b815260206004820152601d60248201527f416464726573733a2063616c6c20746f206e6f6e2d636f6e74726163740000006044820152606401610846565b50816129a2565b6129a28383815115612b815781518083602001fd5b8060405162461bcd60e51b81526004016108469190613438565b80356001600160a01b0381168114612bb257600080fd5b919050565b60008060408385031215612bca57600080fd5b612bd383612b9b565b946020939093013593505050565b600060208284031215612bf357600080fd5b81356001600160e01b03198116811461292757600080fd5b600060208284031215612c1d57600080fd5b5035919050565b600060208284031215612c3657600080fd5b61292782612b9b565b60008060408385031215612c5257600080fd5b82359150612c6260208401612b9b565b90509250929050565b634e487b7160e01b600052604160045260246000fd5b604051601f8201601f1916810167ffffffffffffffff81118282101715612caa57612caa612c6b565b604052919050565b60008067ffffffffffffffff841115612ccd57612ccd612c6b565b50601f8301601f1916602001612ce281612c81565b915050828152838383011115612cf757600080fd5b828260208301376000602084830101529392505050565b60008060408385031215612d2157600080fd5b612d2a83612b9b565b9150602083013567ffffffffffffffff811115612d4657600080fd5b8301601f81018513612d5757600080fd5b612d6685823560208401612cb2565b9150509250929050565b600080600060608486031215612d8557600080fd5b612d8e84612b9b565b9250612d9c60208501612b9b565b929592945050506040919091013590565b600080600080600060a08688031215612dc557600080fd5b612dce86612b9b565b9450612ddc60208701612b9b565b9350612dea60408701612b9b565b9250606086013567ffffffffffffffff811115612e0657600080fd5b8601601f81018813612e1757600080fd5b803567ffffffffffffffff811115612e3157612e31612c6b565b8060051b612e4160208201612c81565b9182526020818401810192908101908b841115612e5d57600080fd5b6020850194505b83851015612e8657612e7585612b9b565b825260209485019490910190612e64565b989b979a509598608001359695505050505050565b60005b83811015612eb6578181015183820152602001612e9e565b50506000910152565b60008151808452612ed7816020860160208601612e9b565b601f01601f19169290920160200192915050565b6001600160a01b038781168252602082018790528516604082015260c060608201819052600090612f1e90830186612ebf565b93151560808301525060a00152949350505050565b60008060008060808587031215612f4957600080fd5b612f5285612b9b565b935060208501359250612f6760408601612b9b565b9150606085013567ffffffffffffffff811115612f8357600080fd5b8501601f81018713612f9457600080fd5b612fa387823560208401612cb2565b91505092959194509250565b600080600060608486031215612fc457600080fd5b505081359360208301359350604090920135919050565b6020808252601c908201527f546f6b656e2063616e6e6f74206265207a65726f206164647265737300000000604082015260600190565b6020808252818101527f416d6f756e74206d7573742062652067726561746572207468616e207a65726f604082015260600190565b634e487b7160e01b600052601160045260246000fd5b80820281158282048414176109e1576109e1613047565b60008261309157634e487b7160e01b600052601260045260246000fd5b500490565b808201808211156109e1576109e1613047565b60208082526021908201527f4d7573742072657175697265206174206c656173742031207369676e617475726040820152606560f81b606082015260800190565b6000602082840312156130fc57600080fd5b8151801515811461292757600080fd5b6020808252602c908201527f46756e6374696f6e206d7573742062652063616c6c6564207468726f7567682060408201526b19195b1959d85d1958d85b1b60a21b606082015260800190565b6020808252602c908201527f46756e6374696f6e206d7573742062652063616c6c6564207468726f7567682060408201526b6163746976652070726f787960a01b606082015260800190565b634e487b7160e01b600052603260045260246000fd5b600181811c908216806131ce57607f821691505b6020821081036131ee57634e487b7160e01b600052602260045260246000fd5b50919050565b818103818111156109e1576109e1613047565b60006001820161321957613219613047565b5060010190565b601f8211156109ab57806000526020600020601f840160051c810160208510156132475750805b601f840160051c820191505b81811015611f5b5760008155600101613253565b815167ffffffffffffffff81111561328157613281612c6b565b6132958161328f84546131ba565b84613220565b6020601f8211600181146132c957600083156132b15750848201515b600019600385901b1c1916600184901b178455611f5b565b600084815260208120601f198516915b828110156132f957878501518255602094850194600190920191016132d9565b50848210156133175786840151600019600387901b60f8161c191681555b50505050600190811b01905550565b8581526001600160a01b038581166020830152604082018590528316606082015260a060808201819052600090612af290830184612ebf565b60006020828403121561337157600080fd5b5051919050565b6020808252602b908201527f496e697469616c697a61626c653a20636f6e7472616374206973206e6f74206960408201526a6e697469616c697a696e6760a81b606082015260800190565b7f416363657373436f6e74726f6c3a206163636f756e74200000000000000000008152600083516133fb816017850160208801612e9b565b7001034b99036b4b9b9b4b733903937b6329607d1b601791840191820152835161342c816028840160208801612e9b565b01602801949350505050565b6020815260006129276020830184612ebf565b60008161345a5761345a613047565b506000190190565b60008251613474818460208701612e9b565b919091019291505056fe3496e2e73c4d42b75d702e60d9e48102720b8691234415963a5a857b86425d072dca0f5ce7e75a4b43fe2b0d6f5d0b7a2bf92ecf89f8f0aa17b8308b67038821360894a13ba1a3210667c828492db98dca3e2076cc3735a920a3ca505d382bbc416464726573733a206c6f772d6c6576656c2064656c65676174652063616c6c206661696c6564a49807205ce4d355092ef5a8a18f56e8913cf4a201fbe287825b095693c21775a26469706673582212206ffaeaf02a9b3439af2e46ce20dcd392f675032efbfec93cf793c9a128b8ce3464736f6c634300081c0033",
  "linkReferences": {},
  "deployedLinkReferences": {}
}