{
  "_format": "hh-sol-artifact-1",
  "contractName": "PaymentProcessor",
  "sourceName": "contracts/PaymentProcessor.sol",
  "abi": [
    {
      "inputs": [],
      "stateMutability": "nonpayable",
      "type": "constructor"
    },
    {
      "anonymous": false,
      "inputs": [
        {
          "indexed": false,
          "internalType": "address",
          "name": "previousAdmin",
          "type": "address"
        },
        {
          "indexed": false,
          "internalType": "address",
          "name": "newAdmin",
          "type": "address"
        }
      ],
      "name": "AdminChanged",
      "type": "event"
    },
    {
      "anonymous": false,
      "inputs": [
        {
          "indexed": true,
          "internalType": "address",
          "name": "beacon",
          "type": "address"
        }
      ],
      "name": "BeaconUpgraded",
      "type": "event"
    },
    {
      "anonymous": false,
      "inputs": [
        {
          "indexed": false,
          "internalType": "string",
          "name": "feeType",
          "type": "string"
        },
        {
          "indexed": false,
          "internalType": "uint256",
          "name": "oldFee",
          "type": "uint256"
        },
        {
          "indexed": false,
          "internalType": "uint256",
          "name": "newFee",
          "type": "uint256"
        }
      ],
      "name": "FeeUpdated",
      "type": "event"
    },
    {
      "anonymous": false,
      "inputs": [
        {
          "indexed": false,
          "internalType": "uint8",
          "name": "version",
          "type": "uint8"
        }
      ],
      "name": "Initialized",
      "type": "event"
    },
    {
      "anonymous": false,
      "inputs": [
        {
          "indexed": true,
          "internalType": "address",
          "name": "ottPlatform",
          "type": "address"
        },
        {
          "indexed": false,
          "internalType": "address",
          "name": "paymentAddress",
          "type": "address"
        }
      ],
      "name": "OttPlatformAdded",
      "type": "event"
    },
    {
      "anonymous": false,
      "inputs": [
        {
          "indexed": true,
          "internalType": "address",
          "name": "ottPlatform",
          "type": "address"
        }
      ],
      "name": "OttPlatformRemoved",
      "type": "event"
    },
    {
      "anonymous": false,
      "inputs": [
        {
          "indexed": true,
          "internalType": "address",
          "name": "from",
          "type": "address"
        },
        {
          "indexed": true,
          "internalType": "address",
          "name": "to",
          "type": "address"
        },
        {
          "indexed": false,
          "internalType": "uint256",
          "name": "amount",
          "type": "uint256"
        },
        {
          "indexed": false,
          "internalType": "address",
          "name": "paymentToken",
          "type": "address"
        },
        {
          "indexed": false,
          "internalType": "uint256",
          "name": "fee",
          "type": "uint256"
        }
      ],
      "name": "PaymentProcessed",
      "type": "event"
    },
    {
      "anonymous": false,
      "inputs": [
        {
          "indexed": true,
          "internalType": "bytes32",
          "name": "role",
          "type": "bytes32"
        },
        {
          "indexed": true,
          "internalType": "bytes32",
          "name": "previousAdminRole",
          "type": "bytes32"
        },
        {
          "indexed": true,
          "internalType": "bytes32",
          "name": "newAdminRole",
          "type": "bytes32"
        }
      ],
      "name": "RoleAdminChanged",
      "type": "event"
    },
    {
      "anonymous": false,
      "inputs": [
        {
          "indexed": true,
          "internalType": "bytes32",
          "name": "role",
          "type": "bytes32"
        },
        {
          "indexed": true,
          "internalType": "address",
          "name": "account",
          "type": "address"
        },
        {
          "indexed": true,
          "internalType": "address",
          "name": "sender",
          "type": "address"
        }
      ],
      "name": "RoleGranted",
      "type": "event"
    },
    {
      "anonymous": false,
      "inputs": [
        {
          "indexed": true,
          "internalType": "bytes32",
          "name": "role",
          "type": "bytes32"
        },
        {
          "indexed": true,
          "internalType": "address",
          "name": "account",
          "type": "address"
        },
        {
          "indexed": true,
          "internalType": "address",
          "name": "sender",
          "type": "address"
        }
      ],
      "name": "RoleRevoked",
      "type": "event"
    },
    {
      "anonymous": false,
      "inputs": [
        {
          "indexed": true,
          "internalType": "address",
          "name": "stablecoin",
          "type": "address"
        }
      ],
      "name": "StablecoinAdded",
      "type": "event"
    },
    {
      "anonymous": false,
      "inputs": [
        {
          "indexed": true,
          "internalType": "address",
          "name": "stablecoin",
          "type": "address"
        }
      ],
      "name": "StablecoinRemoved",
      "type": "event"
    },
    {
      "anonymous": false,
      "inputs": [
        {
          "indexed": true,
          "internalType": "address",
          "name": "subscriber",
          "type": "address"
        },
        {
          "indexed": true,
          "internalType": "address",
          "name": "ottPlatform",
          "type": "address"
        },
        {
          "indexed": false,
          "internalType": "uint256",
          "name": "amount",
          "type": "uint256"
        },
        {
          "indexed": false,
          "internalType": "address",
          "name": "paymentToken",
          "type": "address"
        },
        {
          "indexed": false,
          "internalType": "uint256",
          "name": "expiryTimestamp",
          "type": "uint256"
        }
      ],
      "name": "SubscriptionCreated",
      "type": "event"
    },
    {
      "anonymous": false,
      "inputs": [
        {
          "indexed": true,
          "internalType": "address",
          "name": "subscriber",
          "type": "address"
        },
        {
          "indexed": true,
          "internalType": "address",
          "name": "ottPlatform",
          "type": "address"
        },
        {
          "indexed": false,
          "internalType": "uint256",
          "name": "amount",
          "type": "uint256"
        },
        {
          "indexed": false,
          "internalType": "address",
          "name": "paymentToken",
          "type": "address"
        },
        {
          "indexed": false,
          "internalType": "uint256",
          "name": "expiryTimestamp",
          "type": "uint256"
        }
      ],
      "name": "SubscriptionRenewed",
      "type": "event"
    },
    {
      "anonymous": false,
      "inputs": [
        {
          "indexed": true,
          "internalType": "address",
          "name": "oldAddress",
          "type": "address"
        },
        {
          "indexed": true,
          "internalType": "address",
          "name": "newAddress",
          "type": "address"
        }
      ],
      "name": "TreasuryAddressUpdated",
      "type": "event"
    },
    {
      "anonymous": false,
      "inputs": [
        {
          "indexed": true,
          "internalType": "address",
          "name": "implementation",
          "type": "address"
        }
      ],
      "name": "Upgraded",
      "type": "event"
    },
    {
      "inputs": [],
      "name": "ADMIN_ROLE",
      "outputs": [
        {
          "internalType": "bytes32",
          "name": "",
          "type": "bytes32"
        }
      ],
      "stateMutability": "view",
      "type": "function"
    },
    {
      "inputs": [],
      "name": "DEFAULT_ADMIN_ROLE",
      "outputs": [
        {
          "internalType": "bytes32",
          "name": "",
          "type": "bytes32"
        }
      ],
      "stateMutability": "view",
      "type": "function"
    },
    {
      "inputs": [],
      "name": "OTT_ROLE",
      "outputs": [
        {
          "internalType": "bytes32",
          "name": "",
          "type": "bytes32"
        }
      ],
      "stateMutability": "view",
      "type": "function"
    },
    {
      "inputs": [],
      "name": "UPGRADER_ROLE",
      "outputs": [
        {
          "internalType": "bytes32",
          "name": "",
          "type": "bytes32"
        }
      ],
      "stateMutability": "view",
      "type": "function"
    },
    {
      "inputs": [
        {
          "internalType": "address",
          "name": "ottPlatform",
          "type": "address"
        },
        {
          "internalType": "address",
          "name": "paymentAddress",
          "type": "address"
        }
      ],
      "name": "addOttPlatform",
      "outputs": [],
      "stateMutability": "nonpayable",
      "type": "function"
    },
    {
      "inputs": [
        {
          "internalType": "address",
          "name": "stablecoin",
          "type": "address"
        }
      ],
      "name": "addSupportedStablecoin",
      "outputs": [],
      "stateMutability": "nonpayable",
      "type": "function"
    },
    {
      "inputs": [
        {
          "internalType": "address",
          "name": "ottPlatform",
          "type": "address"
        },
        {
          "internalType": "address",
          "name": "stablecoin",
          "type": "address"
        },
        {
          "internalType": "uint256",
          "name": "amount",
          "type": "uint256"
        },
        {
          "internalType": "uint256",
          "name": "durationDays",
          "type": "uint256"
        }
      ],
      "name": "createStablecoinSubscription",
      "outputs": [],
      "stateMutability": "nonpayable",
      "type": "function"
    },
    {
      "inputs": [
        {
          "internalType": "address",
          "name": "ottPlatform",
          "type": "address"
        },
        {
          "internalType": "uint256",
          "name": "amount",
          "type": "uint256"
        },
        {
          "internalType": "uint256",
          "name": "durationDays",
          "type": "uint256"
        }
      ],
      "name": "createSubvSubscription",
      "outputs": [],
      "stateMutability": "nonpayable",
      "type": "function"
    },
    {
      "inputs": [
        {
          "internalType": "bytes32",
          "name": "role",
          "type": "bytes32"
        }
      ],
      "name": "getRoleAdmin",
      "outputs": [
        {
          "internalType": "bytes32",
          "name": "",
          "type": "bytes32"
        }
      ],
      "stateMutability": "view",
      "type": "function"
    },
    {
      "inputs": [
        {
          "internalType": "address",
          "name": "subscriber",
          "type": "address"
        },
        {
          "internalType": "address",
          "name": "ottPlatform",
          "type": "address"
        }
      ],
      "name": "getSubscription",
      "outputs": [
        {
          "components": [
            {
              "internalType": "address",
              "name": "subscriber",
              "type": "address"
            },
            {
              "internalType": "address",
              "name": "ottPlatform",
              "type": "address"
            },
            {
              "internalType": "uint256",
              "name": "amount",
              "type": "uint256"
            },
            {
              "internalType": "address",
              "name": "paymentToken",
              "type": "address"
            },
            {
              "internalType": "uint256",
              "name": "expiryTimestamp",
              "type": "uint256"
            },
            {
              "internalType": "bool",
              "name": "active",
              "type": "bool"
            }
          ],
          "internalType": "struct PaymentProcessor.Subscription",
          "name": "",
          "type": "tuple"
        }
      ],
      "stateMutability": "view",
      "type": "function"
    },
    {
      "inputs": [
        {
          "internalType": "bytes32",
          "name": "role",
          "type": "bytes32"
        },
        {
          "internalType": "address",
          "name": "account",
          "type": "address"
        }
      ],
      "name": "grantRole",
      "outputs": [],
      "stateMutability": "nonpayable",
      "type": "function"
    },
    {
      "inputs": [
        {
          "internalType": "bytes32",
          "name": "role",
          "type": "bytes32"
        },
        {
          "internalType": "address",
          "name": "account",
          "type": "address"
        }
      ],
      "name": "hasRole",
      "outputs": [
        {
          "internalType": "bool",
          "name": "",
          "type": "bool"
        }
      ],
      "stateMutability": "view",
      "type": "function"
    },
    {
      "inputs": [
        {
          "internalType": "address",
          "name": "admin",
          "type": "address"
        },
        {
          "internalType": "address",
          "name": "treasury",
          "type": "address"
        },
        {
          "internalType": "address",
          "name": "subvToken",
          "type": "address"
        },
        {
          "internalType": "uint256",
          "name": "stablecoinFee",
          "type": "uint256"
        },
        {
          "internalType": "uint256",
          "name": "subvFee",
          "type": "uint256"
        }
      ],
      "name": "initialize",
      "outputs": [],
      "stateMutability": "nonpayable",
      "type": "function"
    },
    {
      "inputs": [
        {
          "internalType": "address",
          "name": "subscriber",
          "type": "address"
        },
        {
          "internalType": "address",
          "name": "ottPlatform",
          "type": "address"
        }
      ],
      "name": "isSubscriptionActive",
      "outputs": [
        {
          "internalType": "bool",
          "name": "",
          "type": "bool"
        }
      ],
      "stateMutability": "view",
      "type": "function"
    },
    {
      "inputs": [
        {
          "internalType": "address",
          "name": "",
          "type": "address"
        }
      ],
      "name": "ottPaymentAddresses",
      "outputs": [
        {
          "internalType": "address",
          "name": "",
          "type": "address"
        }
      ],
      "stateMutability": "view",
      "type": "function"
    },
    {
      "inputs": [],
      "name": "proxiableUUID",
      "outputs": [
        {
          "internalType": "bytes32",
          "name": "",
          "type": "bytes32"
        }
      ],
      "stateMutability": "view",
      "type": "function"
    },
    {
      "inputs": [
        {
          "internalType": "address",
          "name": "ottPlatform",
          "type": "address"
        }
      ],
      "name": "removeOttPlatform",
      "outputs": [],
      "stateMutability": "nonpayable",
      "type": "function"
    },
    {
      "inputs": [
        {
          "internalType": "address",
          "name": "stablecoin",
          "type": "address"
        }
      ],
      "name": "removeSupportedStablecoin",
      "outputs": [],
      "stateMutability": "nonpayable",
      "type": "function"
    },
    {
      "inputs": [
        {
          "internalType": "address",
          "name": "ottPlatform",
          "type": "address"
        },
        {
          "internalType": "uint256",
          "name": "durationDays",
          "type": "uint256"
        }
      ],
      "name": "renewSubscription",
      "outputs": [],
      "stateMutability": "nonpayable",
      "type": "function"
    },
    {
      "inputs": [
        {
          "internalType": "bytes32",
          "name": "role",
          "type": "bytes32"
        },
        {
          "internalType": "address",
          "name": "account",
          "type": "address"
        }
      ],
      "name": "renounceRole",
      "outputs": [],
      "stateMutability": "nonpayable",
      "type": "function"
    },
    {
      "inputs": [
        {
          "internalType": "bytes32",
          "name": "role",
          "type": "bytes32"
        },
        {
          "internalType": "address",
          "name": "account",
          "type": "address"
        }
      ],
      "name": "revokeRole",
      "outputs": [],
      "stateMutability": "nonpayable",
      "type": "function"
    },
    {
      "inputs": [],
      "name": "stablecoinFeePercentage",
      "outputs": [
        {
          "internalType": "uint256",
          "name": "",
          "type": "uint256"
        }
      ],
      "stateMutability": "view",
      "type": "function"
    },
    {
      "inputs": [
        {
          "internalType": "address",
          "name": "",
          "type": "address"
        },
        {
          "internalType": "address",
          "name": "",
          "type": "address"
        }
      ],
      "name": "subscriptions",
      "outputs": [
        {
          "internalType": "address",
          "name": "subscriber",
          "type": "address"
        },
        {
          "internalType": "address",
          "name": "ottPlatform",
          "type": "address"
        },
        {
          "internalType": "uint256",
          "name": "amount",
          "type": "uint256"
        },
        {
          "internalType": "address",
          "name": "paymentToken",
          "type": "address"
        },
        {
          "internalType": "uint256",
          "name": "expiryTimestamp",
          "type": "uint256"
        },
        {
          "internalType": "bool",
          "name": "active",
          "type": "bool"
        }
      ],
      "stateMutability": "view",
      "type": "function"
    },
    {
      "inputs": [],
      "name": "subvFeePercentage",
      "outputs": [
        {
          "internalType": "uint256",
          "name": "",
          "type": "uint256"
        }
      ],
      "stateMutability": "view",
      "type": "function"
    },
    {
      "inputs": [],
      "name": "subvTokenAddress",
      "outputs": [
        {
          "internalType": "address",
          "name": "",
          "type": "address"
        }
      ],
      "stateMutability": "view",
      "type": "function"
    },
    {
      "inputs": [
        {
          "internalType": "address",
          "name": "",
          "type": "address"
        }
      ],
      "name": "supportedStablecoins",
      "outputs": [
        {
          "internalType": "bool",
          "name": "",
          "type": "bool"
        }
      ],
      "stateMutability": "view",
      "type": "function"
    },
    {
      "inputs": [
        {
          "internalType": "bytes4",
          "name": "interfaceId",
          "type": "bytes4"
        }
      ],
      "name": "supportsInterface",
      "outputs": [
        {
          "internalType": "bool",
          "name": "",
          "type": "bool"
        }
      ],
      "stateMutability": "view",
      "type": "function"
    },
    {
      "inputs": [],
      "name": "treasuryAddress",
      "outputs": [
        {
          "internalType": "address",
          "name": "",
          "type": "address"
        }
      ],
      "stateMutability": "view",
      "type": "function"
    },
    {
      "inputs": [
        {
          "internalType": "uint256",
          "name": "newFeePercentage",
          "type": "uint256"
        }
      ],
      "name": "updateStablecoinFee",
      "outputs": [],
      "stateMutability": "nonpayable",
      "type": "function"
    },
    {
      "inputs": [
        {
          "internalType": "uint256",
          "name": "newFeePercentage",
          "type": "uint256"
        }
      ],
      "name": "updateSubvFee",
      "outputs": [],
      "stateMutability": "nonpayable",
      "type": "function"
    },
    {
      "inputs": [
        {
          "internalType": "address",
          "name": "newTreasury",
          "type": "address"
        }
      ],
      "name": "updateTreasuryAddress",
      "outputs": [],
      "stateMutability": "nonpayable",
      "type": "function"
    },
    {
      "inputs": [
        {
          "internalType": "address",
          "name": "newImplementation",
          "type": "address"
        }
      ],
      "name": "upgradeTo",
      "outputs": [],
      "stateMutability": "nonpayable",
      "type": "function"
    },
    {
      "inputs": [
        {
          "internalType": "address",
          "name": "newImplementation",
          "type": "address"
        },
        {
          "internalType": "bytes",
          "name": "data",
          "type": "bytes"
        }
      ],
      "name": "upgradeToAndCall",
      "outputs": [],
      "stateMutability": "payable",
      "type": "function"
    }
  ],
  "bytecode": "0x60a06040523060805234801561001457600080fd5b5061001d610022565b6100e1565b600054610100900460ff161561008e5760405162461bcd60e51b815260206004820152602760248201527f496e697469616c697a61626c653a20636f6e747261637420697320696e697469604482015266616c697a696e6760c81b606482015260840160405180910390fd5b60005460ff908116146100df576000805460ff191660ff9081179091556040519081527f7f26b83ff96e1f2b6a682f133852f6798a09c465da95921460cefb38474024989060200160405180910390a15b565b60805161304561011860003960008181610db401528181610df401528181610f4801528181610f88015261101701526130456000f3fe6080604052600436106101ee5760003560e01c8063841e45611161010d578063b9c8f7a1116100a0578063c97d12ff1161006f578063c97d12ff14610750578063d547741f14610767578063d5d3f78b14610787578063e25b4995146107a7578063f72c0d8b146107c757600080fd5b8063b9c8f7a11461068e578063bbeb64ef146106c7578063bf7d9119146106fe578063c5f956af1461072f57600080fd5b80639d1b26f0116100dc5780639d1b26f014610617578063a217fddf14610637578063a6b63eb81461064c578063ad0900231461066c57600080fd5b8063841e45611461059757806388c652e8146105b757806391d14854146105d7578063988e85a8146105f757600080fd5b80633659cfe6116101855780635b75dd8d116101545780635b75dd8d146103875780636207d31b146104a957806362e1bb671461055557806375b238fc1461057557600080fd5b80633659cfe61461031f5780634061be7c1461033f5780634f1ef2861461035f57806352d1902d1461037257600080fd5b8063248a9ca3116101c1578063248a9ca31461028a5780632d75129a146102c85780632f2ff15d146102df57806336568abe146102ff57600080fd5b806301ffc9a7146101f3578063103d0247146102285780631fdc6a791461024a578063245328671461026a575b600080fd5b3480156101ff57600080fd5b5061021361020e366004612981565b6107fb565b60405190151581526020015b60405180910390f35b34801561023457600080fd5b506102486102433660046129c7565b610832565b005b34801561025657600080fd5b506102486102653660046129fa565b610b7d565b34801561027657600080fd5b50610248610285366004612a13565b610c41565b34801561029657600080fd5b506102ba6102a53660046129fa565b60009081526065602052604090206001015490565b60405190815260200161021f565b3480156102d457600080fd5b506102ba61012e5481565b3480156102eb57600080fd5b506102486102fa366004612a2e565b610d07565b34801561030b57600080fd5b5061024861031a366004612a2e565b610d2c565b34801561032b57600080fd5b5061024861033a366004612a13565b610daa565b34801561034b57600080fd5b5061024861035a3660046129fa565b610e89565b61024861036d366004612a70565b610f3e565b34801561037e57600080fd5b506102ba61100a565b34801561039357600080fd5b506104506103a2366004612b3a565b6040805160c081018252600080825260208201819052918101829052606081018290526080810182905260a0810191909152506001600160a01b038083166000908152610133602090815260408083208585168452825291829020825160c081018452815485168152600182015485169281019290925260028101549282019290925260038201549092166060830152600481015460808301526005015460ff16151560a082015292915050565b60405161021f919081516001600160a01b03908116825260208084015182169083015260408084015190830152606080840151909116908201526080808301519082015260a09182015115159181019190915260c00190565b3480156104b557600080fd5b506105176104c4366004612b3a565b6101336020908152600092835260408084209091529082529020805460018201546002830154600384015460048501546005909501546001600160a01b0394851695938516949293919092169160ff1686565b604080516001600160a01b039788168152958716602087015285019390935293166060830152608082019290925290151560a082015260c00161021f565b34801561056157600080fd5b50610248610570366004612a13565b6110bd565b34801561058157600080fd5b506102ba600080516020612ff083398151915281565b3480156105a357600080fd5b506102486105b2366004612a13565b61113e565b3480156105c357600080fd5b506102136105d2366004612b3a565b611200565b3480156105e357600080fd5b506102136105f2366004612a2e565b611293565b34801561060357600080fd5b50610248610612366004612b3a565b6112be565b34801561062357600080fd5b50610248610632366004612b64565b61141e565b34801561064357600080fd5b506102ba600081565b34801561065857600080fd5b50610248610667366004612ba6565b61185e565b34801561067857600080fd5b506102ba600080516020612f8983398151915281565b34801561069a57600080fd5b50610130546106af906001600160a01b031681565b6040516001600160a01b03909116815260200161021f565b3480156106d357600080fd5b506106af6106e2366004612a13565b610132602052600090815260409020546001600160a01b031681565b34801561070a57600080fd5b50610213610719366004612a13565b6101316020526000908152604090205460ff1681565b34801561073b57600080fd5b5061012f546106af906001600160a01b031681565b34801561075c57600080fd5b506102ba61012d5481565b34801561077357600080fd5b50610248610782366004612a2e565b611bb3565b34801561079357600080fd5b506102486107a2366004612a13565b611bd8565b3480156107b357600080fd5b506102486107c2366004612bfb565b611c3b565b3480156107d357600080fd5b506102ba7f189ab7a9244df0848122154315af71fe140f3db0fe014031783b0946b8c9d2e381565b60006001600160e01b03198216637965db0b60e01b148061082c57506301ffc9a760e01b6001600160e01b03198316145b92915050565b61083a611f72565b610852600080516020612f8983398151915284611293565b6108775760405162461bcd60e51b815260040161086e90612c25565b60405180910390fd5b600082116108c75760405162461bcd60e51b815260206004820152601d60248201527f416d6f756e74206d7573742062652067726561746572207468616e2030000000604482015260640161086e565b600081116108e75760405162461bcd60e51b815260040161086e90612c53565b6001600160a01b038084166000908152610132602052604090205416806109205760405162461bcd60e51b815260040161086e90612c8a565b610130546001600160a01b031661093981333087611fcb565b600061271061012e548661094d9190612cd7565b6109579190612cee565b905060006109658287612d10565b905061097b6001600160a01b0384168583612036565b81156109ff5761012f5461099c906001600160a01b03858116911684612036565b61012f5461013054604051622c4a6960e21b81526001600160a01b0391821660048201526024810185905291169062b129a490604401600060405180830381600087803b1580156109ec57600080fd5b505af19250505080156109fd575060015b505b6000610a0e8662015180612cd7565b610a189042612d23565b6040805160c081018252338082526001600160a01b038c811660208085018281528587018f81526101308054861660608901908152608089018b8152600160a08b0181815260008b815261013389528d81208a8252909852968c90209a518b546001600160a01b0319908116918b16919091178c559551908b0180548716918a16919091179055925160028a0155516003890180549094169087161790925551600487015590516005909501805460ff19169515159590951790945592549351949550919390927f21e527698f5bf21659fb742014b52af2edd773ad0ace27d40cec8b2396849ec092610b12928d92909116908790612d36565b60405180910390a3610130546040516001600160a01b038088169233927f7f6dd00032c4d5eb5396a5baea635501cc1e2a70dd1a3184133578de46ac597e92610b619288929116908990612d36565b60405180910390a35050505050610b786001609755565b505050565b600080516020612ff0833981519152610b958161206d565b6103e8821115610bd65760405162461bcd60e51b815260206004820152600c60248201526b08ccaca40e8dede40d0d2ced60a31b604482015260640161086e565b61012d805490839055604080516060808252600a908201526929ba30b13632b1b7b4b760b11b6080820152602081018390529081018490527fa959d4d2b0cc07c4515dc6e929a0f9c8ade49c6edb5133ba973de9b8ad7458619060a0015b60405180910390a1505050565b600080516020612ff0833981519152610c598161206d565b6001600160a01b038216610cb95760405162461bcd60e51b815260206004820152602160248201527f537461626c65636f696e2063616e6e6f74206265207a65726f206164647265736044820152607360f81b606482015260840161086e565b6001600160a01b03821660008181526101316020526040808220805460ff19166001179055517f3db297c09c19972ba6a701ff373ab97e21ff1e4992e863c7abe44e9b2fed08479190a25050565b600082815260656020526040902060010154610d228161206d565b610b788383612077565b6001600160a01b0381163314610d9c5760405162461bcd60e51b815260206004820152602f60248201527f416363657373436f6e74726f6c3a2063616e206f6e6c792072656e6f756e636560448201526e103937b632b9903337b91039b2b63360891b606482015260840161086e565b610da682826120fd565b5050565b6001600160a01b037f0000000000000000000000000000000000000000000000000000000000000000163003610df25760405162461bcd60e51b815260040161086e90612d55565b7f00000000000000000000000000000000000000000000000000000000000000006001600160a01b0316610e3b600080516020612fa9833981519152546001600160a01b031690565b6001600160a01b031614610e615760405162461bcd60e51b815260040161086e90612da1565b610e6a81612164565b60408051600080825260208201909252610e869183919061218e565b50565b600080516020612ff0833981519152610ea18161206d565b6101f4821115610ee25760405162461bcd60e51b815260206004820152600c60248201526b08ccaca40e8dede40d0d2ced60a31b604482015260640161086e565b61012e8054908390556040805160608082526004908201526329aaa12b60e11b6080820152602081018390529081018490527fa959d4d2b0cc07c4515dc6e929a0f9c8ade49c6edb5133ba973de9b8ad7458619060a001610c34565b6001600160a01b037f0000000000000000000000000000000000000000000000000000000000000000163003610f865760405162461bcd60e51b815260040161086e90612d55565b7f00000000000000000000000000000000000000000000000000000000000000006001600160a01b0316610fcf600080516020612fa9833981519152546001600160a01b031690565b6001600160a01b031614610ff55760405162461bcd60e51b815260040161086e90612da1565b610ffe82612164565b610da68282600161218e565b6000306001600160a01b037f000000000000000000000000000000000000000000000000000000000000000016146110aa5760405162461bcd60e51b815260206004820152603860248201527f555550535570677261646561626c653a206d757374206e6f742062652063616c60448201527f6c6564207468726f7567682064656c656761746563616c6c0000000000000000606482015260840161086e565b50600080516020612fa983398151915290565b600080516020612ff08339815191526110d58161206d565b6110ed600080516020612f89833981519152836120fd565b6001600160a01b0382166000818152610132602052604080822080546001600160a01b0319169055517fd06064a2eda23c0e8f50e8150376c2d42d187869f8c16fd84f80b903ccd52c7b9190a25050565b600080516020612ff08339815191526111568161206d565b6001600160a01b0382166111ac5760405162461bcd60e51b815260206004820152601f60248201527f54726561737572792063616e6e6f74206265207a65726f206164647265737300604482015260640161086e565b61012f80546001600160a01b038481166001600160a01b0319831681179093556040519116919082907f430359a6d97ced2b6f93c77a91e7ce9dfd43252eb91e916adba170485cd8a6a490600090a3505050565b6001600160a01b0380831660009081526101336020908152604080832085851684528252808320815160c0810183528154861681526001820154861693810193909352600281015491830191909152600381015490931660608201526004830154608082015260059092015460ff1615801560a084018190529192919061128b575080608001514211155b949350505050565b60009182526065602090815260408084206001600160a01b0393909316845291905290205460ff1690565b600080516020612ff08339815191526112d68161206d565b6001600160a01b0383166113385760405162461bcd60e51b815260206004820152602360248201527f4f545420706c6174666f726d2063616e6e6f74206265207a65726f206164647260448201526265737360e81b606482015260840161086e565b6001600160a01b03821661139d5760405162461bcd60e51b815260206004820152602660248201527f5061796d656e7420616464726573732063616e6e6f74206265207a65726f206160448201526564647265737360d01b606482015260840161086e565b6113b5600080516020612f8983398151915284612077565b6001600160a01b038381166000818152610132602090815260409182902080546001600160a01b0319169487169485179055905192835290917ff03b5cf3ba3304e5435a3aa856773fcf5f3e0cf24aa89a0754320eefe6254a9e910160405180910390a2505050565b611426611f72565b61143e600080516020612f8983398151915285611293565b61145a5760405162461bcd60e51b815260040161086e90612c25565b6001600160a01b0383166000908152610131602052604090205460ff166114bc5760405162461bcd60e51b81526020600482015260166024820152752ab739bab83837b93a32b21039ba30b13632b1b7b4b760511b604482015260640161086e565b6000821161150c5760405162461bcd60e51b815260206004820152601d60248201527f416d6f756e74206d7573742062652067726561746572207468616e2030000000604482015260640161086e565b6000811161152c5760405162461bcd60e51b815260040161086e90612c53565b6001600160a01b038085166000908152610132602052604090205416806115655760405162461bcd60e51b815260040161086e90612c8a565b8361157b6001600160a01b038216333087611fcb565b600061271061012d548661158f9190612cd7565b6115999190612cee565b905060006115a78287612d10565b90506115bd6001600160a01b0384168583612036565b811561163e5761012f546115de906001600160a01b03858116911684612036565b61012f54604051622c4a6960e21b81526001600160a01b038981166004830152602482018590529091169062b129a490604401600060405180830381600087803b15801561162b57600080fd5b505af192505050801561163c575060015b505b600061164d8662015180612cd7565b6116579042612d23565b90506040518060c00160405280336001600160a01b031681526020018a6001600160a01b03168152602001888152602001896001600160a01b03168152602001828152602001600115158152506101336000336001600160a01b03166001600160a01b0316815260200190815260200160002060008b6001600160a01b03166001600160a01b0316815260200190815260200160002060008201518160000160006101000a8154816001600160a01b0302191690836001600160a01b0316021790555060208201518160010160006101000a8154816001600160a01b0302191690836001600160a01b031602179055506040820151816002015560608201518160030160006101000a8154816001600160a01b0302191690836001600160a01b031602179055506080820151816004015560a08201518160050160006101000a81548160ff021916908315150217905550905050886001600160a01b0316336001600160a01b03167f21e527698f5bf21659fb742014b52af2edd773ad0ace27d40cec8b2396849ec0898b856040516117f293929190612d36565b60405180910390a3846001600160a01b0316336001600160a01b03167f7f6dd00032c4d5eb5396a5baea635501cc1e2a70dd1a3184133578de46ac597e848b8760405161184193929190612d36565b60405180910390a350505050506118586001609755565b50505050565b600054610100900460ff161580801561187e5750600054600160ff909116105b806118985750303b158015611898575060005460ff166001145b6118fb5760405162461bcd60e51b815260206004820152602e60248201527f496e697469616c697a61626c653a20636f6e747261637420697320616c72656160448201526d191e481a5b9a5d1a585b1a5e995960921b606482015260840161086e565b6000805460ff19166001179055801561191e576000805461ff0019166101001790555b6001600160a01b0386166119745760405162461bcd60e51b815260206004820152601c60248201527f41646d696e2063616e6e6f74206265207a65726f206164647265737300000000604482015260640161086e565b6001600160a01b0385166119ca5760405162461bcd60e51b815260206004820152601f60248201527f54726561737572792063616e6e6f74206265207a65726f206164647265737300604482015260640161086e565b6001600160a01b038416611a2a5760405162461bcd60e51b815260206004820152602160248201527f5355425620746f6b656e2063616e6e6f74206265207a65726f206164647265736044820152607360f81b606482015260840161086e565b6103e8831115611a7c5760405162461bcd60e51b815260206004820152601760248201527f537461626c65636f696e2066656520746f6f2068696768000000000000000000604482015260640161086e565b6101f4821115611ac25760405162461bcd60e51b81526020600482015260116024820152700a6aa84ac40cccaca40e8dede40d0d2ced607b1b604482015260640161086e565b611aca6122f9565b611ad2612322565b611ada6122f9565b611ae5600087612077565b611afd600080516020612ff083398151915287612077565b611b277f189ab7a9244df0848122154315af71fe140f3db0fe014031783b0946b8c9d2e387612077565b61012f80546001600160a01b038088166001600160a01b03199283161790925561013080549287169290911691909117905561012d83905561012e8290558015611bab576000805461ff0019169055604051600181527f7f26b83ff96e1f2b6a682f133852f6798a09c465da95921460cefb38474024989060200160405180910390a15b505050505050565b600082815260656020526040902060010154611bce8161206d565b610b7883836120fd565b600080516020612ff0833981519152611bf08161206d565b6001600160a01b03821660008181526101316020526040808220805460ff19169055517f3302a1b37f04242bb55603f5449e7ecd690a35eef08ba1353c48c20e2aae9cda9190a25050565b611c43611f72565b611c5b600080516020612f8983398151915283611293565b611c775760405162461bcd60e51b815260040161086e90612c25565b60008111611c975760405162461bcd60e51b815260040161086e90612c53565b336000818152610133602090815260408083206001600160a01b038781168552925290912080549092911614611d0f5760405162461bcd60e51b815260206004820152601860248201527f4e6f206578697374696e6720737562736372697074696f6e0000000000000000604482015260640161086e565b6001600160a01b03808416600090815261013260205260409020541680611d485760405162461bcd60e51b815260040161086e90612c8a565b600282015460038301546001600160a01b031680611d6881333086611fcb565b610130546000906001600160a01b0390811690841603611da55761271061012e5485611d949190612cd7565b611d9e9190612cee565b9050611dc4565b61271061012d5485611db79190612cd7565b611dc19190612cee565b90505b6000611dd08286612d10565b9050611de66001600160a01b0384168783612036565b8115611e675761012f54611e07906001600160a01b03858116911684612036565b61012f54604051622c4a6960e21b81526001600160a01b038681166004830152602482018590529091169062b129a490604401600060405180830381600087803b158015611e5457600080fd5b505af1925050508015611e65575060015b505b60008760040154421115611e9357611e828962015180612cd7565b611e8c9042612d23565b9050611eb2565b611ea08962015180612cd7565b8860040154611eaf9190612d23565b90505b6004880181905560058801805460ff191660011790556040516001600160a01b038b169033907f8df8d14e76437d9158e975600e0c27b19169440c4758311f44f739f8b39f738390611f09908a908a908790612d36565b60405180910390a3866001600160a01b0316336001600160a01b03167f7f6dd00032c4d5eb5396a5baea635501cc1e2a70dd1a3184133578de46ac597e848887604051611f5893929190612d36565b60405180910390a35050505050505050610da66001609755565b600260975403611fc45760405162461bcd60e51b815260206004820152601f60248201527f5265656e7472616e637947756172643a207265656e7472616e742063616c6c00604482015260640161086e565b6002609755565b6040516001600160a01b03808516602483015283166044820152606481018290526118589085906323b872dd60e01b906084015b60408051601f198184030181529190526020810180516001600160e01b03166001600160e01b031990931692909217909152612351565b6040516001600160a01b038316602482015260448101829052610b7890849063a9059cbb60e01b90606401611fff565b6001609755565b610e868133612426565b6120818282611293565b610da65760008281526065602090815260408083206001600160a01b03851684529091529020805460ff191660011790556120b93390565b6001600160a01b0316816001600160a01b0316837f2f8788117e7eff1d82e926ec794901d17c78024a50270940304540a733656f0d60405160405180910390a45050565b6121078282611293565b15610da65760008281526065602090815260408083206001600160a01b0385168085529252808320805460ff1916905551339285917ff6391f5c32d9c69d2a47ea670b442974b53935d1edc7fd64eb21e047a839171b9190a45050565b7f189ab7a9244df0848122154315af71fe140f3db0fe014031783b0946b8c9d2e3610da68161206d565b7f4910fdfa16fed3260ed0e7147f7cc6da11a60208b5b9406d12a635614ffd91435460ff16156121c157610b788361247f565b826001600160a01b03166352d1902d6040518163ffffffff1660e01b8152600401602060405180830381865afa92505050801561221b575060408051601f3d908101601f1916820190925261221891810190612ded565b60015b61227e5760405162461bcd60e51b815260206004820152602e60248201527f45524331393637557067726164653a206e657720696d706c656d656e7461746960448201526d6f6e206973206e6f74205555505360901b606482015260840161086e565b600080516020612fa983398151915281146122ed5760405162461bcd60e51b815260206004820152602960248201527f45524331393637557067726164653a20756e737570706f727465642070726f786044820152681a58589b195555525160ba1b606482015260840161086e565b50610b7883838361251b565b600054610100900460ff166123205760405162461bcd60e51b815260040161086e90612e06565b565b600054610100900460ff166123495760405162461bcd60e51b815260040161086e90612e06565b612320612540565b60006123a6826040518060400160405280602081526020017f5361666545524332303a206c6f772d6c6576656c2063616c6c206661696c6564815250856001600160a01b03166125679092919063ffffffff16565b90508051600014806123c75750808060200190518101906123c79190612e51565b610b785760405162461bcd60e51b815260206004820152602a60248201527f5361666545524332303a204552433230206f7065726174696f6e20646964206e6044820152691bdd081cdd58d8d9595960b21b606482015260840161086e565b6124308282611293565b610da65761243d81612576565b612448836020612588565b604051602001612459929190612e97565b60408051601f198184030181529082905262461bcd60e51b825261086e91600401612f0c565b6001600160a01b0381163b6124ec5760405162461bcd60e51b815260206004820152602d60248201527f455243313936373a206e657720696d706c656d656e746174696f6e206973206e60448201526c1bdd08184818dbdb9d1c9858dd609a1b606482015260840161086e565b600080516020612fa983398151915280546001600160a01b0319166001600160a01b0392909216919091179055565b6125248361272b565b6000825111806125315750805b15610b7857611858838361276b565b600054610100900460ff166120665760405162461bcd60e51b815260040161086e90612e06565b606061128b8484600085612790565b606061082c6001600160a01b03831660145b60606000612597836002612cd7565b6125a2906002612d23565b67ffffffffffffffff8111156125ba576125ba612a5a565b6040519080825280601f01601f1916602001820160405280156125e4576020820181803683370190505b509050600360fc1b816000815181106125ff576125ff612f3f565b60200101906001600160f81b031916908160001a905350600f60fb1b8160018151811061262e5761262e612f3f565b60200101906001600160f81b031916908160001a9053506000612652846002612cd7565b61265d906001612d23565b90505b60018111156126d5576f181899199a1a9b1b9c1cb0b131b232b360811b85600f166010811061269157612691612f3f565b1a60f81b8282815181106126a7576126a7612f3f565b60200101906001600160f81b031916908160001a90535060049490941c936126ce81612f55565b9050612660565b5083156127245760405162461bcd60e51b815260206004820181905260248201527f537472696e67733a20686578206c656e67746820696e73756666696369656e74604482015260640161086e565b9392505050565b6127348161247f565b6040516001600160a01b038216907fbc7cd75a20ee27fd9adebab32041f755214dbc6bffa90cc0225b39da2e5c2d3b90600090a250565b60606127248383604051806060016040528060278152602001612fc96027913961286b565b6060824710156127f15760405162461bcd60e51b815260206004820152602660248201527f416464726573733a20696e73756666696369656e742062616c616e636520666f6044820152651c8818d85b1b60d21b606482015260840161086e565b600080866001600160a01b0316858760405161280d9190612f6c565b60006040518083038185875af1925050503d806000811461284a576040519150601f19603f3d011682016040523d82523d6000602084013e61284f565b606091505b5091509150612860878383876128e3565b979650505050505050565b6060600080856001600160a01b0316856040516128889190612f6c565b600060405180830381855af49150503d80600081146128c3576040519150601f19603f3d011682016040523d82523d6000602084013e6128c8565b606091505b50915091506128d9868383876128e3565b9695505050505050565b6060831561295257825160000361294b576001600160a01b0385163b61294b5760405162461bcd60e51b815260206004820152601d60248201527f416464726573733a2063616c6c20746f206e6f6e2d636f6e7472616374000000604482015260640161086e565b508161128b565b61128b83838151156129675781518083602001fd5b8060405162461bcd60e51b815260040161086e9190612f0c565b60006020828403121561299357600080fd5b81356001600160e01b03198116811461272457600080fd5b80356001600160a01b03811681146129c257600080fd5b919050565b6000806000606084860312156129dc57600080fd5b6129e5846129ab565b95602085013595506040909401359392505050565b600060208284031215612a0c57600080fd5b5035919050565b600060208284031215612a2557600080fd5b612724826129ab565b60008060408385031215612a4157600080fd5b82359150612a51602084016129ab565b90509250929050565b634e487b7160e01b600052604160045260246000fd5b60008060408385031215612a8357600080fd5b612a8c836129ab565b9150602083013567ffffffffffffffff811115612aa857600080fd5b8301601f81018513612ab957600080fd5b803567ffffffffffffffff811115612ad357612ad3612a5a565b604051601f8201601f19908116603f0116810167ffffffffffffffff81118282101715612b0257612b02612a5a565b604052818152828201602001871015612b1a57600080fd5b816020840160208301376000602083830101528093505050509250929050565b60008060408385031215612b4d57600080fd5b612b56836129ab565b9150612a51602084016129ab565b60008060008060808587031215612b7a57600080fd5b612b83856129ab565b9350612b91602086016129ab565b93969395505050506040820135916060013590565b600080600080600060a08688031215612bbe57600080fd5b612bc7866129ab565b9450612bd5602087016129ab565b9350612be3604087016129ab565b94979396509394606081013594506080013592915050565b60008060408385031215612c0e57600080fd5b612c17836129ab565b946020939093013593505050565b602080825260149082015273496e76616c6964204f545420706c6174666f726d60601b604082015260600190565b6020808252601f908201527f4475726174696f6e206d7573742062652067726561746572207468616e203000604082015260600190565b6020808252601b908201527f4f5454207061796d656e742061646472657373206e6f74207365740000000000604082015260600190565b634e487b7160e01b600052601160045260246000fd5b808202811582820484141761082c5761082c612cc1565b600082612d0b57634e487b7160e01b600052601260045260246000fd5b500490565b8181038181111561082c5761082c612cc1565b8082018082111561082c5761082c612cc1565b9283526001600160a01b03919091166020830152604082015260600190565b6020808252602c908201527f46756e6374696f6e206d7573742062652063616c6c6564207468726f7567682060408201526b19195b1959d85d1958d85b1b60a21b606082015260800190565b6020808252602c908201527f46756e6374696f6e206d7573742062652063616c6c6564207468726f7567682060408201526b6163746976652070726f787960a01b606082015260800190565b600060208284031215612dff57600080fd5b5051919050565b6020808252602b908201527f496e697469616c697a61626c653a20636f6e7472616374206973206e6f74206960408201526a6e697469616c697a696e6760a81b606082015260800190565b600060208284031215612e6357600080fd5b8151801515811461272457600080fd5b60005b83811015612e8e578181015183820152602001612e76565b50506000910152565b7f416363657373436f6e74726f6c3a206163636f756e7420000000000000000000815260008351612ecf816017850160208801612e73565b7001034b99036b4b9b9b4b733903937b6329607d1b6017918401918201528351612f00816028840160208801612e73565b01602801949350505050565b6020815260008251806020840152612f2b816040850160208701612e73565b601f01601f19169190910160400192915050565b634e487b7160e01b600052603260045260246000fd5b600081612f6457612f64612cc1565b506000190190565b60008251612f7e818460208701612e73565b919091019291505056fe19bc7065081b5726fd3f9d532af689bc1d6630ec6306cd642398ef49520acec8360894a13ba1a3210667c828492db98dca3e2076cc3735a920a3ca505d382bbc416464726573733a206c6f772d6c6576656c2064656c65676174652063616c6c206661696c6564a49807205ce4d355092ef5a8a18f56e8913cf4a201fbe287825b095693c21775a26469706673582212201d81785f6d3c94133e7f826d3e523b7a6d6a2823ee82f692d6b04f598551617e64736f6c634300081c0033",
  "linkReferences": {},
  "deployedLinkReferences": {}
}